:100000000C94F0010C9437020C9437020C94A91D47
:100010000C9437020C9437020C9437020C9437027C
:100020000C9437020C9437020C945B2A0C942D2B01
:100030000C94B8200C9437020C9437020C943702BD
:100040000C9437020C9437020C9437020C9437024C
:100050000C9437020C942D210C9437020C94370227
:100060000C9437020C9437020C9437020C9437022C
:100070000C9437020C9437020C9437020C9437021C
:100080000C9437020C9437020C9437020C9437020C
:100090000C9437020C9437020C9437020C943702FC
:1000A0000C9437020C9437020C9437025D045D0403
:1000B00089048904F1040F05270627061A05B305EC
:1000C000C405C405CB06CB06DD06DD06D406DD0679
:1000D000DD06DD06CB06CB06D906DD06DD06D90634
:1000E0009A2BC12BB92CC12BB92C0D2C302CB92C2F
:1000F000872C962C00001400000000000000000077
:1001000000000000000000000000535C0000000040
:1001100000000000000000000000000000002C5C57
:100120002D5C2E5C000000000000000000000000BC
:1001300000000000000000000000000000000000BF
:1001400000000000000000000000000000000000AF
:10015000000000000000000000000000000000009F
:10016000000000000000000000000000000000008F
:10017000000000000000000000000000000000007F
:10018000000000000000000000000000000000006F
:10019000000000000000000000000000000000005F
:1001A000000000000000000000000000000000004F
:1001B0000000000029001E021F022002210222026C
:1001C000E00000000000000000000000E10000006E
:1001D0000000000000000000000000000000E3003C
:1001E0000000005C2A0027022602250224022302C6
:1001F0003500310230022F022E002D003502310071
:1002000030002F002E022D02000000000000E6004A
:10021000A75D005C0C0343006F0072006E00650078
:100220000000100366006F006F007300740061002F
:100230006E0000000403090409029F00040100A0ED
:10024000FA09040000010301010009211101000164
:100250002240000705810308000A09040100010388
:1002600000000009211101000122B60007058203E8
:1002700020000A080B02020101000009040200002C
:100280000101000009240100010900010309040320
:1002900000020103000007240100014100062402BE
:1002A00001010006240202020009240301030102E5
:1002B00001000924030204010101000905040240B0
:1002C0000005000005250101010905830240000524
:1002D000000005250101031201000200000008537F
:1002E00046010001000102000105010902A101858A
:1002F000020901A100050919012908150025019528
:1003000008750181020501093009311581257F95A4
:10031000027508810609381581257F9501750881C8
:1003200006050C0A38021581257F9501750881069E
:10033000C0C005010980A101850319012AB7001574
:100340000126B700950175108100C0050C0901A1B7
:1003500001850419012AA002150126A00295017544
:10036000108100C005010906A1018506050719E0F5
:1003700029E7150025019508750181020507190077
:1003800029EF1500250195F0750181020508190175
:100390002905950575019102950175039101C00527
:1003A000010906A101050719E029E71500250195B6
:1003B0000875018102950175088101050719002959
:1003C000FF150026FF009506750881000508190134
:1003D0002905950575019102950175039101C000EC
:1003E00011241FBECFEFDAE0DEBFCDBF04B603FE9F
:1003F00027C080916D0490916E04A0916F04B0911C
:1004000070048730904BA740B04BD1F410926D042C
:1004100010926E0410926F041092700414BE84B790
:10042000877F84BF0FB6F894A8958091600088619B
:1004300080936000109260000FBEE0E0F8E3099541
:1004400011E0A0E0B1E0EEE0FBE502C005900D9206
:10045000A63CB107D9F724E0A6ECB1E001C01D929B
:10046000AD36B207E1F70E941C150C94852D0C9453
:10047000000081E0089581E008950C943B02089506
:100480000C943F021F93CF93DF9300D000D01F92B4
:10049000CDB7DEB749835A836B833091C801898118
:1004A0009A81311114C0662359F0222349F00E9429
:1004B0007108182F682F89819A810E94180803C03B
:1004C0000E944408182F69817A81812F04C00E94FC
:1004D000710869817A810F900F900F900F900F90A3
:1004E000DF91CF911F910C94950FFC01262F408135
:1004F00051816281738184810C94420281E008956C
:10050000CF93DF93EC0160E00E947502BE01DF91A2
:10051000CF910C9440020E94E5100E9410030C94AD
:100520001F110C941B1180E00C94110308950C947E
:1005300096020E94B9060E9497022FEF84E39CE086
:10054000215080409040E1F700C000000C945321FE
:100550000F931F93CF93DF938C0161E00E9475028C
:10056000EC01B8010E943D02882309F444C0B8019F
:10057000CE010E9459158823F1F1B801CE010E94E5
:10058000B41C8823C1F1B801CE010E94DE1A882371
:1005900091F1B801CE010E94101C882361F1F8018D
:1005A0008281882309F1CB358DE5D807C1F050F45D
:1005B000C115FCE5DF0781F0CF3DDC45A9F40E94C1
:1005C0009B0D19C0CC35EDE5DE0761F0CD35DD457D
:1005D00059F40E94DE0C08C00E9499020CC00E94CF
:1005E000E70C02C00E94EA0CC801DF91CF911F9175
:1005F0000F910C94390280E0DF91CF911F910F9100
:1006000008950C9496020E94321F0E9411030C94CC
:10061000010308950C94090381E008950C940C03E0
:100620000895CF93C82F0E940A038C2F0E940E03B7
:10063000CF910895CF93DF93CDB7DEB72B970FB649
:10064000F894DEBF0FBECDBF4F83588769877A8786
:100650008B8761110E94370C9E012F5F3F4F86E010
:10066000F90111928A95E9F785E0FE013796D901E3
:1006700001900D928A95E1F789819A814C815D8183
:10068000452B31F09F3F31F491E08F3F19F403C0C7
:1006900091E001C090E090FF09C049815A816B81CF
:1006A0007C818D819E810E94580B05C0C9010E94EA
:1006B0007E028111F2CF2B960FB6F894DEBF0FBEEB
:1006C000CDBFDF91CF910895FC01808191810E947F
:1006D000B3080895CF93882309F450C0C82F8CEF36
:1006E0008C0F813AD0F46C2F80910201909103011C
:1006F0000E94AF1F882349F06C2F809102019091D6
:1007000003010E943A200E945C0C6C2F8091020130
:10071000909103010E942F200CC080E28C0F883042
:1007200058F4C77081E001C0880FCA95EAF70E94AB
:100730001A0CCF910C945C0CEBE5EC0FE33040F419
:10074000F0E0EE58FE4F808190E0CF910C946D1F49
:10075000E8E5EC0FE73150F4F0E0EE0FFF1FEC5B43
:10076000FE4F80819181CF910C94831FCD3E30F05C
:100770008C2F0E94B518CF910C948719CF910895B2
:10078000882389F19CEF980F913A40F4682F80916B
:100790000201909103010E943A200DC090E2980F4F
:1007A000983058F4877091E001C0990F8A95EAF764
:1007B000892F0E94200C0C945C0C9BE5980F9330C1
:1007C00020F480E090E00C946D1F98E5980F97312D
:1007D00020F480E090E00C94831F8D3E20F00E9476
:1007E00010190C94871908951F93CF93DF93182F36
:1007F000EB010E946A03209741F08FE99FE0019787
:10080000F1F700C000002197F6CF812FDF91CF9143
:100810001F910C94C003893319F060E070E002C0AE
:1008200060E570E00C94F403882321F00E941A0C18
:100830000C945C0C0895882321F00E94200C0C94E9
:100840005C0C0895CF92DF92EF92FF920F931F936B
:10085000CF93DF937C01D62FC72FFC011281058136
:1008600002950F700E94100C8823B9F01123A9F093
:100870008C2F807F803421F080E28D0F883068F0EB
:100880008091570382FD09C082E00E94AC0C0E9457
:10089000100C91E0D82ED92601C0D12CCC2EC294B8
:1008A0008FE0C8228C2D90E08C30910508F0CFC1EC
:1008B000FC01EA5AFF4F0C94272D8C2F807FCF70BC
:1008C000882311F0C295C07F112399F0CC2309F43D
:1008D000AAC180E28D0F883010F0D11104C08C2F96
:1008E0000E941A0C03C08C2F0E942A0C0E945C0CE0
:1008F0009AC18D2F0E94C003CC2309F4A8C180E2C5
:100900008D0F883038F1DD2329F18C2F0E94300CB7
:1009100024C08C2F807FCF70803211F0C295C07FB1
:10092000DD2319F0D130A1F13DC08091570382FF42
:1009300017C0112349F0CC2329F08C2F0E941A0CE8
:100940000E945C0C80E070C180E00E94C003CC2358
:1009500009F47DC18C2F0E94200C0E945C0C77C191
:10096000112371F0002341F0013031F40E943D0C5D
:100970008C2B0E94450C6BC10E943D0C8C2B1DC022
:10098000002319F0013009F462C10E94520C25C005
:10099000112321F0063008F05AC10EC0053008F0CE
:1009A00056C11BC0112361F0002331F0F70185818E
:1009B00080FF39C18F7085838C2F0E94140447C13A
:1009C000002359F0D93309F03FC1FFEF07EE13E0E0
:1009D000F15000401040E1F735C18C2F0E941B04FC
:1009E00036C18C2F86958695837019F0813061F021
:1009F0002EC1112321F08D2F9C2F937002C080E017
:100A000090E00E946D1F2BC1112321F08D2F9C2F90
:100A1000937002C080E090E00E94831F20C18D2F60
:100A2000112319F00E94B51802C00E9410190E94EB
:100A3000871915C18C2F837009F047C011110BC1A4
:100A40002D2F229526952770220F220F6D2F6F7064
:100A5000862F90E0A0E0B0E0022E04C0880F991F1E
:100A6000AA1FBB1F0A94D2F7D4FF10C04FE050E07A
:100A700060E070E004C0440F551F661F771F2A9581
:100A8000D2F7409550956095709503C040E050E0D6
:100A9000BA01C695C695C3708A019B01082B192B14
:100AA0002A2B3B2BC901B801C23049F058F4C130A0
:100AB00019F00E942E07CFC00E941C07CCC00E94D4
:100AC0004007C9C00E941A07C6C0112319F08C2F15
:100AD000817001C08695882309F4BDC02D2F229511
:100AE00026952770220F220F6D2F6F70862F90E0B2
:100AF000A0E0B0E0022E04C0880F991FAA1FBB1F00
:100B00000A94D2F7D4FF10C04FE050E060E070E0EC
:100B100004C0440F551F661F771F2A95D2F74095D2
:100B200050956095709503C040E050E0BA01C695BD
:100B3000C695C3708A019B01082B192B2A2B3B2BCE
:100B4000C901B801C23049F058F4C13019F00E940F
:100B5000F30781C00E94E1077EC00E9405087BC0A8
:100B60000E94540778C0CF70112339F08C2F0E9457
:100B70007A078D2F0E9414046EC08D2F0E941B04D3
:100B80008C2F0E949B0767C0D23F21F128F4D03FF1
:100B900041F0D13FC1F043C0D33F19F1D43F79F0C8
:100BA0003EC0112341F0053008F051C08C2F8F71E9
:100BB0000E94C0074CC0063008F049C0F7CF8091B2
:100BC000570382FF18C0112339F08C2F8F710E94B8
:100BD0007A073DC01123C9F38C2F8F710E949B07A8
:100BE00036C0112329F08C2F8F710E9465072FC00A
:100BF0000E9460072CC0112349F0CF718C2F0E94F6
:100C00007A0763E08C2F0E94910C21C081E00E9442
:100C1000AC0C0230E0F082E00E94AC0C18C0112352
:100C200031F0002391F28D2F0E946A0310C000233F
:100C300099F2D93349F41FEF27EE33E011502040E9
:100C40003040E1F700C000008D2F0E94C00388EF04
:100C50008C0D843020F40E94321F0E941103DD208D
:100C6000C9F00E940C0C80FD15C0F70112820E9491
:100C7000060C0E947A07C7010E946B060E94060CB0
:100C8000DF91CF911F910F91FF90EF90DF90CF9068
:100C90000C949B07DF91CF911F910F91FF90EF90E4
:100CA000DF90CF9008950F931F93CF93DF93EC01C4
:100CB000688179818A810E94BE088C010E94170890
:100CC0000E940807B801CE010E942204DF91CF9153
:100CD0001F910F910895CF93DF93EC019881898143
:100CE0002B813C81232B31F08F3F31F481E09F3FFA
:100CF00019F403C081E001C080E080FD1DC0CE0179
:100D00000E94A802811110C00E94100C8823A1F03B
:100D10008A81882389F08091570382FD0DC082E08B
:100D2000DF91CF910C94AC0CCE010E945306CE0102
:100D3000DF91CF910C948002DF91CF91089580E0F4
:100D400090E00E946D1F80E090E00E94831F0E944F
:100D5000370C0E943A0C0E945C0C0E94B81A0C944A
:100D6000871980910201909103010E9445200C9403
:100D70009F060E94270C0C94B106E92FE295EF70B4
:100D80004E2F50E0FA013297EE30F105B0F4EE59F3
:100D9000FF4F0C94272D803F91F018F4883E68F4A3
:100DA0000EC0843F51F40BC0883E48F0813F29F4C7
:100DB00006C093FB882780F9089580E0089581E0BC
:100DC0000895FC01808191810E94B3080E94BD06B4
:100DD0000895CF93DF9300D000D01F92CDB7DEB738
:100DE0000F900F900F900F900F90DF91CF9108957B
:100DF000CF93DF9300D000D000D0CDB7DEB72696DA
:100E00000FB6F894DEBF0FBECDBFDF91CF9108952E
:100E1000089508950C9409070C940A070E940C0782
:100E20006093EB017093EC018093ED019093EE01E0
:100E30000C949F060C940E070F931F930091EB01E7
:100E40001091EC012091ED013091EE01602B712B9E
:100E5000822B932B1F910F910C940E070F931F93CE
:100E60000091EB011091EC012091ED013091EE0128
:100E700060237123822393231F910F910C940E07FB
:100E80000F931F930091EB011091EC012091ED0164
:100E90003091EE0160277127822793271F910F91D0
:100EA0000C940E070C9409070E9452076093E70107
:100EB0007093E8018093E9019093EA010C949F06F6
:100EC00060E070E0CB010C9454070F931F9341E056
:100ED00050E060E070E08A019B0104C0000F111F28
:100EE000221F331F8A95D2F7C901B8011F910F91B4
:100EF0000C9454070F931F9341E050E060E070E0C2
:100F000004C0440F551F661F771F8A95D2F7809142
:100F1000E7019091E801A091E901B091EA018A010D
:100F20009B01082B192B2A2B3B2BC901B8011F91C0
:100F30000F910C9454070F931F9341E050E060E031
:100F400070E004C0440F551F661F771F8A95D2F7C3
:100F500040955095609570958091E7019091E801DA
:100F6000A091E901B091EA018A019B0108231923AC
:100F70002A233B23C901B8011F910F910C945407F8
:100F80000F931F9341E050E060E070E004C0440F15
:100F9000551F661F771F8A95D2F78091E7019091C0
:100FA000E801A091E901B091EA018A019B010827BB
:100FB00019272A273B27C901B8011F910F910C94CB
:100FC00054070F931F930091E7011091E8012091BE
:100FD000E9013091EA01602B712B822B932B1F9139
:100FE0000F910C9454070F931F930091E7011091F8
:100FF000E8012091E9013091EA0160237123822305
:1010000093231F910F910C9454070F931F930091FA
:10101000E7011091E8012091E9013091EA01602790
:101020007127822793271F910F910C9454070895DD
:10103000292F220F920F990F890FE82FE695E69539
:10104000E695877051E001C0550F8A95EAF785E073
:10105000E89FF0011124E753FE4F20E030E070E0FC
:101060004081CB01022E02C0969587950A94E2F743
:101070008170819584278523842781932F5F3F4F3B
:101080002530310569F70895292F220F920F990F06
:10109000890F682F669566956695982F977085E0FD
:1010A000689FB001112440E050E080E0FB01E40FB4
:1010B000F51FE753FE4F208130E0092E02C0369520
:1010C00027950A94E2F721703327042E01C0220FDE
:1010D0000A94EAF7822B4F5F5F4F4530510531F795
:1010E0000895BF92CF92DF92EF92FF920F931F93DA
:1010F000CF93DF938C01C090E701D090E801E0909E
:10110000E901F090EA018091EB019091EC01A0914E
:10111000ED01B091EE01C82AD92AEA2AFB2ACFE1D3
:10112000D0E0D701C6010C2E04C0B695A7959795BF
:1011300087950A94D2F780FD04C0219790F7B12CCF
:1011400007C0BC2EB8018C2F0E94A80F0197A9F3ED
:101150008B2DDF91CF911F910F91FF90EF90DF903A
:10116000CF90BF900895CF93DF93EC010E94710858
:10117000BE010E94A80FDF91CF9108951F93CF93D6
:10118000DF93EB019091C801992321F0CB010E94DC
:10119000B30813C0882349F0CB010E947108182FAF
:1011A000682FCE010E94180804C0CB010E94440899
:1011B000182FBE01812F0E94A80FDF91CF911F91A0
:1011C00008951F93CF93DF93C091EF0116E08091B4
:1011D000F001C81799F0D0E01C9FF0011D9FF00DA1
:1011E0001124EF50FE4F40815181628173818481CF
:1011F00095810E94F8062196C770E9CFDF91CF91C3
:101200001F91089540912102509122026091230282
:101210007091240280912502909126020C94F80688
:10122000EF92FF920F931F93CF93DF93809126024B
:1012300082958F7009F065C080912302882309F49C
:1012400060C08091EF01F090F001109121020091B7
:101250002202609124027091250291E01F3F09F063
:1012600090E0C0910001D0910101292F96E0E92E74
:101270008F1509F446C06115710521F00F3F21F06B
:1012800030E003C031E001C0322F90E030FD36C0C5
:10129000E89EF001E99EF00D1124DF01AF50BE4F32
:1012A00011963C911197301329C03C91311326C0FF
:1012B00012963C911297311121C013964D915C9179
:1012C0001497461B570B4C175D07C0F480912602FC
:1012D0008F70806180932602EA50FE4F80818F706C
:1012E0008061808381E292E00E946B06DF91CF9162
:1012F0001F910F91FF90EF900C94E1080196877079
:10130000B7CFDF91CF911F910F91FF90EF9008958C
:101310009F92AF92BF92CF92DF92EF92FF920F9384
:101320001F93CF93DF93CDB7DEB761970FB6F894D5
:10133000DEBF0FBECDBF8C0185E0F801DE011D963A
:1013400001900D928A95E1F7D8011296EC90909158
:101350002102E091220220912402309125022115E0
:10136000310531F0EF3F31F481E09F3F19F403C0C4
:1013700081E001C080E0B82FB1709B2E80FD47C195
:10138000D8014C9111965C9111971396AD90BC9039
:10139000149781E2C82E82E0D82EF0902302B50186
:1013A000621B730B2091000130910101FF2009F4B1
:1013B000D9C0809126026217730708F095C0282FC4
:1013C000207F09F052C05E1313C0491311C0FE2CD8
:1013D000E1100EC08F708061809326020E94020986
:1013E000C6010E946B0680912602F80185834DC1DB
:1013F000AB2831F05F3F31F481E04F3F19F403C077
:1014000081E001C080E080FD03C081E08E2502C044
:1014100080E090E0F82FF170FF2E80FF1CC08091DB
:10142000EF012091F00136E0821709F40BC190E042
:10143000389FF001399FF00D1124EF50FE4F61816C
:10144000561306C06081461303C06281E61203C0D2
:1014500001968770E9CFFE2CEE2009F416C1809129
:10146000260281608093260254C05E1306C0491391
:1014700004C0E11002C0F80199C0C8010E94E10651
:10148000882361F1EE2051F120912602822F82956E
:101490008F7090E0029774F0809121029091220267
:1014A00098878F831986BB86AA862C87CE010796DC
:1014B0000E946B0686E0F801A1E2B2E001900D9275
:1014C0008A95E1F70E9410090E9402090AC05E177E
:1014D00011F1C8010E94E10681112CC0C8010E94CF
:1014E0006B06FF24F394D1C0282F207F81F77A2D3B
:1014F000B98AA88A6E2D89890E94E90681E292E064
:101500000E946B0686E0D6011D928A95E9F70E943B
:101510000209F12CBAC04913DCCFE110DACFF8018F
:101520008583C8010E946B0686E0D6011D928A95CC
:10153000E9F7ABC0EE2091F220912602822F82952E
:101540008F7090E002970CF4B5CF809121029091BA
:1015500022029A8389831B82BD82AC822E83CE01B4
:101560000196A6CF6217730708F044C0FE2CEE2048
:1015700009F4B4CF5E1330C049132EC02091260267
:1015800020FD21C0822F82958F70482F50E0411599
:101590005105C9F0F80125834F30510541F08F5FA7
:1015A000982F9295907F822F8F70892B8583C80109
:1015B0000E946B0686E0F801A1E2B2E001900D9274
:1015C0008A95E1F73CC086E0F801A1E2B2E0019023
:1015D0000D928A95E1F759C0C8010E94E106811178
:1015E00069CF80912602816080932602C8010E9403
:1015F0006B064BC07A2DB98AA88A6E2D89890E9404
:10160000E90686E0D6011D928A95E9F718C0EE201A
:1016100009F464CFC8010E94E106F82E882309F47A
:101620005DCF86E0F801A1E2B2E001900D928A95CB
:10163000E1F781E292E00E9464030E9410090E9497
:10164000020923C04D875E878D859E850E94B30861
:10165000292F22952F70223028F49F7039F08111A4
:1016600005C00BC0243028F49F7049F4805E883098
:1016700020F0C8010E946B069F2CF92C06C0D801EF
:1016800015969C91907F91F7F8CF8F2D61960FB6AC
:10169000F894DEBF0FBECDBFDF91CF911F910F91A8
:1016A000FF90EF90DF90CF90BF90AF909F90089504
:1016B0001F93CF93DF93CDB7DEB72C970FB6F89477
:1016C000DEBF0FBECDBF4F83588769877A878B8770
:1016D0009C87CE0107960E9488098823D1F09F81BC
:1016E00088852A853B85232B31F08F3F31F481E0BB
:1016F0009F3F19F403C081E001C080E080FD47C036
:101700004F81588569857A858B859C850E94F8066E
:101710003EC086E0FE013796DE01119601900D92E3
:101720008A95E1F7FF81E8856A857B8561157105FA
:1017300031F0EF3F31F481E0FF3F19F403C081E065
:1017400001C080E080FD23C02091F00130E0C9019C
:101750000196877099274091EF0150E08417950713
:10176000F1F1F983EA837D836C8396E0929FD00147
:10177000939FB00D1124AF50BE4FFE0131960190E2
:101780000D929A95E1F78093F0010E94E10816E02E
:101790008091EF019091F001891771F1189FC001BC
:1017A00011248F509E4F0E948809882329F1E091CF
:1017B000EF011E9FF0011124EF50FE4F4081518137
:1017C00062817381848195810E94F8068091EF0186
:1017D00090E00196877099278093EF01D9CF0E94FE
:1017E000B9061092F0011092EF01E1E2F2E086E01A
:1017F000DF011D928A95E9F72C960FB6F894DEBFAB
:101800000FBECDBFDF91CF911F9108958091270228
:10181000859585958595089580912702877008950F
:1018200090912702977081E009F480E008958091FB
:101830004B02089590914B02892B80934B0208959F
:10184000809590914B02892380934B0208951092CA
:101850004B02089590914A02892B80934A02089581
:10186000809590914A02892380934A0208951092AC
:101870004A0208951092490208958091280208951D
:1018800008950C94400C0C94410C9091570392FDD8
:1018900008C090912802981721F0809328020C9498
:1018A000430C089580912802882329F01092280281
:1018B00080E00C94430C0895E0910201F091030143
:1018C00080914B028083E0910201F09103019081AD
:1018D00080914A02892B8083E0910201F0910301FB
:1018E000908180914902892B8083809128028823EE
:1018F00081F0E0910201F09103019081892B8083B6
:1019000080910201909103010E94991F81110E9410
:10191000520C80910201909103010C94451F0C948C
:10192000400C9091570392FD10C098E0899F900160
:101930001124262B209327020E947A0780912702E8
:101940008595859585950C948F0C0C947A0710924B
:10195000270280E00C948F0C20912702809582232F
:1019600080932702982F977099F430E0482F082E23
:10197000000C550B2417350759F09091570392FD31
:1019800007C08595859585950E949B070C94A70CAB
:1019900008959091570392FB222720F9281769F0A8
:1019A00080FB92F9909357038091560390915703CF
:1019B0000E94170D82E00C94AC0C0895809157039F
:1019C00082FB882780F991E089270C94C90C81E07B
:1019D0000C94C90C80E00C94C90C6FEF7FEF80E091
:1019E00090E00C946F2D80E090E00E944B2D21E060
:1019F000893E9E4F09F020E0822F089582E090E01A
:101A00000C94432D83E090E00C94432DCF9384E01D
:101A100090E00E94432DC82F82E290E00E94432D67
:101A20002C2F30E0A901582BCA01CF910895CF93F4
:101A3000C92F682F84E090E00E94512D6C2F82E224
:101A400090E0CF910C94512DAB01BC018FE090E060
:101A50000C94632DAB01BC0183E190E00C94632DE9
:101A600060E070E0CB010C942A0D60E070E0CB01E7
:101A70000E94240D0C94300D69EE7EEF80E090E022
:101A80000E946F2D60E082E090E00E94512D60E0A6
:101A900083E090E00E94512D1092EB011092EC0136
:101AA0001092ED011092EE0160E084E090E00E945F
:101AB000512D60E082E290E00E94512D60E085E0CF
:101AC00090E00E94512D60E086E090E00E94512D50
:101AD0006FEF87E090E00E94512D40E050E0BA01A6
:101AE00088E090E00E94632D60E08DE090E00E942D
:101AF000512D40E050E0BA0188E190E00E94632D52
:101B000060E087E190E00E94512D40E050E0BA0192
:101B10008CE190E00E94632D60E070E080E290E054
:101B20000E946F2D40E050E0BA0188E190E00E94F1
:101B3000632D0C94350D0C943C0D682F8EE090E0D5
:101B40000C94512D0E94F6206093590270935A0212
:101B500080935B0290935C026093550270935602EF
:101B60008093570290935802089585B7806885BF87
:101B700085B7806885BF08950C94D41208950C949D
:101B8000BE0D0C94BE0D0C94C10D0C94BE0D0C94A6
:101B9000C50D0C94BE0D0E94B50D85EC90E10E9420
:101BA000281F0E94C90D0C94C70D0E94BF0D0C94F4
:101BB000BE0D0E94E1200E9484100E94BF110E946D
:101BC000C61A0C94C30D9F92AF92BF92CF92DF9230
:101BD000EF92FF920F931F93CF93DF93CDB7DEB7B2
:101BE0002A970FB6F894DEBF0FBECDBF0E944912F0
:101BF00081110E94A20D8DE4A82E82E0B82E00E093
:101C000010E0902E802F0E940911D82EF501C1906E
:101C10005F01C826B1F40F5F1F4F0830110589F727
:101C20008FEF89838A831B820E94EA208160782F4C
:101C30009D838C8349815A816B818D810E941A0317
:101C40002FC080915D0281FD0E940F11E12CFF24C5
:101C5000F3948C2D8F21F1F00E94BC0D882399F014
:101C6000EE829F82DF2081E009F480E088870E9475
:101C7000EA208160782F9A8789874E815F81688505
:101C80008A850E941A03F801E35BFD4F8081F826E4
:101C9000F08206C0E394FF0CF6E0EF12DACFBBCF80
:101CA0000E94A5190E94E8170E94321F90914C02D1
:101CB0008917B9F00E94321F80934C022A960FB602
:101CC000F894DEBF0FBECDBFDF91CF911F910F9172
:101CD000FF90EF90DF90CF90BF90AF909F900C94CB
:101CE00011032A960FB6F894DEBF0FBECDBFDF9169
:101CF000CF911F910F91FF90EF90DF90CF90BF9009
:101D0000AF909F900895CF93DF930E94AD0FEC01A9
:101D1000811521E5920708F045C0811530E593074C
:101D200008F094C0883E910528F5803E910508F0A2
:101D3000F8C0883A910570F4853A910508F07CC0A6
:101D40008130910509F475C008F4E8C0049708F0E3
:101D5000E8C0E4C08F3B910508F0E0C0C85AD0E06D
:101D6000CC0FDD1FCB58DE4F0990D881C02DCE019E
:101D70009464D8C0811540E2940758F4811551E06D
:101D8000950708F0CEC08D3E910508F4C7C0906558
:101D9000C9C0C11580E4D80708F4C0C0DF70CE0107
:101DA000906AC0C0811525E59207A8F4811534E535
:101DB000930708F095C0811543E5940708F07BC0B0
:101DC000811552E5950708F061C0D82FCC27CE01C8
:101DD000816F906AA7C0C11589E5D807A0F4C11525
:101DE00028E5D20708F082C0C11536E5D30708F010
:101DF00095C08C2F0E9441108F7190E0D82FCC2776
:101E0000CE0190628FC0C1154AE5D40708F474C0B2
:101E1000CE0190568115904208F080C08D2F8F71B1
:101E20000E944110DD27D0628F71AE01582BCA018C
:101E300079C081E090E076C0C55AD0E0CD55DE4F44
:101E40008881C82FD0E0CE0190646CC074E0969574
:101E500087957A95E1F7282F23703C2F337081E026
:101E600090E002C0880F991F3A95E2F79C68AC0198
:101E7000522B9A019C2F9F709695969550E2959FB4
:101E8000E0011124C9018C2B9D2B4CC08370992734
:101E900021E030E002C0220F331F8A95E2F79C2F29
:101EA0009695969580E2989FE0011124C22BD32B42
:101EB000CE019C6837C08370992721E030E002C0D2
:101EC000220F331F8A95E2F79C2F9695969540E254
:101ED000949FE0011124C22BD32BCE019A6822C01B
:101EE000D82FCC27CE01846F906A1CC0DC2FCC2762
:101EF000CE01806F906A16C08C2F8F700E944110A7
:101F000094E0D695C7959A95E1F7CF70D0E0DC2F95
:101F1000CC27D0699E01282BC90104C080E090E045
:101F200001C0CE01DF91CF91089520E3829FC001CF
:101F30001124FC0126E0729FE00DF11D1124E60F33
:101F4000F11DEE0FFF1FEC50FF4F85919491089506
:101F50000E94950F0E94830E08958238910569F1C1
:101F6000B0F48133910509F46DC048F489329105CC
:101F700009F463C08A32910509F469C00895853374
:101F8000910509F455C089339105B9F00895833E50
:101F9000910569F138F4803E9105B1F0823E9105DA
:101FA00009F10895863E9105A9F1873E9105B9F1A1
:101FB000843E910509F064C023C02091560320FDA2
:101FC0004FC021FD4DC008958091560380FD44C04F
:101FD0008091570380FF44C08091560384FD42C026
:101FE00083EE4DC08091560382FF38C0F5CF8091BB
:101FF000560382FD33C08091570380FD31C0ECCF82
:102000008091570381FF32C08091560384FD2AC01E
:1020100087EE35C08091560383FF26C0F5CF8091AF
:10202000560383FD21C08091570381FD1FC0ECCF73
:102030008091560385FD1CC01DC08091560385FD0F
:1020400019C016C08091560386FD16C017C0809136
:10205000560386FD13C010C089E311C082EE0FC085
:1020600080EE0DC080E00BC086EE09C084EE07C094
:1020700089E205C085E303C08AE201C081E390E004
:1020800008959091560392FF0DC0282F2871283093
:1020900019F4877F846006C0282F2471243011F43E
:1020A0008B7F886093FF0DC0282F2871283119F489
:1020B000877E846106C0282F2471243111F48B7E21
:1020C00088612091570320FF0DC0382F38713830B8
:1020D00019F4877F816006C0382F3171313011F4D7
:1020E0008E7F886021FF0DC0282F2871283119F4B8
:1020F000877E816106C0282F2171213111F48E7EE7
:10210000886194FD877E08951092520310925303C4
:1021100010925403109255030895CF92DF92EF92DC
:10212000FF926B017C010E94D41281110EC00E94AB
:10213000F620C61AD70AE80AF90AC0925203D092CA
:102140005303E0925403F0925503FF90EF90DF9019
:10215000CF9008950F931F930E94D412882321F0EB
:102160001F910F910C94F6200E94F62000915203CB
:10217000109153032091540330915503600F711F48
:10218000821F931F1F910F91089580E008950C9472
:10219000ED0C0E9449128FE39CE90197F1F700C012
:1021A00000000E9449120E94EC12811102C084E0DA
:1021B00001C080E00E94091181FF04C00E94C71085
:1021C0000C94532108950C94C9100E94F30C8111B2
:1021D00002C00E949B0D0E94FE0C80935D020E9433
:1021E000060D90935703809356030E94E3100E94BC
:1021F000020D682F70E080E090E00E941A07609165
:10220000E7017091E8018091E9019091EA010C9455
:102210005207E82FF0E0E05AFC4F808108950895BE
:1022200080EA8A95F1F7089500C008950C94101182
:1022300008950C9418110C9419110C9418110C9405
:102240001D11F894E82FE295EF70F0E031A1282FEE
:102250002F7081E090E001C0880F2A95EAF7982F4F
:102260009095932391A392A1892B82A378940895AA
:1022700008950C9438110F931F93CF93DF93CCEAFA
:10228000D1E089918F3F11F00E94211181E0C03B84
:10229000D807B9F7C6EAD1E00CEA11E089918F3F7F
:1022A00011F00E9421110C171D07C1F7DF91CF918A
:1022B0001F910F910895CF92DF92EF92FF920F93AB
:1022C0001F93CF93DF938C01C62FD0E0CE018455AE
:1022D0009E4F7C01FC0190819F3F09F447C0D62EA0
:1022E000F894E92FE295EF70F0E081A19F7021E072
:1022F00030E001C0220F9A95EAF7822B81A382A1D8
:102300002095282322A378940E941411E6EAF1E094
:102310004CEA51E031E0C12C21912F3F89F0A22FEE
:10232000A295AF70B0E090968C9190E02F7002C0B3
:10233000959587952A95E2F780FD02C0832F01C00D
:1023400080E0C82A330F4E175F0731F7F70180810D
:102350008F3F11F00E94211161E0C11001C060E0C7
:102360008D2D0E941611C00FD11FC882DF91CF9111
:102370001F910F91FF90EF90DF90CF9008950E94F2
:10238000F1128091040180910401811102C094E056
:1023900001C090E09093690384E0891B80936803F7
:1023A0000E943B1188E0E0E6F3E0DF01982F1D92E8
:1023B0009A95E9F7E8E5F3E0DF011D928A95E9F7E0
:1023C00084E00E949D120E948B020C94FB120F93DA
:1023D0001F93CF93DF9300D000D0CDB7DEB70E941C
:1023E000D412609169038823E9F119821A821B8251
:1023F0001C82862F90E08E010F5F1F4FB801805A1C
:102400009C4F0E940913882389F08091680390E013
:1024100044E050E0B801805A9C4F0E942D2D21E0ED
:1024200020935E02892B69F410E019C080915E024E
:102430008823D1F384E0F80111928A95E9F710928C
:102440005E02E0916803F0E0E05AFC4F89819A81D6
:10245000AB81BC8180839183A283B38311E00E940E
:1024600091020DC070E0605A7C4F8091680390E04B
:10247000805A9C4F0E9499130E94391110E0812FBD
:102480000F900F900F900F90DF91CF911F910F91B0
:102490000895EF92FF920F931F93CF93DF93CDB7E1
:1024A000DEB728970FB6F894DEBF0FBECDBF8E0102
:1024B0000F5F1F4F88E0F80111928A95E9F7F12C20
:1024C0006F2DC8010E945B11F394F4E0FF12F8CF66
:1024D00048E050E0B80188E593E00E942D2D7C0192
:1024E00021E0892B09F420E0E114F10441F088E0B7
:1024F000F801A8E5B3E001900D928A95E1F76091AB
:10250000690370E0605A7C4F44E088E593E00E94E4
:102510009E12EF2819F40E94E71102C081E090E0BA
:1025200028960FB6F894DEBF0FBECDBFDF91CF91D6
:102530001F910F91FF90EF9008950895FF920F93D0
:102540001F93CF93DF938C01F62ED72FC42F222316
:1025500049F081E0809361020E94EA20909360023A
:1025600080935F02809161028823C1F080915F02B5
:10257000909160020E940221059780F0EF2DFD2FBF
:10258000D8014C2F50E0CD01801B910B841795078B
:102590001CF48D918193F7CF10926102DF91CF915E
:1025A0001F910F91FF9008958091640281110DC0D9
:1025B0000E94F22C811102C082E001C081E0809370
:1025C0006402823011F40E94ED2C81E0909164024B
:1025D000913009F080E008950E94D41291E089279B
:1025E00008950E94EC12809304010E94D41281117C
:1025F0000C94411308950E94D412811102C00C94CE
:102600004313089581E0909165029A3008F080E0CC
:1026100008950F931F93CF93DF93EC018B0180916B
:1026200065028A3038F4B801CE010E9497138111F7
:102630001DC00AC080916202909163020E94022133
:10264000843F914080F715C0809165028F3F19F05B
:102650008F5F80936502809165028A3060F00E94EE
:10266000EA20909363028093620203C01092650295
:1026700002C080E001C081E0DF91CF911F910F91F6
:1026800008950C94631D0C94661DEF92FF920F93B6
:102690001F93CF93DF937901C82F880FDD0B41156E
:1026A0005105A9F08AE08C9FF0018D9FF00D112457
:1026B000EB5FFE4F838194818A599D4F228130E0E8
:1026C0004217530708F49A01A9010E943A2DCE013E
:1026D0000E94701E892B09F50115110501F18AE090
:1026E0008C9FF0018D9FF00D1124EB5FFE4F458113
:1026F00050E00417150708F4A8018AE08C9FF00148
:102700008D9FF00D1124EB5FFE4F668177816A5932
:102710007D4FC7010E943A2D02C080E001C081E0D8
:10272000DF91CF911F910F91FF90EF9008950C943E
:10273000BA140C94D6140F931F93CF93DF9300D049
:1027400000D0CDB7DEB760917B0270917C028091A2
:102750007D0290917E020E941121643671058105EF
:10276000910528F10E94AA10DC01CB010296A11D5F
:10277000B11D89839A83AB83BC8300E010E020E025
:1027800030E044E050E0BE016F5F7F4F82E00E9486
:102790004513182F882361F00E94F62060937B0276
:1027A00070937C0280937D0290937E0201C011E0C1
:1027B000812F0F900F900F900F90DF91CF911F916D
:1027C0000F910895AF92BF92CF92DF92EF92FF9256
:1027D0000F931F93CF93DF937C015B016A010E94EB
:1027E0000213811103C001E010E002C00AE010E012
:1027F000C1E0D0E0F894B501C701F60109957894DD
:10280000811115C021960C171D0794F0CC9F9001E3
:10281000CD9F300D300D112480E090E045E34A95C6
:10282000F1F70000019682179307C1F7E3CF81E02B
:10283000DF91CF911F910F91FF90EF90DF90CF909C
:10284000BF90AF900895AF92BF92CF92DF92EF9278
:10285000FF920F931F93CF93DF9300D000D01F926E
:10286000CDB7DEB75B01E090B401F090B50101E0B7
:1028700010E09E012B5F3F4F40E050E060E070E0D1
:1028800080E00E944513182F882309F43EC0670199
:102890008FEFC81AD80A6091770270917802809100
:1028A000790290917A020E941121643671058105A6
:1028B000910518F104E010E09E012F5F3F4F40E0CA
:1028C00050E060E070E081E00E944513182F64E062
:1028D00070E0C6010E94C71A91E02D81281390E094
:1028E000192351F10E94F6206093770270937802C9
:1028F0008093790290937A0211C064E070E0C6017F
:102900000E94C71A9D818913D5CFF70181819281D9
:10291000A381B48189839A83AB83BC83112361F043
:1029200089819A81AB81BC818093730290937402F8
:10293000A0937502B0937602809173029091740215
:10294000A0917502B0917602F50180839183A283F4
:10295000B383812F0F900F900F900F900F90DF9106
:10296000CF911F910F91FF90EF90DF90CF90BF908C
:10297000AF9008950F931F93CF93DF93EC018B01DA
:1029800043E254E10E94E213882351F04BE953E102
:10299000B801CE01DF91CF911F910F910C94E213FA
:1029A00080E0DF91CF911F910F9108950F931F93B6
:1029B000CF93DF93F894C091B401D091B501CE01CB
:1029C000019624E0FB01DC0101900D922A95E1F7CC
:1029D00064E070E00E94C71A88837894F8946D814F
:1029E0007E818F81988500916F02109170022091F5
:1029F000710230917202601771078207930751F0DC
:102A000060936F02709370028093710290937202D0
:102A10000E948D107894DF91CF911F910F910895AE
:102A20000E9465270E94D90D0C9471270E9475277A
:102A30000E94E30D0C948F270E9471200E944A2768
:102A40000E94CB0D0E9410150E9416150E94D50DF4
:102A5000FBCF84E080936B038FE780936C038091BE
:102A60006D038078806480936D03E3E8F2E08FEF7C
:102A70008193DF01A95BBF4F1C9292E0EB3CF90709
:102A8000B9F7109282021092810210928002109285
:102A90007F02089590916B03292F2F70959595953E
:102AA000959595959F523CE0239F900D1124890F99
:102AB0000895FF920F931F93CF93DF93FB018F3AFB
:102AC0002CE5920708F044C08F394CE5940708F0D4
:102AD0007AC180392CE59207F0F483384CE59407ED
:102AE00008F0E2C081382CE5920758F487374CE5AE
:102AF000940708F0ACC08F322CE5920708F067C04D
:102B00005FC281384CE5940709F4ABC082389C451C
:102B100009F4BAC055C28D394CE5940778F482396E
:102B20002CE5920708F006C180394CE5940709F4BA
:102B3000C5C081399C4509F4D6C042C28D394CE5E7
:102B4000940709F405C18E399C4509F41EC138C2A9
:102B5000853B4CE5940709F4A6C1E8F4813B4CE5BC
:102B6000940709F46EC150F48F3A4CE5940709F4C8
:102B70003BC1803B9C4509F449C122C260916C0372
:102B800030916D032281833B4CE5940709F475C1B4
:102B900008F469C17CC1883B2CE5920709F4A3C104
:102BA00050F4863B2CE5920709F47DC1873B9C4598
:102BB00009F490C105C28A3B2CE5920709F4CBC108
:102BC00008F4B0C18B3B9C4509F4E4C1F9C1D09134
:102BD0006C03FD2EFF1CFF24FF1C20916D0327704A
:102BE000220FF22ADF77C28101ED080F10E0CC231B
:102BF000C9F00E944A15C82F2D2F482F6F2D83E74B
:102C000093E00E94A421F801ED57FD4FDF01A85B7E
:102C1000BF4F8C918F5F8C9380818F3F09F0CEC125
:102C2000C083CCC10D571D4FF8014081E85BFF4FB9
:102C30008081815080838111C1C12D2F6F2D83E749
:102C400093E00E94B4218FEFF8018083BAC1228102
:102C5000222309F4B3C187578F7090916B03907F43
:102C60000FC08281882309F4A9C120916B03822FB0
:102C70008F7009F4A3C1815F982F9F70822F807F8E
:102C8000892B80936B039AC18281882309F496C1B2
:102C900020916B03822F8F70482F50E049305105EF
:102CA0000CF08CC18F5FE8CF2281222309F486C10A
:102CB00089588295807F90916B033AC082818823E6
:102CC00009F47CC120916B03822F859585958595AC
:102CD00085958B3F0CF472C1815F982F9295907F00
:102CE000822F8F70CDCF8281882309F467C1209114
:102CF0006B03822F859585958595859586300CF09B
:102D00005DC191E0980F9295907F959595959595D9
:102D10009595392F3295307F2F70232B20936B039D
:102D200018160CF04BC197FF49C18295807F922FF6
:102D30009F70A6CF2281222309F440C182599CE0D2
:102D4000899F802D1124982F9F7780916C0332C02A
:102D50008281882309F432C190916C03892F8F7787
:102D6000282F30E02115310509F428C190788F37DC
:102D700019F4892F856720C02D3031051CF08D5046
:102D80008F7719C090936C0319C18281882309F44D
:102D900015C120916C03822F8F77482F50E04F3759
:102DA000510509F40BC1433751054CF4835F982F4B
:102DB0009F77822F8078892B80936C03FFC02F67C9
:102DC00020936C03FBC02281222309F4F7C08F59A2
:102DD00090916C0380FB97F990936C0386958770B4
:102DE00090916D03987FB3C08281882309F4E6C077
:102DF00030916C03932F991F9927991F20916D0390
:102E0000822F8770880F892B815F11C08281882370
:102E100009F4D4C030916C03932F991F9927991FFF
:102E200020916D03822F8770880F892B8F5F982FD9
:102E30009F7080FB37F930936C039695822F887FC3
:102E400086C08281882309F4B9C060916C03862F03
:102E5000881F8827881F60916D036770660F682B35
:102E600020E04BE732C021112FE7661F6627661F5F
:102E70003770330F632B40E428C021112FE7661F02
:102E80006627661F3770330F632B41E41EC0211184
:102E90002FE7862F881F8827881F632F6770660F8C
:102EA000682B42E412C08281811102C020E001C07F
:102EB0002FE760916C03862F881F8827881F6091F9
:102EC0006D036770660F682B43E483E793E00E940D
:102ED000942174C08281811102C08FEF01C081E012
:102EE000809381026BC08281882309F467C080913E
:102EF0006D03282F2695269526952F7091E0920F29
:102F00009F70990F990F990F8778892B80936D0384
:102F1000982F987709F052C0220F220F220F87783E
:102F2000822B16C08281882309F448C020916D034A
:102F3000822F8695869586958F7009F43FC0815FB4
:102F40008F70982F990F990F990F822F8778892B5F
:102F500080936D0333C08281882371F060916C038C
:102F6000862F881F8827881F60916D036770660F02
:102F7000682B40E050EE1EC060916C03862F881FC6
:102F80008827881F60916D036770660F682B40E08B
:102F900050E010C08281882379F360916C03862F02
:102FA000881F8827881F60916D036770660F682BE4
:102FB0004FEF5FE183E793E00E94C421C0E001C0CE
:102FC000C1E08C2FDF91CF911F910F91FF90089559
:102FD00083E793E00E94DF2380917F02909180023B
:102FE0000E94022120916D032695269526952F702B
:102FF00030E082179307B0F10E94EA20909380029C
:1030000080937F0280918102882361F160916C033B
:10301000862F881F8827881F60916D036770660F51
:10302000682B2091820241E083E793E00E94942183
:10303000909181028091820297FF0FC0282F30E08B
:10304000692F772761950CF47095261737072CF4B4
:1030500010928202109281020895890F87FD8FE7F6
:103060008093820208958091190380FF0BC06091C4
:10307000280185E0689FB0011124759567957595C5
:1030800067952BC081FF09C06091280185E0689F8A
:10309000B00111247595679520C082FF07C060912B
:1030A000280185E0689FB001112417C09091180392
:1030B0009923D1F060912701961788F72091280174
:1030C00085E0289F90011124929FA001939F500DAD
:1030D000112470E0CA010E94132D6038710540F47C
:1030E0006115710519F406C065E070E0862F08953A
:1030F0008FE7089581E008958091190380FF08C04B
:103100006091240170E0759567957595679521C06C
:1031100081FF06C06091240170E07595679519C024
:1031200082FF04C06091240170E010C090911703E9
:10313000992399F0609123019617A0F780912401BB
:10314000899FC001112470E00E94132D6038710521
:1031500040F46115710519F406C061E070E0862F36
:1031600008958FE7089581E008958D3E21F40E942F
:103170003318819504C08E3E29F40E943318809341
:103180001D0308958F3E21F40E943318819504C0D9
:10319000803F29F40E94331880931C030895893FCF
:1031A00019F40E947C1805C08A3F31F40E947C18F3
:1031B000819580931E0308958B3F21F40E947C1813
:1031C000819504C08C3F29F40E947C1880931F03D2
:1031D00008959FE0980F983078F421E030E0A9013D
:1031E00002C0440F551F9A95E2F7CA0190911B0344
:1031F000892B80931B0308958D3F21F4809119033F
:1032000081600BC08E3F21F480911903826005C05C
:103210008F3F29F4809119038460809319030895E6
:103220008D3E39F490911D0397FF35C010921D0318
:1032300059C08E3E29F490911D031916BCF32BC082
:1032400090911C038F3E29F497FF25C010921C0318
:1032500049C0803F19F41916CCF31DC090911E038C
:10326000893F29F41916BCF410921E033BC08A3F13
:1032700019F497FF10C0F8CF8B3F39F490911F03DA
:1032800097FF09C010921F032DC08C3F21F490912D
:103290001F031916BCF39FE0980F983080F421E0CB
:1032A00030E0A90102C0440F551F9A95E2F7CA0108
:1032B000809590911B03892380931B0313C08D3F3E
:1032C00021F4809119038E7F0BC08E3F21F48091F1
:1032D00019038D7F05C08F3F29F4809119038B7FDF
:1032E0008093190380911C03811106C080911D03F6
:1032F000811102C01092180380911E03811106C033
:1033000080911F03811102C01092170308950E943B
:10331000EA2020911C03211104C020911D032223C7
:1033200021F0909316038093150320911E03211121
:1033300004C020911F03222321F090931403809353
:1033400013038AE193E00C945F1FEF92FF920F93B7
:103350001F93CF93DF9300D000D000D0CDB7DEB75E
:1033600086E0EAE1F3E0DE01119601900D928A9584
:10337000E1F7E0901C03F0901D0300911E031091F3
:103380001F0310921C0310921D0310921E03109233
:103390001F03E11003C0FF2009F45DC080911503F5
:1033A000909116030E940221AC0190911803992379
:1033B00039F02091290130E02417350758F04BC02F
:1033C00020912A018AE0289F9001112424173507B3
:1033D00018F041C09F3F19F09F5F90931803EE20B3
:1033E00061F00E9433181E1414F09FEF01C091E0A9
:1033F000989F902D112490931C03FF2061F00E9450
:1034000033181F1414F09FEF01C091E0989F902D86
:10341000112490931D0330911C033323E1F020917C
:103420001D032223C1F045EB3403C001112499236D
:1034300019F090931C0303C081E080931C0335EBCB
:103440002303C0011124992319F090931D0303C095
:1034500081E080931D03011103C0112309F45DC0B5
:1034600080911303909114030E940221AC0190916A
:103470001703992339F02091250130E024173507EF
:1034800058F04BC0209126018AE0289F900111241A
:103490002417350718F041C09F3F19F09F5F9093A4
:1034A0001703002361F00E947C18101614F09FEFA0
:1034B00001C091E0989F902D112490931E03112339
:1034C00061F00E947C18111614F09FEF01C091E08A
:1034D000989F902D112490931F0330911E03332346
:1034E000E1F020911F032223C1F045EB3403C0011A
:1034F0001124992319F090931E0303C081E0809357
:103500001E0335EB2303C0011124992319F0909376
:103510001F0303C081E080931F0380911C0381116E
:103520000BC080911D03811107C080911E03811182
:1035300003C080911F0381110E948719EB82FC82D6
:103540000D831E8386E0FE013196AAE1B3E001906F
:103550000D928A95E1F726960FB6F894DEBF0FBE5E
:10356000CDBFDF91CF911F910F91FF90EF90089504
:10357000EAE1F3E086E0DF011D928A95E9F7109217
:103580001803109217031092190308950895FC016F
:10359000680F791F8FEF91E3E617F70771F021911C
:1035A000822728E030E087FF03C0880F892701C009
:1035B000880F21503109B9F7EFCF0895CF93DF93EA
:1035C000EC01FB018281882309F426C1C430FDE5AA
:1035D000DF0760F4CB3F9CE5D90768F49E012250D9
:1035E0003C452431310508F018C105C0C236EDE56F
:1035F000DE0709F012C10E94060D909357038093D5
:103600005603C031FCE5DF0709F4CAC008F041C029
:10361000C8309CE5D90709F4A4C0F0F4C430FCE537
:10362000DF0709F48CC068F4C2309CE5D90709F4BF
:1036300082C0C330DC4509F0E5C08091560382604A
:10364000DFC0C630FCE5DF0709F483C008F085C0A1
:10365000809156038860D4C0CC309CE5D90709F42A
:1036600090C068F4CA30FCE5DF0709F47EC008F0BA
:1036700084C00E94B906809156038068C1C0CE30D4
:103680009CE5D90709F481C008F086C080915603F3
:1036900094C0CD3FFCE5DF0709F47BC038F5C431A9
:1036A0009CE5D90709F49AC058F4C231FCE5DF075C
:1036B00009F47AC008F07EC0809156038F7BA0C0C9
:1036C000CB3F9CE5D907F1F108F03FC0C531DC459F
:1036D00009F098C08091560382FB222720F991E0DF
:1036E000922790FB82F990FB83F98AC0C1308DE567
:1036F000D80709F467C050F480915703CF3FECE539
:10370000DE07C1F108F05BC08D7F65C0C3308DE579
:10371000D80709F471C008F46DC0C236DD4509F060
:1037200071C08091560384FB222720F991E09227F3
:1037300090FB84F965C080915603816061C08091DF
:10374000560316C08091570316C0809157038260BC
:1037500042C080915603806153C0809156038062BD
:103760004FC08091560380644BC08091560388609F
:10377000846046C0826081602EC0809156038E7F37
:103780003FC0809156038D7F3BC080915603877F59
:1037900037C08091570314C0809156038F7E30C08C
:1037A000809156038F7D2CC00E94B90680915603EC
:1037B0008F7726C080915603877F8B7F21C08D7FB6
:1037C0008E7F09C080915703982F909591708E7FBE
:1037D000892B90FB81F98093570314C00E94B9068E
:1037E0008091560387FB222720F991E0922790FBD6
:1037F00087F906C081E001C080E00E949D0D02C0F3
:103800008093560380915603909157030E94170DA1
:103810000E94B90680E001C081E0DF91CF91089558
:10382000CF93DF9386319C4541F5EB010E94170C45
:10383000982F8A812091020130910301882379F029
:103840009A7A81E009F480E080932003911102C00C
:1038500069E201C065E3C9010E942F200AC080917E
:103860002003811102C069E201C065E3C9010E9421
:103870003A200E945C0C80E001C081E0DF91CF9192
:1038800008950F931F93CF93DF93C42FD22FFC0182
:1038900082818823C9F0409323030E94EA209093F9
:1038A00022038093210380E28C0F883008F057C0F8
:1038B000C77081E001C0880FCA95EAF7DF91CF9108
:1038C0001F910F910C94140480912303481330C06E
:1038D00080912103909122030E940221883C91054E
:1038E00038F510E21D0FCD17B9F080E28C0F88304B
:1038F00040F4C77081E001C0880FCA95EAF70E94C2
:103900001B04183028F581E09D2F977001C0880FA7
:103910009A95EAF70E941404802F0E940B04183035
:10392000F0F4D77081E001C0880FDA95EAF70AC099
:1039300080E28C0F883098F4C77081E001C0880F56
:10394000CA95EAF7DF91CF911F910F910C941B0458
:10395000802FDF91CF911F910F910C940B04DF9179
:10396000CF911F910F9108950F939C01CB01243F9C
:103970004CE5340731F188F4293DFCE53F07D9F0E7
:103980002A3D4CE5340779F1283D3C45A9F506E28E
:1039900021EE41EE68ED7CE52BC0263FFCE53F07BC
:1039A000E1F0A8F0273F3C4539F507E225EE46EE69
:1039B00067EF7CE51DC007E225EE45EE69ED7CE58D
:1039C00017C006E221EE40EE64EF7CE511C007E28D
:1039D00025EE44EE65EF7CE50BC006E221EE42EEFB
:1039E00066EF7CE505C008E221E045EE6AED7CE586
:1039F0000E94411C80E008C0FC018281882319F0EC
:103A00001092230301C081E00F9108958EE14A9B3B
:103A100002C08150E1F74A9BFECF08955A9880E298
:103A20008A95F1F75A9A0895FC012AE02A95F1F750
:103A300028E090E080E031E040E14A95F1F7880F1E
:103A40004A9B02C08160932700C0000040E14A9574
:103A5000F1F7215089F720E12A95F1F729B100C04B
:103A6000000030E13A95F1F722FB222720F9922756
:103A70002081920F90830895EF92FF920F931F93EE
:103A8000CF93DF931F92CDB7DEB719828C017C01F3
:103A9000E60EF11C0E151F0551F00E94061DCE0109
:103AA00001960E94141DF80181938F01F3CF81E0EC
:103AB0009981911180E00F90DF91CF911F910F912B
:103AC000FF90EF900895529A5A9A089552985A9AF0
:103AD000EA9AE9E6F0E080818F7C80830895615066
:103AE00091E001C0990F6A95EAF720E031E099234F
:103AF00061F0492F482319F05A9A232701C05A9898
:103B000040E24A95F1F79695F2CF222311F05A9AA6
:103B100001C05A9880E28A95F1F75A980895FF9269
:103B20000F931F93CF93DF93EC018C01060F111DB0
:103B3000C017D10741F0F9900E940E1D68E08F2D4B
:103B40000E946F1DF5CFDF91CF911F910F91FF90D4
:103B500008951F920F920FB60F921124EF92FF92C9
:103B60000F931F932F933F934F935F936F937F9385
:103B70008F939F93AF93BF93EF93FF93CF93DF9375
:103B80001F92CDB7DEB719820E94061DCE010196A5
:103B90000E94141DA82FA695A695A6959A2F9695D6
:103BA00095702A2F2570920F292F23709695969540
:103BB000920F877089137CC08981811179C0A430EC
:103BC00008F076C080E18A95F1F75A9A529AB2E0ED
:103BD000BA95F1F700C05A98EA2EF12CEAE0AE9FB0
:103BE000D0011124AB5FBE4F1896ED91FC9119974F
:103BF0003097B1F06091B4017091B50116962D9196
:103C00003C911797260F371F13968D919C9114970F
:103C1000680F791F15964C91159712968C910995FE
:103C20008AE08E9DF0018F9DF00D1124EB5FFE4F19
:103C30006581662351F08091B4019091B501268190
:103C40003781820F931F0E948F1D0E940E1DF0E18D
:103C5000FA95F1F75A9852985A9A80E18A95F1F7B5
:103C60008AE08E9D80018F9D100D11240B5F1E4FE9
:103C7000D80112966C911297662399F08091B40145
:103C80009091B50113962D913C911497820F931F3B
:103C90000E943C1DD801ED91FC91811105C082E08C
:103CA00004C0D801ED91FC9188E080830E94061D3C
:103CB0000F90DF91CF91FF91EF91BF91AF919F91C5
:103CC0008F917F916F915F914F913F912F911F91B4
:103CD0000F91FF90EF900F900FBE0F901F901895CF
:103CE0000F931F93CF93DF93843091050CF0A9C0FD
:103CF0002AE0289FF001299FF00D1124EB5FFE4F71
:103D000020813181232B09F49CC0EC01F894529A54
:103D10005A9885E08A95F1F700008C2F869585707A
:103D20009C2F9570890F982F9370869586958E019C
:103D300023E0000F111F2A95E1F7890F082B0E943D
:103D40000E1DA4E0AA95F1F700C068E0802F0E9444
:103D50006F1DB0E1BA95F1F752985A9A4A9902C08C
:103D600000C0FCCF87E090E04A9B17C0019799F410
:103D7000529A5A9A8AE08C9FF0018D9FF00D11247F
:103D8000EB5FFE4F0190F081E02D81E0808378941D
:103D900081E090E058C000C0E7CF8AE08C9F8001AE
:103DA0008D9F100D11240B5F1E4FF8016581662356
:103DB000B9F08091B4019091B50126813781820FCD
:103DC000931F0E943C1D81110BC0529A5A9AD80130
:103DD000ED91FC9182E08083789482E090E033C0A2
:103DE0000E94061DB0E2BA95F1F75A98529AE0E1A6
:103DF000EA95F1F78AE08C9FF0018D9FF00D112478
:103E0000EB5FFE4F6281662351F08091B401909187
:103E1000B50123813481820F931F0E948F1D0E9460
:103E20000E1D8AE08C9FF0018D9FF00D1124EB5F39
:103E3000FE4F0190F081E02D1082789480E090E0B8
:103E400002C084E090E0DF91CF911F910F9108951F
:103E50009093C7018093C601089590932A0380939D
:103E6000290308950E94D412811103C08091240374
:103E70000895E0912903F0912A03309721F00190F1
:103E8000F081E02D099480E00895E0912903F091FC
:103E90002A03309799F020914301222359F0209171
:103EA000560327FF07C0DC012C9111962C93119724
:103EB00026E02C930280F381E02D09940895E0918F
:103EC0002903F0912A03309739F022E0DC012C938A
:103ED0000480F581E02D0994089520912703309105
:103EE00028032817390771F090932803809327033C
:103EF000E0912903F0912A03309721F00680F781A1
:103F0000E02D099408952091250330912603281768
:103F1000390771F09093260380932503E0912903DC
:103F2000F0912A03309721F00084F185E02D099467
:103F30000895FC01329680914301882331F08091ED
:103F4000560387FF02C09EE101C096E080E09150D9
:103F500028F021912223D9F38F5FF9CF08956623AA
:103F600051F1209143012223E9F02091560327FFCC
:103F700019C0462F4695469546954E31E0F4677038
:103F800021E030E002C0220F331F6A95E2F7FC0106
:103F9000E40FF11D828190E02823392381E0232B57
:103FA00069F409C0FC01329608962191621729F044
:103FB000E817F907D1F780E0089581E008959C01A2
:103FC000FC0132969FEF80E04191461789F09F3FB8
:103FD00019F4411101C0982F8F5F8630A9F79F3FD8
:103FE00039F0F901E90FF11D97FDFA956283089503
:103FF00008959C012A5F3F4FFC014281461301C096
:104000001282019682179307B9F70895262F2695F5
:10401000269526952E3168F4FC01E20FF11D67709C
:1040200021E030E001C0220F6A95EAF78281282B57
:1040300022830895262F2695269526952E3170F4F5
:10404000FC01E20FF11D677021E030E001C0220F9A
:104050006A95EAF72095828128232283089520918A
:104060004301222329F02091560327FD0C940620BA
:104070000C94DF1F20914301222329F02091560345
:1040800027FD0C941A200C94F91F20914301FC0188
:104090003296222331F08091560387FF02C08EE1D1
:1040A00001C086E0DF011D928A95E9F70895089521
:1040B0000C94572083E080932B030C94582081119B
:1040C00002C081E001C082E080932B030C94582051
:1040D0000C945F2081E080932B030C9458200C9467
:1040E0006A20089580916404843031F10E94930223
:1040F00010922C0320E488E190E00FB6F894A89584
:10410000809360000FBE2093600083B7817F84603E
:1041100083BF83B7816083BF7894889583B78E7F90
:1041200083BF0FB6F894A895809160008861809352
:104130006000109260000FBE089508950C949D20B9
:10414000CF930E949E200E9449120E949D20C0E0B1
:104150008C2F0E940911811104C0CF5FC830C1F7B4
:1041600001C081E0CF9108950E94B9060C94030329
:104170001F920F920FB60F9211248F939F93AF93BC
:10418000BF9380912C03811113C080916F03909194
:104190007003A0917103B09172034196A11DB11DEE
:1041A00080936F0390937003A0937103B093720395
:1041B000BF91AF919F918F910F900FBE0F901F9065
:1041C000189582E084BD93E095BD9AEF97BD8093EA
:1041D0006E0008952FB7F89480916F03909170034B
:1041E000A0917103B09172032FBF08952FB7F89477
:1041F00060916F03709170038091710390917203CD
:104200002FBF08959C014FB7F89480916F03909150
:104210007003A0917103B09172034FBF821B930B87
:104220000895CF92DF92EF92FF922FB7F894C0904B
:104230006F03D0907003E0907103F09072032FBF72
:10424000A7019601261B370B480B590BCA01B90170
:10425000FF90EF90DF90CF90089578941F920F9287
:104260000FB60F9211248F939F93AF93BF938091BA
:104270006F0390917003A0917103B0917203019646
:10428000A11DB11D80936F0390937003A0937103E0
:10429000B0937203BF91AF919F918F910F900FBE1A
:1042A0000F901F90189587E797E7909301088093E8
:1042B00000089AE088E10FB6F894A8958093600012
:1042C0000FBE90936000FFCF881F8827881F089536
:1042D00091E0883F08F490E0892F0895982F907F0F
:1042E000903BF1F038F49039D9F0903AC9F0903819
:1042F000C9F416C0903D49F018F4903C31F012C05A
:10430000903E71F0903F19F00DC082E00895815FFA
:104310008F3040F4E82FF0E0EA54FE4F808108959A
:1043200083E0089580E008950F93022F0F77242FE4
:104330002F776F70462F406BDC01ED91FC9163E0AD
:1043400070E009950F9108950F93022F0F77242F96
:104350002F776F70462F4069DC01ED91FC9163E08F
:1043600070E009950F9108950F93022F0F77242F76
:104370002F776F70462F4068DC01ED91FC9163E070
:1043800070E009950F9108950F931F93411520E256
:1043900052073CF44115A0EE5A0734F09A01305E02
:1043A00005C02FEF3FE302C020E030E08901000F9D
:1043B000012F001F110B11952F77462F4F70406E64
:1043C000DC01ED91FC9163E070E009951F910F9184
:1043D0000895FC01738362830895FC01758F648FD7
:1043E0000895CF93DF93EC011DA21FA21EA2BC0172
:1043F000685D7F4F40EC88519F4F0E9414241B82C0
:104400001A821D821C821F821E82198618861B86B4
:104410001A861D861C861F861E86198A188A1B8A84
:104420001A8A1D8A1C8A1F8A1E8A198E188E1B8E54
:104430001A8E1D8E1C8E1F8E1E8E19A218A2DF9141
:10444000CF910895EF92FF920F931F93CF93DF9335
:10445000EA018A01060F111D88519F4F7C01C01788
:10446000D10729F06991C7010E941B24F8CFDF9181
:10447000CF911F910F91FF90EF900895FC017183F0
:1044800060830895FC0171A360A30895AF92BF9269
:10449000CF92DF92EF92FF920F931F93CF93DF9310
:1044A00000D01F92CDB7DEB77C016B01142FB22E66
:1044B000A02EDC0195968C9195978430F1F45A9654
:1044C000ED91FC915B97309709F4BEC0CB01019749
:1044D00063E070E00E94FF2CCB01880F991F860FCC
:1044E000971F4983BA820B834C2D481B9E012F5F77
:1044F0003F4FBC01C7010995B4C06230710509F492
:1045000052C06330710529F06130710509F099C01E
:1045100080C0842F807F803AF9F058F48038B1F061
:10452000803909F091C0D7011496ED91FC9115974F
:104530002AC0803EB9F0803FD9F0803B09F084C0AA
:10454000D7011296ED91FC9113971DC0D7011696D5
:10455000ED91FC91179717C0D7011896ED91FC913A
:10456000199711C0D7011A96ED91FC911B970BC0BA
:10457000423F09F069C0D7011C96ED91FC911D974F
:10458000309731F461C0309709F45EC0123F21F4D6
:104590002A2D4B2D62EF04C02A2D4B2D612F6F70F9
:1045A000C70109955EC0842F807F803D59F0803F10
:1045B00079F0803C09F048C0D7011E96ED91FC913E
:1045C0001F9718C0D7015096ED91FC91519712C0DA
:1045D000433F31F4D7015296ED91FC91539707C0B8
:1045E000413F91F5D7015496ED91FC915597309745
:1045F00039F42AC0309741F1812F8D7F813F19F422
:104600004B2D612F03C04B2D612F6F70C701099592
:1046100028C0842F0E946821882331F0D701569644
:10462000ED91FC91579707C0163F71F4D70158964A
:10463000ED91FC915997309739F0612FC701099599
:1046400010C064307105D8F4D7015C96ED91FC91EF
:104650005D97309731F00A2D2B2D412FB601C70100
:104660000995D7015E96ED91FC915F97309751F0D7
:104670000A2D2B2D412FB601C701099503C0C12C6E
:10468000D12CE2CF0F900F900F90DF91CF911F911F
:104690000F91FF90EF90DF90CF90BF90AF90089573
:1046A000FF920F931F93CF93DF93EC01162F862F6A
:1046B0000E946821882369F0FDA081E08DA300E0BD
:1046C00020E0412F61E070E0CE010E944622FDA271
:1046D00070C0812F0E9464214DA1882309F440C03D
:1046E000443029F01AA381E090E09FA38EA3812F8C
:1046F0000E946E21813031F070F0823051F08330B1
:1047000041F02AC08DA300E020E0412F61E070E07D
:104710001EC08DA34EC0103FB1F0173FE9F42EA18B
:104720003FA1C90163E070E00E94FF2CFE01E80F89
:10473000F91F12A3B9016F5F7F4F7FA36EA30CA176
:104740002BA14AA104C084E08DA31AA329C0CE01E5
:104750000E9446221DA22DC01DA21FA21EA229C07A
:10476000442339F12EA13FA1C90163E070E00E940A
:10477000FF2CFE01E80FF91F12A3B9016F5F7F4FF5
:104780007FA36EA38130910581F0029791F40CA173
:104790002BA14AA1CE010E9446228DA1843049F06E
:1047A00081E090E09FA38EA304C0423011F400E0AA
:1047B000EFCFDF91CF911F910F91FF900895CF928E
:1047C000DF92EF92FF920F931F93CF93DF93EC0151
:1047D000E8A1F9A1309709F009956E0188EEC80E9D
:1047E000D11CC6010E944B24E12CF12C082F10E0B3
:1047F000E016F10680F460E0C6010E946124682F93
:10480000CE010E94502361E0C6010E9472248FEF06
:10481000E81AF80AEDCFDF91CF911F910F91FF9029
:10482000EF90DF90CF900895FC01428374836383FF
:104830001182108208951F93CF93DF93EC01162FFE
:104840000E948A24E82F298130E0C90101966A81FB
:1048500070E00E94132D488150E08417950729F4D9
:104860008E2F0E948D2480E012C08B819C81DC0100
:10487000A20FB31F1C93898190E001966A8170E0BA
:104880000E94132D89838E2F0E948D2481E0DF9159
:10489000CF911F9108950F931F93CF938C010E9486
:1048A0008A24F801C1812081C21718F4F80192818D
:1048B000C90FC21B0E948D248C2FCF911F910F9185
:1048C0000895FC012081862F90E0820F911D628166
:1048D00070E00E94132D0380F481E02DE80FF91F92
:1048E000808108951F93CF93DF93EC01162F0E94D0
:1048F0008A24282F3881812F90E0830F911D6A81AF
:1049000070E00E94132D8883822FDF91CF911F9139
:104910000C948D248FB7F89408958FBF089508954F
:1049200008950F931F93CF93DF93CDB7DEB72797EB
:104930000FB6F894DEBF0FBECDBF8C01CE0101963D
:104940000E944527882309F18A810E946E219A815D
:104950009D839B819E839C819F8381110EC0898151
:10496000843041F0873031F0863031F0853031F7D6
:1049700081E003C083E001C082E0AE014B5F5F4F86
:10498000682FC8010E942222D9CF27960FB6F8942B
:10499000DEBF0FBECDBFDF91CF911F910F91089564
:1049A000DF92EF92FF920F931F93CF93DF9300D08C
:1049B00000D0CDB7DEB77B01142FD22E4A832B83D4
:1049C0000C83842F0E946E2181111CC082E0E816A6
:1049D000F10471F083E0E816F10421F0EA94EF2885
:1049E000C1F40CC0073F11F487E006C084E004C0A6
:1049F00087EFD812FBCF86E0898307C0173FB1F756
:104A000085E0FACF12951F701983CE0101960E949E
:104A100040270F900F900F900F90DF91CF911F9133
:104A20000F91FF90EF90DF9008950E94291583E782
:104A300093E00E94F12160ED74E283E793E00E942D
:104A40003E2261E974E283E793E00E9442226FE82C
:104A500074E283E793E00E94ED2160E974E283E76A
:104A600093E00C94E921209164042430D9F49B0153
:104A7000FC0181818F708093E90040E050E064E0A8
:104A800070E0C9010E94042881110FC09091E800D4
:104A9000892F807295FD08C09091E8009E779093D1
:104AA000E800089582E0089580E00895209164046C
:104AB0002430A1F4FC0181818F708093E900209162
:104AC000F3008091F20090E0922B892B49F08091C5
:104AD000E8008E778093E8000C94AD2982E0089579
:104AE00080E00895FC0180916404843059F4918140
:104AF0009F709093E9008091E80080FF03C0CF0190
:104B00000C945625089520916404243011F080E01F
:104B10000895FC0186818F708093E9008091E80000
:104B200082FFF5CF8091E80085FFF1CFCB0140E017
:104B300050E064E070E00E944F288091E80085FD1D
:104B400005C08091E8008B778093E80081E00895AC
:104B5000809150030895089522E02093E9002FEFFB
:104B60003091E800215035FD06C035ED3A95F1F75A
:104B700000002111F5CF2091E80025FF0BC040E097
:104B800050E066E070E00E9404288091E8008E7793
:104B90008093E8000895CF93DF932091430122236F
:104BA00039F02091560327FF03C060E222E002C0E3
:104BB00068E021E02093E9002FEF3091E8002150D8
:104BC00035FD06C035ED3A95F1F700002111F5CF1E
:104BD0002091E80025FF1DC0EC0180914301811167
:104BE00005C040E050E068E070E003C070E040E0E5
:104BF00050E0CE010E9404288091E8008E778093D7
:104C0000E80080E2FE01A0E3B3E001900D928A95F6
:104C1000E1F7DF91CF91089580932D0370932F03D7
:104C200060932E0380916404843001F582E08093C8
:104C3000E9008FEF9091E800815095FD06C095ED59
:104C40009A95F1F700008111F5CF8091E80085FF7A
:104C50000DC040E050E063E070E08DE293E00E9420
:104C600004288091E8008E778093E8000895BC01C5
:104C700084E00C940C26BC0183E00C940C268091FB
:104C80006304811109C00E94E0290E943D2A80919D
:104C9000E20084608093E200089510926304089516
:104CA0000C946F206091600481E0611101C080E08C
:104CB0000C945A209091640481E0943009F080E0D3
:104CC000609160040C945F2042E061EC81E00E94FE
:104CD000592942E261EC82E00E94592942E361E8ED
:104CE00083E00E94592942E361E884E00E94592947
:104CF0009091640481E0943009F080E06091600458
:104D00000C94682080916604833009F461C030F40B
:104D1000813071F0823009F49AC008958A3009F424
:104D200086C08B3009F46CC0893009F0A8C020C05F
:104D300080916504813A09F0A2C08091E800877FE4
:104D40008093E8008091690490916A04892B21F492
:104D500060E280E393E003C060E080E090E070E018
:104D60000E949A288091E8008B778093E80008954C
:104D700080916504813209F082C08091690490912C
:104D80006A04029708F07BC08091E800877F8093D7
:104D9000E8008091E80082FD05C0809164048111E3
:104DA000F8CF6DC02091F3008091F20090E0922B3B
:104DB000029731F48091F100813011F0863021F4B6
:104DC0008091F100809350038091E8008B7753C06D
:104DD00080916504813A09F052C0809169049091F4
:104DE0006A04892B09F04BC08091E800877F80938B
:104DF000E8008091E80080FFFCCF8091430136C03D
:104E0000809165048132D9F58091690490916A049A
:104E1000892BA9F58091E800877F8093E8000E94A4
:104E20008E2980916704809343010C94B906809188
:104E30006504813221F58091E800877F8093E80046
:104E40000E948E2980916804809351030895809177
:104E50006504813AA1F48091E800877F8093E8009F
:104E60008091E80080FFFCCF809151038093F10096
:104E70008091E8008E778093E8000C948E29089545
:104E8000BC018BE291E00C943325BC018BE291E0F4
:104E90000C9483250E94152584B7877F84BF0FB6A5
:104EA000F894A895809160008861809360001092CA
:104EB00060000FBE90E080E80FB6F8948093610028
:104EC000909361000FBE0C946A200E94E0290E941A
:104ED0003D2AE2EEF0E080818460808378940C9437
:104EE000D22C87E391E00C942D1F809164048530CF
:104EF000A9F480916404853079F40E947220809135
:104F000062048823B1F30E94A020882391F30E94B9
:104F1000EE270E94B906EDCF0C94B42008958BE2E1
:104F200091E00C9472250C949527292F3327233078
:104F30003105C9F060F42130310581F022303105AE
:104F400009F044C08FE990E028E332E043C0213209
:104F50003105E1F02232310549F138C082E190E0BB
:104F600027ED32E037C099278130910549F028F0CC
:104F7000029761F5E4E1F2E005C0E4E3F2E002C08B
:104F8000E2E2F2E0849190E09F0124C06115710596
:104F900041F061307105D1F489E090E023E632E020
:104FA00019C089E090E02AE432E014C0611571056F
:104FB00041F06130710551F486EB90E029EE32E06A
:104FC00009C080E490E02FE933E004C080E090E085
:104FD00020E030E0FA0131832083089580E189BD2B
:104FE00082E189BD09B400FEFDCF8091D8008F7D9C
:104FF0008093D8008091E00082608093E0008091EF
:10500000E00081FDFCCF0895CF92DF92EF92FF92F6
:105010000F931F93CF93DF93EC018B017A010E94D2
:10502000AD29811133C0E114F10439F0F701808119
:105030009181081B190BC80FD91FC12CD12C011548
:10504000110519F18091E80085FD16C08091E800F6
:105050008E778093E800E114F10449F0F701808134
:105060009181C80ED91ED182C08285E00FC00E94F6
:10507000AD29882321F30AC089918093F100015062
:105080001109FFEFCF1ADF0ADACF80E0DF91CF916D
:105090001F910F91FF90EF90DF90CF900895CF92E6
:1050A000DF92EF92FF920F931F93CF93DF93EC0168
:1050B0008B017A010E94AD29811133C0E114F10402
:1050C00039F0F70180819181081B190BC80FD91F96
:1050D000C12CD12C0115110519F18091E80085FD35
:1050E00016C08091E8008B778093E800E114F1040A
:1050F00049F0F70180819181C80ED91ED182C0820A
:1051000085E00FC00E94AD29882321F30AC0809159
:10511000F100899301501109FFEFCF1ADF0ADACFAE
:1051200080E0DF91CF911F910F91FF90EF90DF9082
:10513000CF90089520916B0430916C0426173707A7
:1051400048F06115710539F42091E8002E7720931D
:10515000E80001C0B901FC0120E06115710579F199
:10516000809164048823F1F18530F1F18091E800A9
:1051700083FD3CC08091E80082FD2EC08091E80054
:1051800080FFEBCF2091F3008091F20090E0922B12
:105190006115710551F08830910538F42191209303
:1051A000F100615071090196F3CF21E0089709F0F1
:1051B00020E08091E8008E778093E800CECF211127
:1051C000CFCF0AC080916404882361F0853061F0FC
:1051D0008091E80083FD0AC08091E80082FFF2CF51
:1051E00080E0089582E0089583E0089581E00895C5
:1051F00020916B0430916C042617370748F0611535
:10520000710539F42091E8002E772093E80001C061
:10521000B901FC0120E06115710591F180916404F0
:10522000882309F440C0853009F43FC08091E8002C
:1052300083FD3DC08091E80082FD2FC08091E80091
:1052400080FFE9CF2091F3008091F20090E0922B53
:105250006115710559F08830910540F4249120932F
:10526000F1003196615071090196F2CF21E0089763
:1052700009F020E08091E8008E778093E800CBCFA2
:105280002111CCCF0AC080916404882361F085305D
:1052900061F08091E80083FD0AC08091E80082FF00
:1052A000F2CF80E0089582E0089583E0089581E0E0
:1052B0000895982F973068F59093E900981739F082
:1052C0007091EC002091ED005091F00003C0242F6C
:1052D000762F50E021FD02C09F5FECCF3091EB00B4
:1052E0003E7F3093EB003091ED003D7F3093ED0039
:1052F0003091EB0031603093EB007093EC00209321
:10530000ED005093F0002091EE0027FDE5CF80E006
:1053100008958F708093E90081E00895809165047D
:1053200087FF11C08091E80082FD05C08091640470
:105330008111F8CF11C08091E8008B770BC080916C
:105340006404882349F08091E80080FFF8CF8091C1
:10535000E8008E778093E80008952091E400309172
:10536000E50095E64091EC00842F817040FF23C05A
:105370008091E80080FD1DC080916404882399F02D
:10538000853099F08091EB0085FD11C04091E400DB
:105390005091E5002417350729F3915011F09A0137
:1053A000E1CF84E0089582E0089583E0089581E0EC
:1053B000089580E008954091E80042FFDDCF089510
:1053C0000E944E2A0E94562AE0EEF0E08081816021
:1053D0008083E8EDF0E080818F77808319BCA7EDB2
:1053E000B0E08C918E7F8C9380818F7E8083109231
:1053F000630408950F931F93CF93DF930E944E2A67
:105400000E94562AC8EDD0E088818F7788838881F2
:105410008068888388818F7D888319BC109264049A
:1054200010926004109262041092610400EE10E089
:10543000F80180818B7F808388818160888342E04E
:1054400060E080E00E945929E1EEF0E080818E7FEB
:105450008083E2EEF0E080818160808380818860DB
:105460008083F80180818E7F80838881806188833A
:10547000DF91CF911F910F910895E8EDF0E08081C9
:105480008F7E8083E7EDF0E080818160808384E01F
:1054900082BF81E0809363040C94FA29E8EDF0E088
:1054A00080818E7F80831092E20008951092DA004E
:1054B0001092E10008951F920F920FB60F921124DF
:1054C0002F933F934F935F936F937F938F939F930C
:1054D000AF93BF93EF93FF938091E10082FF0BC0E6
:1054E0008091E20082FF07C08091E1008B7F809372
:1054F000E1000E94D12C8091DA0080FF1FC08091D2
:10550000D80080FF1BC08091DA008E7F8093DA0084
:105510008091D90080FF0DC080E189BD82E189BD05
:1055200009B400FEFDCF81E0809364040E943F2611
:1055300005C019BC109264040E944D268091E100C0
:1055400080FF19C08091E20080FF15C08091E200C9
:105550008E7F8093E2008091E20080618093E20080
:105560008091D80080628093D80019BC85E0809338
:1055700064040E9452268091E10084FF30C0809133
:10558000E20084FF2CC080E189BD82E189BD09B4BD
:1055900000FEFDCF8091D8008F7D8093D800809150
:1055A000E1008F7E8093E1008091E2008F7E809306
:1055B000E2008091E20081608093E20080916004CB
:1055C000882311F084E007C08091E30087FD02C0CA
:1055D00081E001C083E0809364040E945A26809198
:1055E000E10083FF29C08091E20083FF25C0809104
:1055F000E100877F8093E10082E080936404109251
:1056000060048091E1008E7F8093E1008091E20050
:105610008E7F8093E2008091E20080618093E200BF
:1056200042E060E080E00E9459298091F0008860AB
:105630008093F0000E945026FF91EF91BF91AF91AF
:105640009F918F917F916F915F914F913F912F919A
:105650000F900FBE0F901F9018951F920F920FB6CC
:105660000F9211242F933F934F935F936F937F93E8
:105670008F939F93AF93BF93CF93DF93EF93FF935A
:10568000C091E900CF708091EC00D82FD17080FDDF
:10569000D0E81092E9008091F000877F8093F000BD
:1056A00078940E94712B1092E9008091F00088603C
:1056B0008093F000CD2BCF70C093E900FF91EF9164
:1056C000DF91CF91BF91AF919F918F917F916F911A
:1056D0005F914F913F912F910F900FBE0F901F90B0
:1056E00018951F93CF93DF93CDB7DEB7AA970FB668
:1056F000F894DEBF0FBECDBFE5E6F4E08091F10087
:10570000819324E0ED36F207C9F70E94822680914A
:10571000E80083FF2EC18091650490916604492FB3
:1057200050E04A30510508F024C1FA01E059FF4F1A
:105730000C94272D803821F0823809F01AC108C056
:105740008091610490916204992389F082600FC076
:10575000809169048F70873008F00BC18093E90055
:105760008091EB0085FB882780F91092E9009091E9
:10577000E800977F9093E8008093F1001092F10089
:10578000D1C0282F2D7F09F0F4C0882319F0823072
:1057900061F0EFC080916704813009F0EAC0933076
:1057A00009F080E0809362042EC08091670481112B
:1057B0002AC0809169048F702FEF280F263008F0DF
:1057C000D8C08093E9002091EB0020FF1CC09330EB
:1057D00021F48091EB00806214C09091EB00906105
:1057E0009093EB0021E030E0A90102C0440F551F67
:1057F0008A95E2F74093EA001092EA008091EB006C
:1058000088608093EB001092E9008091E800877F28
:105810008093E8000E948E29ACC08111AAC010912B
:1058200067041F778091E3008078812B8093E300E9
:105830008091E800877F8093E8000E948E29809104
:10584000E80080FFFCCF8091E30080688093E30054
:10585000111102C082E001C083E08093640489C01A
:105860008058823008F085C0809167049091680468
:105870008C3D53E0950779F583E08A838AE289833A
:105880004FB7F894DE01139620E03EE051E2E32F9B
:10589000F0E050935700E49120FF03C0E295EF70D1
:1058A0003F5FEF708E2F90E0EA3010F0C79601C096
:1058B000C0968D939D932F5F243149F74FBF809100
:1058C000E800877F8093E8006AE270E0CE010196ED
:1058D0000E949A2816C06091690470916A04AE0112
:1058E0004F5F5F4F0E949327BC01892B09F441C091
:1058F0009091E800977F9093E80089819A810E94B7
:10590000F8288091E8008B778093E80032C08038D7
:1059100081F58091E800877F8093E80080916004A2
:105920008093F1008091E8008E7772CF811121C0C1
:10593000809167049091680499270297D4F480912C
:10594000E800877F8093E80080916704809360047B
:105950000E948E2980916004811106C08091E3002D
:1059600087FD02C081E001C084E0809364040E944E
:1059700064268091E80083FF0AC08091E800877F59
:105980008093E8008091EB0080628093EB00AA9600
:105990000FB6F894DEBF0FBECDBFDF91CF911F9140
:1059A00008950895CF93809164048823A1F0C09155
:1059B000E900CF709091EC00892F817090FD80E814
:1059C000C82B1092E9008091E80083FD0E94712BA2
:1059D000CF70C093E900CF9108950E94E029109202
:1059E00064040895E8EDF0E08081806180838AE1BD
:1059F0008A95F1F700C08091D90081700895AA1BA3
:105A0000BB1B51E107C0AA1FBB1FA617B70710F0A9
:105A1000A61BB70B881F991F5A95A9F780959095DB
:105A2000BC01CD01089597FB072E16F4009407D012
:105A300077FD09D00E94FF2C07FC05D03EF490951D
:105A400081959F4F0895709561957F4F0895EE0F52
:105A5000FF1F0590F491E02D0994FB01DC0104C0C7
:105A60008D910190801921F441505040C8F7881B56
:105A7000990B0895FB01DC0102C001900D92415089
:105A80005040D8F70895F999FECF92BD81BDF89A9C
:105A9000992780B50895A8E1B0E042E050E00C9469
:105AA000772D262FF999FECF92BD81BDF89A0197E7
:105AB00000B4021639F01FBA20BD0FB6F894FA9A56
:105AC000F99A0FBE08950396272F0E94522D0E9427
:105AD000512D252F0E94522D242F0C94522D0196CA
