:100000000C94CC010C9413020C9413020C94DD1C80
:100010000C9413020C9413020C9413020C9413020C
:100020000C9413020C9413020C9455290C94292A55
:100030000C94E41F0C9413020C9413020C941302FE
:100040000C9413020C9413020C9413020C941302DC
:100050000C9413020C9457200C9413020C9413026A
:100060000C9413020C9413020C9413020C941302BC
:100070000C9413020C9413020C9413020C941302AC
:100080000C9413020C9413020C9413020C9413029C
:100090000C9413020C9413020C9413020C9413028C
:1000A0000C9413020C9413020C9413020000000031
:1000B0000000000000000000000000000000000040
:1000C0000000000000000000000000000000000030
:1000D000000000000000000000000000AD5DAC5D0D
:1000E000AB5DAA5DA95DA85DB35DB25DB15DB05DBC
:1000F000AF5DAE5DB95DB85DB75DB65DB55DB45D74
:10010000000000000000BA5D1250BA5D000000005F
:1001100000000000000000000000000000000000DF
:1001200000000000000000000000000000000000CF
:1001300000000000000000000000000000000000BF
:1001400000000000000000000000000000000000AF
:10015000000000000000000000000000000000009F
:10016000000000000000000000000000000000008F
:10017000000000000000000000000000000000007F
:10018000000000000000000000000000000000006F
:10019000000000000000000000000000B05C6B5C8C
:1001A0006A5C695C685C825CAF5C5A5C595C585CF8
:1001B000575C815C0000565C555C545C535C0000ED
:1001C0000000000000000000105000000C0343007D
:1001D0006F0072006E0065000000100366006F0083
:1001E0006F007300740061006E00000004030904D6
:1001F00009029F00040100A0FA09040000010301A4
:1002000001000921110100012240000705810308B6
:10021000000A090401000103000000092111010086
:100220000122B6000705820320000A080B02020122
:10023000010000090402000001010000092401007E
:10024000010900010309040300020103000007245F
:1002500001000141000624020101000624020202FD
:10026000000924030103010201000924030204011F
:1002700001010009050402400005000005250101F7
:100280000109058302400005000005250101031254
:1002900001000200000008534601000100010200B5
:1002A0000105010902A10185020901A10005091941
:1002B000012908150025019508750181020501092C
:1002C0003009311581257F95027508810609381599
:1002D00081257F950175088106050C0A3802158174
:1002E000257F950175088106C0C005010980A1011F
:1002F000850319012AB700150126B700950175106D
:100300008100C0050C0901A101850419012AA00280
:10031000150126A002950175108100C0050109068E
:10032000A1018506050719E029E7150025019508B3
:10033000750181020507190029EF1500250195F0C7
:1003400075018102050819012905950575019102BC
:10035000950175039101C005010906A10105071961
:10036000E029E715002501950875018102950175C1
:100370000881010507190029FF150026FF009506D1
:100380007508810005081901290595057501910277
:10039000950175039101C00011241FBECFEFDAE073
:1003A000DEBFCDBF04B603FE27C080916D049091DF
:1003B0006E04A0916F04B09170048730904BA740F9
:1003C000B04BD1F410926D0410926E0410926F0431
:1003D0001092700414BE84B7877F84BF0FB6F89460
:1003E000A895809160008861809360001092600001
:1003F0000FBEE0E0F8E3099511E0A0E0B1E0EAE526
:10040000F9E502C005900D92A63CB107D9F724E0AA
:10041000A6ECB1E001C01D92AD36B207E1F70E9433
:1004200091140C94732C0C940000482FFB01209124
:100430006C03221F2227221F90916D039770990F42
:10044000692F622B82812FE7811101C020E083E7B1
:1004500093E00C94B920885A9D458431910540F46D
:10046000FC01EB58F34D0C94152C8CE30E94150203
:1004700081E008958DE3FACF8EE3F8CF8FE3F6CFD6
:1004800080E4F4CF81E4F2CF82E4F0CF83E4EECFD6
:1004900084E4ECCF85E4EACF86E4E8CF87E4E6CFD6
:1004A00088E4E4CF89E4E2CF8AE4E0CF8BE4DECFD6
:1004B0008CE4DCCF8DE4DACF8EE4D8CF8FE4D6CFD6
:1004C00081E008950C942B0208950C9464021F930C
:1004D000CF93DF9300D000D00F92CDB7DEB7498322
:1004E0005A836B833091C80189819A8131111DC073
:1004F0006623B9F02223A9F00E945608182F682F0E
:1005000089819A810E94FF0769817A81812F0F90EA
:100510000F900F900F900F90DF91CF911F910C943F
:10052000130F0E942D08182FEFCF0E9456086981E3
:100530007A81EDCFFC01262F408151816281738148
:1005400084810C94670281E00895CF93DF93EC01DE
:1005500060E00E949A02BE01DF91CF910C94650287
:100560000E9466100E9433030C948B100C948E1022
:1005700080E00C943403089508950E94A8060E9418
:10058000BC022FEF84E39CE0215080409040E1F7D3
:1005900000C000000C947B200F931F93CF93DF9338
:1005A0008C0161E00E949A02EC01B8010E94620293
:1005B0008823D9F1B801CE010E94CE148823A9F175
:1005C000B801CE010E94E31B882379F1B801CE0166
:1005D0000E94231A882349F1B801CE010E944D1BC5
:1005E000882319F1F8018281882361F0CB35FDE57C
:1005F000DF0721F170F4C115ECE5DE07A1F0CF3D76
:10060000DC45C9F0C801DF91CF911F910F910C9487
:100610006002CC358DE5D807A1F0CD35DD4591F7E9
:100620000E947E0CEFCF0E94BD0280E0DF91CF914F
:100630001F910F9108950E94380DF7CF0E94870CEB
:10064000E1CF0E948A0CDECF0C94BB020E94611E97
:100650000E9434030C94240308950C942C0381E02D
:1006600008950C942F030895CF93C82F0E942D0353
:100670008C2FCF910C943103CF93DF93CDB7DEB79E
:100680002B970FB6F894DEBF0FBECDBF4F835887B0
:1006900069877A878B8761110E94D90B1E821D8220
:1006A00085E0FE013796DE01119601900D928A9544
:1006B000E1F78C819D81892B89F449815A816B8175
:1006C0007C818D819E810E94FA0A2B960FB6F89448
:1006D000DEBF0FBECDBFDF91CF91089589819A8192
:1006E00089238F3F51F3CE0101960E94A30281110D
:1006F000E4CFEBCFFC01808191810C949808CF93DB
:10070000C82F882309F447C08CEF8C0F813AA0F4DE
:100710006C2F80910201909103010E94DC1E8823BE
:1007200029F08C2F0E949B0B0E94FC0B8C2F0E94A7
:10073000940BCF910C94FC0B80E28C0F883048F422
:10074000C77081E001C0880FCA95EAF70E94BC0B10
:10075000F0CFEBE5EC0FE33040F4F0E0EE58FE4F65
:10076000808190E0CF910C949C1EE8E5EC0FE7317E
:1007700050F4F0E0EE0FFF1FEC5BFE4F80819181A3
:10078000CF910C94B21ECD3E30F08C2F0E940318F6
:10079000CF910C94D618CF910895882361F19CEFE6
:1007A000980F913A20F40E949B0B0C94FC0B90E262
:1007B000980F983050F4877091E001C0990F8A9596
:1007C000EAF7892F0E94C20BF0CF9BE5980F933078
:1007D00020F490E080E00C949C1E98E5980F9731EF
:1007E00020F490E080E00C94B21E8D3E20F00E9438
:1007F0005D180C94D61808951F93CF93DF93182F8C
:10080000EB010E947F03209731F4812FDF91CF917C
:100810001F910C94CD038FE99FE00197F1F700C081
:1008200000002197F0CF70E060E0893311F460E5BB
:1008300070E00C94FC03882321F00E94BC0B0C9404
:10084000FC0B0895882321F00E94C20B0C94FC0B32
:100850000895BF92CF92DF92EF92FF920F931F9372
:10086000CF93DF936C01D62FC72FFC011281F58047
:10087000F2949FE0F9220E94B20BE82E8823B9F08F
:10088000E12E1123A1F08C2F807F803421F080E2B3
:100890008D0F8830D0F08091570382FD16C082E022
:1008A0000E944D0C0E94B20B91E0E82EE926BC2E6E
:1008B000B2948FE0B822FBE0FB1508F468C0EB2D82
:1008C000F0E0E757F34D0C94152CE12CF0CF0C2FF2
:1008D0000F70C07F11F00295007F112399F0002363
:1008E00059F080E28D0F883010F0D11107C0802FB1
:1008F0000E94BC0B0E94FC0B8D2F41C0802F0E94D8
:10090000CC0BF8CF8D2F0E94CD03002309F43FC0FC
:1009100080E28D0F883010F0D11104C0802F0E942A
:10092000C20B03C0802F0E94D20B0E94FC0B2FC071
:100930000C2F0F70C07FC03211F00295007FDD23B5
:1009400081F0D13009F469C0112309F473C0FF208C
:1009500009F469C0F601858180FFCECF8F70858351
:1009600062C08091570382FF38C0112359F00023E1
:1009700029F0802F0E94BC0B0E94FC0B80E00E949B
:100980007F0305C080E00E94CD030111C7CFEB2D8E
:10099000E850FF0B349720F40E94611E0E9434033C
:1009A000EE2009F472C10E94AE0B80FD6EC1F6010B
:1009B00012820E94A80B0E946307C6010E9466066D
:1009C0000E94A80BDF91CF911F910F91FF90EF90A4
:1009D000DF90CF90BF900C948407112389F0F11021
:1009E00006C00E94DF0B802B0E941B04D0CF21E0A9
:1009F000F212F7CF0E94DF0B802B0E94E50BC7CFCE
:100A0000F11006C00E94F20B802F0E942204BFCF7B
:100A100031E0F31609F4BBCFF5CF112331F085E0B7
:100A20008F1508F4B4CF802FDFCF94E09F1508F422
:100A3000AECFEACFFF2041F3D93349F4FFEF27EEE1
:100A400033E0F15020403040E1F700C000008D2F2E
:100A50000E94CD039CCF8C2F86958695837069F07C
:100A6000813009F094CF8D2F9C2F9370111102C00B
:100A700090E080E00E94B21E8ACF8D2F9C2F937051
:100A8000111102C090E080E00E949C1E80CF8D2F4B
:100A9000112329F00E9403180E94D61878CF0E94D3
:100AA0005D18FACF8C2F837009F041C011116FCF00
:100AB0004D2F429546954770440F440F0D2F0F70F0
:100AC00010E030E020E0042E04C0000F111F221FB0
:100AD000331F0A94D2F760E070E0CB01D4FF0FC05F
:100AE0006FE070E080E090E004C0660F771F881F21
:100AF000991F4A95D2F76095709580959095C69507
:100B0000C695C370602B712B822B932BC23049F09A
:100B100058F4C13019F00E94150739CF0E9403071D
:100B200036CF0E94270733CF0E94010730CF86952A
:100B3000112311F08C2F8170882309F428CF4D2FB9
:100B4000429546954770440F440F0D2F0F7010E0EB
:100B500030E020E0042E04C0000F111F221F331FBD
:100B60000A94D2F760E070E0CB01D4FF0FC06FE0D1
:100B700070E080E090E004C0660F771F881F991F27
:100B80004A95D2F76095709580959095C695C695D3
:100B9000C370602B712B822B932BC23049F058F419
:100BA000C13019F00E94DA07F2CE0E94C807EFCEDA
:100BB0000E94EC07ECCE0E943D07E9CECF701123D6
:100BC00029F08C2F0E9463078D2F0ECF8D2F0E944E
:100BD00022048C2F0E948407DACED23F51F160F4B8
:100BE000D03FB9F0D13F81F0112309F449C0F11091
:100BF00083CE8C2F8F7121C0D33F11F1D43FA1F749
:100C00008091570382FF26C08C2F8F71112311F31F
:100C100014C0112349F084E08F1508F4B8CE8C2F4E
:100C20008F710E94A707B3CE95E09F1508F4AFCE51
:100C3000F6CF8C2F8F711111CDCF0E946307A7CEF5
:100C4000112329F08C2F8F710E944E07A0CE0E9495
:100C500049079DCE112349F0CF718C2F0E94630765
:100C600063E08C2F0E94320C92CE81E00E944D0CEA
:100C7000E1E0EF1508F08BCE82E00E944D0C87CEAC
:100C8000F110DACE8C2F8F71A5CFDF91CF911F910C
:100C90000F91FF90EF90DF90CF90BF9008950F934A
:100CA0001F93CF93DF93EC01688179818A810E9441
:100CB000A2088C010E94FE070E940007B801CE0125
:100CC000DF91CF911F910F910C942904CF93DF9363
:100CD000EC018B819C81892B29F088819981892362
:100CE0008F3F59F4DF91CF910895CE010E944F06B6
:100CF000CE01DF91CF910C94A502CE010E94CC02CF
:100D00008111F3CF0E94B20B882361F38A8188237B
:100D100049F38091570382FDE5CF82E0DF91CF91C7
:100D20000C944D0C90E080E00E949C1E90E080E0CE
:100D30000E94B21E0E94D90B0E94DC0B0E94FC0B89
:100D40000E94FD190C94D6180E94A20B0C949206D6
:100D50000E94C90B0C94A406E92FE295EF70E250B3
:100D6000EE3070F4F0E0EB56F34D0C94152C803F10
:100D700019F020F4883E20F481E00895843FE1F3E7
:100D800080E00895883EC0F3813FD1F7F5CF93FB13
:100D9000882780F90895FC01808191810E9498083C
:100DA0000C94AC06CF93DF9300D000D00F92CDB758
:100DB000DEB70F900F900F900F900F90DF91CF91B3
:100DC0000895CF93DF9300D000D000D0CDB7DEB729
:100DD00026960FB6F894DEBF0FBECDBFDF91CF9140
:100DE000089508950C94F1060E94F2066093EB01B9
:100DF0007093EC018093ED019093EE010C949206B8
:100E000008950C94F4060F931F930091EB01109139
:100E1000EC012091ED013091EE01602B712B822BC2
:100E2000932B1F910F910C94F4060F931F93009135
:100E3000EB011091EC012091ED013091EE01602366
:100E40007123822393231F910F910C94F4060F9327
:100E50001F930091EB011091EC012091ED01309175
:100E6000EE0160277127822793271F910F910C9421
:100E7000F4060C94F1060C9439070E943B0760932A
:100E8000E7017093E8018093E9019093EA010C94E3
:100E9000920660E070E0CB010C943D070F931F9326
:100EA00041E050E060E070E08A019B0104C0000F67
:100EB000111F221F331F8A95D2F7C901B8011F9154
:100EC0000F910C943D070F931F9341E050E060E0B9
:100ED00070E004C0440F551F661F771F8A95D2F734
:100EE0008091E7019091E801A091E901B091EA01B8
:100EF0008A019B01082B192B2A2B3B2BC901B80116
:100F00001F910F910C943D070F931F9341E050E008
:100F100060E070E004C0440F551F661F771F8A957C
:100F2000D2F7CB01BA0160957095809590950091AC
:100F3000E7011091E8012091E9013091EA01602375
:100F40007123822393231F910F910C943D070F93DC
:100F50001F9341E050E060E070E004C0440F551F73
:100F6000661F771F8A95D2F78091E7019091E8017B
:100F7000A091E901B091EA018A019B010827192794
:100F80002A273B27C901B8011F910F910C943D07F7
:100F90000F931F930091E7011091E8012091E9015F
:100FA0003091EA01602B712B822B932B1F910F91B3
:100FB0000C943D070F931F930091E7011091E801F6
:100FC0002091E9013091EA01602371238223932368
:100FD0001F910F910C943D070F931F930091E70110
:100FE0001091E8012091E9013091EA016027712711
:100FF000822793271F910F910C943D070895E92FA5
:10100000EE0FE90FEE0F8E0F982F977041E001C0A1
:10101000440F9A95EAF786958695869595E0899F7F
:10102000F0011124E753FE4F30E020E070E05191D1
:10103000DF011197CB01022E02C0969587950A9485
:10104000E2F7817081958527842385278C932F5F14
:101050003F4F2530310559F70895E92FEE0FE90F7D
:10106000EE0F8E0F982F977086958695869525E0C2
:10107000829FF0011124E753FE4F50E040E080E0F2
:10108000219130E0092E02C0369527950A94E2F7A7
:1010900021703327042E01C0220F0A94EAF7822B15
:1010A0004F5F5F4F4530510559F70895BF92CF927A
:1010B000DF92EF92FF920F931F93CF93DF938C01F8
:1010C000C090E701D090E801E090E901F090EA01DA
:1010D0008091EB019091EC01A091ED01B091EE01B6
:1010E000C82AD92AEA2AFB2ACFE1D0E0BC2ED701B0
:1010F000C6010C2E04C0B695A795979587950A94BE
:10110000D2F780FD0EC0219788F7B12C8B2DDF918F
:10111000CF911F910F91FF90EF90DF90CF90BF90F4
:101120000895B8018C2F0E94270F019761F3EECF2D
:10113000CF93DF93EC010E945608BE01DF91CF915F
:101140000C94270F1F93CF93DF93EB019091C8016D
:10115000992331F0CB01DF91CF911F910C94980826
:10116000882379F0CB010E945608182F682FCE01F2
:101170000E94FF07BE01812FDF91CF911F910C9438
:10118000270FCB010E942D08182FF4CF1F93CF9368
:10119000DF93C091EF0116E08091F0018C1304C041
:1011A000DF91CF911F910895D0E01C9FF0011D9F0A
:1011B000F00D1124EF50FE4F408151816281738107
:1011C000848195810E94E1062196C770E5CF409108
:1011D0002102509122026091230270912402809199
:1011E0002502909126020C94E106FF920F931F9323
:1011F000CF93DF9380912602807FD1F480912302E8
:101200008823B1F08091EF011091F00160912102EB
:1012100070912202A0912402B0912502062F07238B
:10122000C0910001D091010196E0F92E181306C07B
:10123000DF91CF911F910F91FF90089590E010974B
:1012400011F00F3F19F401968770F0CFF89E9001CE
:10125000F99E300D1124F901EF50FE4F41814713E3
:10126000F2CF40814613EFCF42814111ECCF438151
:1012700054814A1B5B0B4C175D0728F780912602AF
:101280008F70806180932602F901EA50FE4F8081C1
:101290008F708061808381E292E00E946606DF9118
:1012A000CF911F910F91FF900C94C608AF92BF92FF
:1012B000CF92DF92EF92FF920F931F93CF93DF9322
:1012C000CDB7DEB761970FB6F894DEBF0FBECDBFC6
:1012D0008C0185E0F801DE011D9601900D928A9542
:1012E000E1F7F801E28081E2C82E82E0D82E609119
:1012F0002402709125026115710509F45FC1909176
:10130000210220912202892F82238F3F09F456C1A6
:1013100040815181A380B480F0902302F501E61B47
:10132000F70BBF01E0910001F0910101FF2009F4EA
:10133000F6C080912602382F307F6E177F0708F0A5
:10134000AFC0311179C0FE2C251323C0941321C0E6
:10135000E1101FC08F708061809326020E94E70811
:10136000C6010E94660680912602F80185838F2DB2
:1013700061960FB6F894DEBF0FBECDBFDF91CF915F
:101380001F910F91FF90EF90DF90CF90BF90AF90A3
:101390000895AB2829F0842F85238F3F09F027C1BA
:1013A00080E0F82FF170DF2E80FF3CC08091EF01CC
:1013B0002091F00136E0821315C04D875E878D8540
:1013C0009E850E949808292F22952F702230F0F0D8
:1013D000243018F59F70F1F0F8019581907FD1F4D9
:1013E000D12C1EC090E0389FF001399FF00D1124E0
:1013F000EF50FE4F6181651306C06081641303C026
:1014000062816E110FC001968770D5CF9F7011F069
:10141000882331F3805E883018F3C8010E94660685
:10142000FD2CA5CFEE2009F4A2CF80912602816089
:1014300080932602F12C9BCF251306C0941304C081
:10144000F801EE2009F487C0C8010E94CB0688236A
:1014500019F1EE2009F180912602803270F020917E
:1014600021023091220238872F831986BB86AA86F3
:101470008C87CE0107960E94660686E0F801A1E2FD
:10148000B2E001900D928A95E1F70E94F5080E9462
:10149000E708FF24F3946BCFC8010E946606F9CFDA
:1014A000311113C07A2DB98AA88A6E2D89890E94BC
:1014B000D20681E292E00E94660686E0F601119271
:1014C0008A95E9F70E94E708B5CF25130FC094135A
:1014D0000DC0E1100BC0F8018583C8010E946606AB
:1014E00086E0F60111928A95E9F741CFC8010E9482
:1014F000CB06882389F2EE2079F280912602803291
:1015000008F4BBCF20912102309122023A83298333
:101510001B82BD82AC828E83CE010196ACCF6E174A
:101520007F0708F03EC0FE2CEE2009F4B5CF25134E
:101530002AC0941328C08091260280FD1BC0982FDA
:10154000907FC1F0F8018583903F31F0982F907F14
:10155000905F8F70892B8583C8010E94660686E0A4
:10156000F801A1E2B2E001900D928A95E1F70E94A4
:10157000E708FDCE86E0F801A1E2B2E001900D920D
:101580008A95E1F7F4CEC8010E94CB06811175CF90
:1015900080912602816080932602C8010E9466061F
:1015A000E6CE7A2DB98AA88A6E2D89890E94D20644
:1015B00086E0F60111928A95E9F7D9CFEE2009F479
:1015C0006BCFC8010E94CB06F82E882309F464CFA4
:1015D00086E0F801A1E2B2E001900D928A95E1F770
:1015E00081E292E00E947A030E94F508C0CF81E078
:1015F0008E25D7CE1F93CF93DF93CDB7DEB72C9731
:101600000FB6F894DEBF0FBECDBF4F8358876987F2
:101610007A878B879C87CE0107960E94560988237C
:1016200069F08A859B85892B39F04F815885842FF5
:1016300085238F3F09F071C016E05FC086E0FE0190
:101640003796DE01119601900D928A95E1F78A8511
:101650009B85892B89F38F81988589238F3F61F33F
:101660002091F00130E0C9010196877099274091DF
:10167000EF014817190671F40E94A8061092F001B4
:101680001092EF0186E0E1E2F2E0DF011D928A951F
:10169000E9F7D2CF96E0929FD001939FB00D11242D
:1016A000AF50BE4FFE01319601900D929A95E1F731
:1016B0008093F0010E94C608BFCF819FC001112412
:1016C0008F509E4F0E9456098823E9F0E091EF0168
:1016D0001E9FF0011124EF50FE4F40815181628125
:1016E0007381848195810E94E1068091EF0190E0F1
:1016F0000196877099278093EF018091EF01909177
:10170000F0018913DACF2C960FB6F894DEBF0FBE26
:10171000CDBFDF91CF911F91089569857A858B8523
:101720009C850E94E10688CF682F809102019091EC
:1017300003010C945C1F682F8091020190910301BA
:101740000C94671F80910201909103010C94721F09
:10175000809127028595859585950895809127022A
:101760008770089590912702977081E009F480E0D6
:10177000089580914B02089590914B02892B80939C
:101780004B020895809590914B02982390934B02C1
:10179000089510924B02089590914A02892B8093EC
:1017A0004A020895809590914A02982390934A02A4
:1017B000089510924A020895109249020895809166
:1017C0002802089508950C94E20B9091570392FD1E
:1017D00008C090912802981721F0809328020C9459
:1017E000E30B089580912802882329F010922802A3
:1017F00080E00C94E30B0895E0910201F091030165
:1018000080914B028083E0910201F091030180817D
:1018100090914A02892B8083E0910201F0910301AB
:10182000808190914902892B80839091280299238D
:1018300081F0E0910201F09103018081892B808386
:1018400080910201909103010E94C81E81110E94A3
:10185000F20B80910201909103010C94741E089583
:101860000C942F0C9091570392FD10C098E0899F23
:1018700090011124622B609327020E9463078091DC
:1018800027028595859585950C94300C0C946307FB
:101890001092270280E00C94300C909127028095E2
:1018A000892380932702282F277091F4282F082E50
:1018B000000C330B9217130659F09091570392FDC9
:1018C00007C08595859585950E9484070C94480CE2
:1018D00008959091570392FB222720F9281769F069
:1018E00080FB92F990935703809156039091570390
:1018F0000E94B40C82E00C944D0C08958091570323
:1019000082FB882780F991E089270C94690C81E09B
:101910000C94690C80E00C94690C6FEF7FEF90E001
:1019200080E00C945D2C90E080E00E94392C21E056
:10193000893E9E4F09F020E0822F089582E090E0DA
:101940000C94312C83E090E00C94312CCF9384E004
:1019500090E00E94312CC82F82E290E00E94312C4E
:10196000982F8C2FCF910895CF93C92F682F84E0A3
:1019700090E00E943F2C6C2F82E290E0CF910C947B
:101980003F2CAB01BC018FE090E00C94512CAB01DB
:10199000BC0183E190E00C94512C60E070E0CB013D
:1019A0000C94C70C60E070E0CB010E94C10C0C9459
:1019B000CD0C69EE7EEF90E080E00E945D2C60E04F
:1019C00082E090E00E943F2C60E083E090E00E9483
:1019D0003F2C1092EB011092EC011092ED0110924D
:1019E000EE0160E084E090E00E943F2C60E082E243
:1019F00090E00E943F2C60E085E090E00E943F2C48
:101A000060E086E090E00E943F2C6FEF87E090E07E
:101A10000E943F2C40E050E0BA0188E090E00E9434
:101A2000512C60E08DE090E00E943F2C40E050E0BF
:101A3000BA0188E190E00E94512C60E087E190E0DB
:101A40000E943F2C40E050E0BA018CE190E00E94FF
:101A5000512C70E060E080E290E00E945D2C40E05C
:101A600050E0BA0188E190E00E94512C0C94D20C15
:101A70000C94D90C682F8EE090E00C943F2C0E94BF
:101A800020206093590270935A0280935B029093D6
:101A90005C026093550270935602809357029093B4
:101AA0005802089585B7806885BF85B7806885BF6F
:101AB0000895089508950C94590D08950C945D0DA2
:101AC0000E94520D86E490E10E94571E0E945A0D1A
:101AD0000C945B0D0C944F12089508950E946C0DA8
:101AE0000C946D0D0E940B200E9405100E943A116B
:101AF0000E940B1A0C945E0DAF92BF92CF92DF92B0
:101B0000EF92FF920F931F93CF93DF93CDB7DEB782
:101B10002A970FB6F894DEBF0FBECDBF0E94C51145
:101B200081110E943F0D8DE4A82E82E0B82E10E0B6
:101B300000E0C02E802F0E949010E82EF501F19059
:101B40005F01F81609F44FC080915D0281FD0E948B
:101B500096108F2D8E25D12CFF24F394982F9F2142
:101B6000E9F10E946A0D882399F0DE82CF82EF208E
:101B700081E009F480E088870E9414208160782F3A
:101B80009A8789874E815F8168858A850E943C0398
:101B9000F801E35BFD4F8081F826F0820E94F11886
:101BA0000E9435170E94611E90914C02891791F195
:101BB0000E94611E80934C022A960FB6F894DEBFF5
:101BC0000FBECDBFDF91CF911F910F91FF90EF908E
:101BD000DF90CF90BF90AF900C943403D394FF0C60
:101BE000F6E0DF12BBCF0F5F1F4F0830110509F081
:101BF000A0CF8FEF89838A831B820E94142081608B
:101C0000782F9D838C8349815A816B818D810E94BD
:101C10003C03C4CF2A960FB6F894DEBF0FBECDBFEB
:101C2000DF91CF911F910F91FF90EF90DF90CF90B8
:101C3000BF90AF900895CF93DF930E942B0FEC01DC
:101C4000811521E5920708F042C0811530E5930720
:101C500008F09DC0883E910530F5803E910508F062
:101C600092C0883A910588F4853A910508F084C0BD
:101C70008130910509F487C0009709F484C0049766
:101C800008F081C0D0E0C0E07EC08F3B9105D0F766
:101C9000C85AD0E0CC0FDD1FCB58DE4F0990D88159
:101CA000C02DD46470C08115904250F4C11581E0FC
:101CB000D80708F068C0CD3ED10520F3D06563C0D9
:101CC000C11590E4D907F0F2DF70D06A5CC08115CD
:101CD00025E5920700F5811534E5930708F08BC0E0
:101CE000811543E5940708F073C0C11582E5D80754
:101CF00008F469C0CE018370992721E030E002C06A
:101D0000220F331F8A95E2F7C695C69580E2C89FD9
:101D1000E001112454C0C11599E5D907A8F4C115F3
:101D200028E5D20708F06CC0C11536E5D30708F0E6
:101D3000A9CF8C2F0E94C20FC82FD0E0DC2FCC2758
:101D4000CC27DF71D0621FC0C1154AE5D40708F463
:101D50005CC0CE0190568115904208F093CF8D2F34
:101D60008F710E94C20F90E0982F882788279F715B
:101D70009C012C2BE901E6CFC55AD0E0CD55DE4FB2
:101D8000C881D0E0D064CE01DF91CF910895E4E026
:101D900096958795EA95E1F783702C2F26952695E1
:101DA000237040E2249F90011124382B8C2F8370E4
:101DB000C1E0D0E002C0CC0FDD1F8A95E2F7C22B54
:101DC000D32BDC68E0CFDC2FCC27C16FD06ADBCF10
:101DD0008370992721E030E002C0220F331F8A95DB
:101DE000E2F7C695C69590E2C99FE0011124C22B87
:101DF000D32BDA68C8CFD82FCC27C46FD06AC3CF13
:101E0000DC2FCC27C06FD06ABECF8C2F8F700E9482
:101E1000C20F34E0D695C7953A95E1F7CF709C2F65
:101E2000EC01D069B0CF972F70E026E0929F600D53
:101E3000711D1124FB0190E3899FE00DF11D112418
:101E4000EE0FFF1FE455FF4F8591949108950E9476
:101E5000130F0C941B0E82389105B1F1B0F481334D
:101E6000910509F475C048F48932910509F469C0F7
:101E70008A32910509F473C008958533910509F4F8
:101E800059C08933910501F10895833E9105A9F167
:101E900038F4803E9105F9F0823E910549F10895AC
:101EA000863E9105A9F1873E9105C9F1843E9105D1
:101EB00019F52091570321FF1FC08091560384FD1F
:101EC00014C087EE90E00895209156032370A1F08E
:101ED00080EE90E008952091560320FD47C0309198
:101EE000570330FF09C024FF44C090E080E004C0E5
:101EF0002091560322FDF7CF08952091560322FD2D
:101F00003BC03091570330FDE3CF24FFF5CFEDCF39
:101F10002091560323FFF0CF24FDE7CFD2CF2091AD
:101F2000560323FD2CC03091570331FFEECF84EED2
:101F300090E008952091560325FFDECF89E290E0DE
:101F400008952091560325FFD7CF85E390E00895AB
:101F50002091560326FFD0CF8AE290E00895209189
:101F6000560326FFC9CF81E390E0089589E390E00E
:101F7000089583EE90E0089582EE90E0089586EE55
:101F800090E008959091560392FF06C0282F287183
:101F90002830F9F4877F846093FF06C0282F2871CA
:101FA0002831F1F4877E84612091570320FF06C019
:101FB000382F38713830D9F4877F816021FF06C00F
:101FC000282F28712831D1F4877E816194FD877E86
:101FD0000895282F24712430F9F68B7F8860DCCF98
:101FE000282F2471243101F78B7E8861DDCF382FB3
:101FF0003171313019F78E7F8860E0CF282F217141
:10200000213121F78E7E8861E1CF10925203109228
:10201000530310925403109255030895CF92DF9208
:10202000EF92FF926B017C010E944F1281110EC052
:102030000E942020C61AD70AE80AF90AC092520361
:10204000D0925303E0925403F0925503FF90EF9027
:10205000DF90CF9008950F931F930E944F12882313
:1020600021F01F910F910C9420200E9420200091BC
:102070005203109153032091540330915503600F84
:10208000711F821F931F1F910F91089580E0089583
:102090000C948D0C0E94C5118FE39CE90197F1F718
:1020A00000C000000E94C5110E946712811109C082
:1020B00084E00E94901081FF06C00E9448100C949A
:1020C0007B2080E0F6CF08950C944A100E94930C78
:1020D000811102C00E94380D0E949E0C80935D0207
:1020E0000E94A60C90935703809356030E9464109D
:1020F0000E94A20C682F70E090E080E00E9401072F
:102100006091E7017091E8018091E9019091EA0105
:102110000C943B0708950C948A1008950C948D102C
:10212000E82FF0E0E05AFC4F80810895089580EA9E
:102130008A95F1F7089500C008950C949710F894CB
:10214000E82FE295EF70F0E031A1282F2F7081E0A9
:1021500090E001C0880F2A95EAF7982F9095932375
:1021600091A392A1892B82A37894089508950C9449
:10217000B610CF93DF9384E90E949F1086E60E94F9
:102180009F1087E90E949F1086EC0E949F10C6EA6C
:10219000D1E089918F3F11F00E949F1081E0CC3AED
:1021A000D807B9F7DF91CF910895CF92DF92EF92E0
:1021B000FF920F931F93CF93DF93EC01D62E062F40
:1021C00010E0C80184559E4F7C01FC0180818F3F47
:1021D00009F445C0F894E82FE295EF70F0E091A182
:1021E0008F7021E030E001C0220F8A95EAF7892F35
:1021F000822B81A382A12095282322A378940E9478
:102200009B10E6EAF1E04CEA51E031E0C12C21916B
:102210002F3F71F1A22FA295AF70B0E090968C91F4
:1022200090E02F7002C0959587952A95E2F780FD82
:102230001FC0832FC82A330F4E175F0741F7F701DE
:1022400080818F3F11F00E949F1061E0C11001C09A
:1022500060E08D2D0E949D10C00FD11FC882DF91BC
:10226000CF911F910F91FF90EF90DF90CF90089545
:1022700080E0E0CF0E946C12809104018091040103
:1022800094E0811190E09093690384E0891B80932E
:1022900068030E94B91088E0E0E6F3E0DF01982FC0
:1022A0001D929A95E9F7E8E5F3E0DF011D928A9522
:1022B000E9F784E00E9418120E94B0020C94761292
:1022C000EF92FF921F93CF93DF9300D000D0CDB752
:1022D000DEB70E944F12182F60916903882309F41A
:1022E00047C019821A821B821C82862F90E09E01B1
:1022F0002F5F3F4F7901B901805A9C4F0E94841291
:102300008823E9F08091680390E044E050E0B70151
:10231000805A9C4F0E941B2C21E020935E02892B47
:10232000C9F410E00E94B602812F0F900F900F9019
:102330000F90DF91CF911F91FF90EF9008958091C2
:102340005E02882371F384E0F70111928A95E9F720
:1023500010925E02E0916803F0E0E05AFC4F898140
:102360009A81AB81BC8180839183A283B383DACFCE
:1023700070E0605A7C4F8091680390E0805A9C4FD7
:102380000E9411130E94B710CFCFEF92FF920F93CC
:102390001F93CF93DF93CDB7DEB728970FB6F8948E
:1023A000DEBF0FBECDBF8E010F5F1F4F88E0F8016B
:1023B00011928A95E9F7F12C6F2DC8010E94D51072
:1023C000F394F4E0FF12F8CF48E050E0B80188E55C
:1023D00093E00E941B2C7C0121E0892B09F420E072
:1023E000E114F10441F088E0F801A8E5B3E00190C0
:1023F0000D928A95E1F76091690370E0605A7C4F15
:1024000044E088E593E00E94191281E090E0EF2813
:1024100011F40E94601128960FB6F894DEBF0FBE2B
:10242000CDBFDF91CF911F910F91FF90EF90089555
:102430000895FF920F931F93CF93DF93F82E092FE8
:10244000162FD72FC42F222349F081E080936102F9
:102450000E9414209093600280935F028091610239
:102460008823A1F080915F02909160020E942C204D
:10247000059760F0EF2DF02FA12FBD2FCE0FDF2F8E
:10248000D11DEC17FD0741F410926102DF91CF914D
:102490001F910F91FF90089581918D93F2CF8091BC
:1024A0006402811107C00E94E02B882351F081E073
:1024B0008093640281E090916402913009F080E0A1
:1024C000089582E0809364020E94DB2BF3CF0E9488
:1024D0004F1291E0892708950E94671280930401AA
:1024E0000E944F1281110C94BA1208950E944F124B
:1024F000811102C00C94BC12089581E09091650294
:102500009A3008F080E008950F931F93CF93DF93E4
:10251000EC018B01809165028A30B8F4B801CE01DC
:102520000E940F13C82F811122C0809165028F3F36
:10253000B9F40E94142090936302809362028C2F5E
:10254000DF91CF911F910F91089580916202909138
:1025500063020E942C20843F914000F7C0E0EFCF3F
:102560008F5F809365028A3020F7C1E0E8CF109238
:102570006502E5CF0C94961C0C94991CEF92FF9287
:102580000F931F93CF93DF937901C82F880FDD0B33
:1025900041155105A9F08AE08C9FF0018D9FF00D47
:1025A0001124EB5FFE4F838194818A599D4F2281D4
:1025B00030E04217530708F49A01A9010E94282C21
:1025C000CE010E94A31D892B11F501151105E9F01B
:1025D0008AE08C9FF0018D9FF00D1124EB5FFE4F80
:1025E000458150E00417150708F4A8018AE08C9F84
:1025F000F0018D9FF00D1124EB5FFE4F6681778116
:102600006A597D4FC7010E94282C81E001C080E0FB
:10261000DF91CF911F910F91FF90EF9008950C944F
:102620002F140C944B140F931F93CF93DF9300D070
:1026300000D0CDB7DEB760917B0270917C028091B3
:102640007D0290917E020E943B2011E0643671056C
:102650008105910518F10E942B106E5F7F4F8F4FFF
:102660009F4F69837A838B839C8310E000E030E086
:1026700020E044E050E0BE016F5F7F4F82E00E94A7
:10268000BE12182F882351F00E94202060937B02F5
:1026900070937C0280937D0290937E02812F0F9035
:1026A0000F900F900F90DF91CF911F910F91089590
:1026B000AF92BF92CF92DF92EF92FF920F931F9350
:1026C000CF93DF9300D000D00F92CDB7DEB75B0180
:1026D000E090B401F090B50101E010E09E012B5FA5
:1026E0003F4F50E040E070E060E080E00E94BE12AA
:1026F000182F882309F44BC067018FEFC81AD80A36
:1027000060917702709178028091790290917A02BB
:102710000E943B20643671058105910580F104E03B
:1027200010E09E012F5F3F4F50E040E070E060E01E
:1027300081E00E94BE12F82E64E070E0C6010E94A3
:102740000C1A11E09D81981310E01F2159F10E948D
:10275000202060937702709378028093790290939F
:102760007A0289819A81AB81BC81809373029093B4
:102770007402A0937502B093760211E013C064E076
:1027800070E0C6010E940C1A9D818913C8CFF70121
:1027900081819281A381B48189839A83AB83BC8335
:1027A0001111DFCF8091730290917402A091750294
:1027B000B0917602F50180839183A283B383812F48
:1027C0000F900F900F900F900F90DF91CF911F916E
:1027D0000F91FF90EF90DF90CF90BF90AF90089552
:1027E000AF92BF92CF92DF92EF92FF920F931F931F
:1027F000CF93DF937C015B016A010E947D1201E0AF
:1028000010E0882311F00AE010E0C1E0D0E0F89475
:10281000B501C701F60109957894811104C021968C
:102820000C171D075CF4DF91CF911F910F91FF9062
:10283000EF90DF90CF90BF90AF900895CC9F900124
:10284000CD9F300D300D112490E080E045E34A9596
:10285000F1F70000019682179307C1F7D8CF0F93C5
:102860001F93CF93DF93EC018B0148E553E10E9466
:10287000F013882351F043E153E1B801CE01DF9119
:10288000CF911F910F910C94F01380E0DF91CF91C5
:102890001F910F9108950F931F93CF93DF93F89497
:1028A000C091B401D091B501CE01019624E0FB01A5
:1028B000DC0101900D922A95E1F764E070E00E943E
:1028C0000C1A88837894F8946D817E818F81988525
:1028D00000916F021091700220917102309172028A
:1028E000601771078207930751F060936F0270932E
:1028F000700280937102909372020E940E1078947D
:10290000DF91CF911F910F9108950E945D260E9443
:10291000720D0C9469260E946D260E947C0D0C9409
:1029200087260E949E1F0E9442260E94600D0E94E0
:1029300085140E948B140E946E0DFBCF84E080935F
:102940006B038FE780936C0380916D0380788064C4
:1029500080936D03E3E8F2E08FEF8193DF01A95BE1
:10296000BF4F1C9292E0EB3CF907B9F7109282023C
:10297000109281021092800210927F02089590912D
:102980006B03292F2F7095959595959595959F5249
:102990003CE0239F900D1124890F0895EF92FF9240
:1029A0001F93CF93DF93FB018F3A2CE5920708F03A
:1029B00085C08F394CE5940708F099C180395CE5F2
:1029C000950750F583382CE5920708F04CC1813803
:1029D0004CE5940760F487375CE5950708F02BC158
:1029E0008F322CE5920708F0DFC0D1E01DC181389D
:1029F0004CE5940709F42CC182389C45B1F78281DB
:102A0000882309F4FBC080916B03982F9F70993045
:102A100008F0F4C09F5F25C18D392CE59207A0F521
:102A200082394CE5940708F03BC180395CE5950795
:102A300009F424C181399C45C1F68281882309F4B7
:102A4000DDC020916B03822F8595859585958595B1
:102A500086300CF0D3C091E0980F9295907F9595B9
:102A6000959595959595392F3295307F2F70232B1D
:102A700020936B0318160CF0C1C097FFBFC082955E
:102A8000807F922F9F70E0C08D394CE5940709F448
:102A900015C18E399C4509F0A8CF8281882309F49D
:102AA000ADC080916C03982F9F779F3709F4A6C023
:102AB000933708F01AC1935F9F77FEC0853B2CE5E2
:102AC000920709F472C1C8F5813B5CE5950709F4EA
:102AD0003EC1D8F48F3A4CE5940709F41AC1803B03
:102AE0009C4509F082CF8281882309F487C0209118
:102AF0006C03322F331F3327331F90916D03892FBF
:102B00008770880F832B8F5F15C160916C033091A4
:102B10006D032281833BECE59E0709F43AC108F47A
:102B20002CC121112FE7862F881F8827881F632F2C
:102B30006770660F682B42E41BC1883B2CE5920747
:102B400009F446C180F4863B5CE5950709F42DC184
:102B5000873B9C4509F049CF8281811137C18FEFB6
:102B6000809381024BC08A3B4CE5940709F466C10F
:102B700008F44FC18B3B9C4509F037CFD28160915F
:102B80006C03862F881F8827881F60916D036770EC
:102B9000660F682BDD2309F461C14FEF5FE183E726
:102BA00093E00E94E9202AC010916C03212F221F7C
:102BB0002227221FC0916D03C770CC0FC22B1F7735
:102BC000D28121ED280F30E0A9014D575D4F7A01E8
:102BD000DD23C1F00E94BF14D82F212F482F6C2F66
:102BE00083E793E00E94C920F701E85BFF4F8081F3
:102BF0008F5F8083F70180818F3F11F0D0E014C098
:102C0000D083FCCFFA014081E85BFF4F8081815087
:102C100080838111F3CF212F6C2F83E793E00E94F3
:102C2000D9208FEFF70180838D2FDF91CF911F91F6
:102C3000FF90EF9008952281222301F38757982F68
:102C40009F7080916B03807F892B80936B03D6CF1D
:102C50008281882399F280916B03982F9F7071F283
:102C6000915F9F70F0CF2281222341F28958982FE3
:102C70009295907F80916B038F70E6CF828188233D
:102C800009F4BCCF80916B03982F959595959595F8
:102C900095959B3F0CF4B2CF915F9295907FECCFCE
:102CA0002281222309F4AACF82599CE0899F902D8A
:102CB00011249F7780916C03807815C082818823CE
:102CC00009F49CCF80916C03982F9F7709F496CFDD
:102CD00080789F3721F4856780936C038FCF9D3078
:102CE000D8F39D509F77892BF7CF8F67F5CF22813F
:102CF000222309F483CF8F5990916C0380FB97F9BD
:102D000090936C038695877090916D03987F892BC3
:102D10007DC08281882309F471CF20916C03322F0A
:102D2000331F3327331F90916D03892F8770880FCE
:102D3000832B815F382F3F7080FB27F920936C0332
:102D4000832F8695987F982B90936D0357CF828120
:102D5000882309F453CF60916C03862F881F88273E
:102D6000881F60916D036770660F682B20E04BE74A
:102D700083E793E00E94B92041CF21112FE7862FEE
:102D8000881F8827881F632F6770660F682B40E4B1
:102D9000EFCF21112FE7862F881F8827881F632FE9
:102DA0006770660F682B41E4E3CF828120E08111D8
:102DB0002FE760916C03862F881F8827881F6091FA
:102DC0006D036770660F682B43E4D2CF81E0C8CEF5
:102DD0008281882309F412CF90916D03292F2695C3
:102DE000269526952F7081E0820F8F70880F880FAF
:102DF000880F9778892B80936D03982F987709F027
:102E0000FDCE220F220F220F8778822B80936D0335
:102E1000F5CE8281882309F4F1CE80916D03982F3D
:102E2000987709F4EBCE982F969596959695915FA5
:102E30009F70990F990F990F877869CFD281609110
:102E40006C03862F881F8827881F60916D03677029
:102E5000660F682B40E050EED111A1CE50E040E06B
:102E600083E793E00E94E920DFCE83E793E00E94AE
:102E7000EB2280917F02909180020E942C20209171
:102E80006D032695269526952F702817190609F0AB
:102E9000A0F50E9414209093800280937F0280917D
:102EA0008102882351F160916C03862F881F882747
:102EB000881F60916D036770660F682B20918202F6
:102EC00041E083E793E00E94B920809181029091D4
:102ED000820287FF0DC0482F552741950CF450956D
:102EE000941715062CF41092820210928102089514
:102EF000890F87FD03C08093820208958FE7FBCF7F
:102F00008091190380FF12C06091280185E0689FBD
:102F1000B0011124759567957595679560387105B1
:102F2000A8F561157105A1F1862F089581FF09C0EB
:102F30006091280185E0689FB0011124759567951F
:102F4000EDCF6091280182FD0AC08091180388238B
:102F5000D1F09091270160912801891728F085E030
:102F6000689FB0011124DACF869FB001112485E05B
:102F7000869F9001879F300D1124692F70E0C90151
:102F80000E94012CCBCF65E070E0CECF8FE7089593
:102F900081E008958091190380FF0CC060912401A5
:102FA00070E075956795759567956115710549F19F
:102FB000862F089581FF06C06091240170E0759509
:102FC0006795F3CF6091240182FD0BC090911703A8
:102FD0009923A1F06091230180912401961738F084
:102FE000682F70E06038710500F38FE70895899FBE
:102FF000C001112470E00E94012CF4CF61E070E068
:10300000D7CF81E008958D3E31F40E9480178195DD
:1030100080931D0308958E3E19F40E948017F8CF07
:103020008F3E31F40E948017819580931C03089590
:10303000803F19F40E948017F8CF893F29F40E943D
:10304000CA1780931E0308958A3F21F40E94CA176D
:103050008195F7CF8B3F31F40E94CA1781958093F9
:103060001F0308958C3F19F40E94CA17F8CF9FE000
:10307000980F983070F4815F990B21E030E001C027
:10308000220F8A95EAF780911B03822B80931B0302
:1030900008958D3F31F48091190381608093190365
:1030A00008958E3F21F4809119038260F7CF8F3FFE
:1030B000B9F7809119038460F1CF40911C038D3ED4
:1030C00059F480911D0387FF0DC010921D0341111B
:1030D0000BC01092180308C08E3E81F480911D032E
:1030E00018169CF3442381F080911E0390911F03D6
:1030F000892B09F05AC01092170308958F3E49F4A6
:1031000047FFF0CF10921C0380911D038111ECCF7B
:10311000E0CF803F19F41416ACF3E4CF90911E0376
:10312000893F29F41916F4F610921E03DBCF8A3F6B
:1031300019F497FFD7CFF8CF90911F038B3F29F455
:1031400097FFD0CF10921F03CDCF8C3F19F41916E3
:10315000CCF3C8CF9FE0980F983090F4815F990B23
:1031600021E030E0B90102C0660F771F8A95E2F7CF
:10317000CB01809590911B03892380931B03B2CFD1
:103180008D3F31F4809119038E7F80931903AACF6C
:103190008E3F21F4809119038D7FF7CF8F3F09F087
:1031A000A1CF809119038B7FF0CF08950E94142046
:1031B0009C0190911C0380911D03982B21F030936A
:1031C00016032093150390911E0380911F03982BE3
:1031D00021F030931403209313038AE193E00C94BD
:1031E0008E1EEF92FF920F931F93CF93DF9300D029
:1031F00000D000D0CDB7DEB786E0EAE1F3E0DE0133
:10320000119601900D928A95E1F7E0901C03F090E1
:103210001D0300911E0310911F0310921C031092B6
:103220001D0310921E0310921F038E2D8F2991F003
:1032300080911503909116030E942C20AC0190916F
:103240001803992309F43FC08091290184171506BA
:1032500008F447C0802F812B91F080911303909147
:1032600014030E942C20AC0190911703992309F4B8
:1032700077C0809125018417150608F47FC08091DE
:103280001C0390911D03892B90911E03892B909113
:103290001F03892B11F00E94D61886E0FE0131969B
:1032A000AAE1B3E001900D928A95E1F726960FB658
:1032B000F894DEBF0FBECDBFDF91CF911F910F916C
:1032C000FF90EF90089520912A018AE0289F9001B5
:1032D00011242417350708F0BDCF9F5F9093180382
:1032E00002C09F3FD1F7EE2059F00E9480179FEF58
:1032F0001E140CF491E0899F802D112480931C03EF
:10330000FF2059F00E9480179FEF1F140CF491E0EA
:10331000899F802D112480931D0330911C0333233A
:1033200009F498CF20911D03222309F493CF45EB94
:103330003403C0011124992359F090931C0345EBE9
:10334000240390011124332339F030931D0382CFDD
:1033500081E080931C03F3CF81E080931D037ACF3B
:10336000209126018AE0289F900111242417350717
:1033700008F085CF9F5F9093170302C09F3FD1F75E
:10338000002359F00E94CA179FEF10160CF491E029
:10339000899F802D112480931E03112359F00E94D0
:1033A000CA179FEF11160CF491E0899F802D11240C
:1033B00080931F0330911E03332309F460CF2091C3
:1033C0001F03222309F45BCF45EB3403C001112412
:1033D000992359F090931E0345EB24039001112487
:1033E000332339F030931F034ACF81E080931E03CB
:1033F000F3CF81E080931F0342CF86E0EAE1F3E060
:10340000DF011D928A95E9F71092180310921703B5
:103410001092190308950895FC01680F791F8FEF2A
:1034200091E36E177F0709F408952191822728E020
:1034300030E087FF06C0880F892721503109C9F77E
:10344000F0CF880FFACFCF93DF93EC01FB0182819D
:10345000882309F420C1C430FDE5DF07C8F5CB3F60
:103460009CE5D90730F49E0122503C4524313105BA
:1034700098F50E94A60C9093570380935603C03191
:10348000FCE5DF0709F4E0C008F061C0C8309CE546
:10349000D90709F4CBC088F5C430FCE5DF0709F48F
:1034A000B3C0E8F4C2309CE5D90709F4A7C0809105
:1034B00056038260C330DC4509F4A3C080915603F3
:1034C000909157030E94B40C0E94A80680E004C0AB
:1034D000C236EDE5DE0769F2DF91CF910895809164
:1034E00056038061C630FCE5DF0709F48AC008F4A2
:1034F0008FC080915603806284C0809156038D7F77
:10350000CC309CE5D90709F47CC070F48091560357
:103510008C60CA30FCE5DF0709F473C008F48AC088
:10352000809156038E7F6DC080915603877FCE3089
:103530009CE5D90709F465C0809156038B7FCF3095
:10354000DC4508F45EC0809156038F7E5AC0CD3FA3
:10355000FCE5DF0709F474C040F5C4319CE5D907E8
:1035600009F48AC058F4C231FCE5DF0709F474C0DD
:1035700008F46EC080915603837F43C0CB3F9CE527
:10358000D90709F449C008F04DC0C531DC4509F040
:1035900095CF8091560382FB992790F921E09227DD
:1035A00090FB82F990FB83F92CC0C1308DE5D807E0
:1035B00009F458C088F4809157038360CF3FECE54D
:1035C000DE0769F1809157038D7FC115DD4538F124
:1035D000809157038C7F23C0C3308DE5D80709F451
:1035E00058C008F452C0C236DD4509F067CF90914B
:1035F0005603892F8F7E94FF806103C0809156030C
:103600008160809356035ACF809156038460F9CF2E
:10361000809156038860F5CF809157038160809335
:1036200057034CCF809157038260F9CF80915603A6
:103630008064E7CF0E94A806809156038068E1CF9E
:10364000809157038E7FEBCF809156038F7DD9CF2A
:10365000809156038F7BD5CF0E94A8068091560398
:103660008F77CFCF80915703982F909591708E7F51
:10367000892B90FB81F9D3CF0E94A8069091560325
:10368000892F97FB87F98058BCCF81E00E943A0DC3
:1036900015CF80E0FBCF81E01FCFCF93DF93EB010D
:1036A00086319C4511F50E94B90B9A81992399F0B6
:1036B0008A7A91E009F490E090932003811109C087
:1036C00089E20E94940B0E94FC0B80E0DF91CF9175
:1036D000089585E3F6CF80912003811104C089E22B
:1036E0000E949B0BF0CF85E3FBCF81E0EFCF0F93E0
:1036F0001F93CF93DF93C42FD22FFC0182818823A5
:10370000C9F0409323030E941420909322038093D6
:10371000210380E28C0F883008F050C0C77081E030
:1037200001C0880FCA95EAF7DF91CF911F910F91E1
:103730000C941B0410912303141335C080912103B2
:10374000909122030E942C20883C910560F5C0E2F4
:10375000CD0F1D17B9F080E2810F883040F417704B
:1037600081E001C0880F1A95EAF70E942204C83050
:1037700048F481E09D2F977001C0880F9A95EAF771
:103780000E941B04802F0E941304C830B8F4D77025
:1037900081E001C0880FDA95EAF7DF91CF911F91A0
:1037A0000F910C94220480E28C0F883038F4C7709B
:1037B00081E001C0880FCA95EAF7EFCFDF91CF9182
:1037C0001F910F9108950F939C01CB01243F4CE56D
:1037D000340759F1A8F4293DFCE53F0701F12A3DE2
:1037E0004CE53407D1F1283D3C4591F406E221EE49
:1037F00041EE68ED7CE50E94771B80E00F91089513
:10380000263FFCE53F07E9F0B0F0273F3C45F9F0E3
:10381000FC018281882339F110922303EFCF07E264
:1038200025EE45EE69ED7CE5E6CF06E221EE40EEC1
:1038300064EF7CE5E0CF07E225EE44EE65EF7CE542
:10384000DACF06E221EE42EE66EF7CE5D4CF07E266
:1038500025EE46EE67EF7CE5CECF08E221E045EEAF
:103860006AED7CE5C8CF81E0C9CF8EE14A9B02C0FA
:103870008150E1F74A9BFECF08955A9880E28A95DD
:10388000F1F75A9A0895FC013BE03A95F1F798E078
:1038900020E080E031E040E14A95F1F7880F4A9B53
:1038A00002C08160232742E04A95F1F7000040E121
:1038B0004A95F1F7915079F790E19A95F1F799B11E
:1038C00032E03A95F1F7000040E14A95F1F792FBBA
:1038D000992790F992272081920F90830895EF9273
:1038E000FF920F931F93CF93DF930F92CDB7DEB765
:1038F00019828C017C01E60EF11C0E151F0561F486
:1039000081E09981911180E00F90DF91CF911F911B
:103910000F91FF90EF9008950E94351CCE01019603
:103920000E94431CF80181938F01E7CF529A5A9A63
:10393000089552985A9AEA9AE9E6F0E080818F7CDD
:10394000808308956150770B91E001C0990F6A95CB
:10395000EAF720E031E0911108C0222391F05A9A51
:1039600080E28A95F1F75A980895492F482339F053
:103970005A9A232740E24A95F1F79695ECCF5A9848
:10398000F9CF5A98EDCFFF920F931F93CF93DF9308
:10399000EC018C01060F111DC017D10731F4DF9126
:1039A000CF911F910F91FF900895F9900E943D1CB7
:1039B00068E08F2D0E94A21CEFCF1F920F920FB6CE
:1039C0000F921124EF92FF920F931F932F933F9327
:1039D0004F935F936F937F938F939F93AF93BF9317
:1039E000EF93FF93CF93DF930F92CDB7DEB719829A
:1039F0000E94351CCE0101960E94431CA82FA6955B
:103A0000A695A695282F229525709A2F9570290F97
:103A1000922F937026952695920F982797708981FB
:103A2000982B09F075C0A43008F072C080E18A9527
:103A3000F1F75A9A529AB2E0BA95F1F700C05A9843
:103A4000EA2EF12CEAE0AE9FD0011124AB5FBE4F0D
:103A50001896ED91FC9119973097B1F06091B401EF
:103A60007091B50116962D913C911797260F371F2F
:103A700013968D919C911497680F791F15964C9110
:103A8000159712968C9109958AE08E9DF0018F9D75
:103A9000F00D1124EB5FFE4F6581662351F02091FC
:103AA000B4013091B50186819781820F931F0E94E6
:103AB000C31C0E943D1CF0E1FA95F1F75A98529808
:103AC0005A9A80E18A95F1F78AE08E9D80018F9D58
:103AD000100D11240B5F1E4FD80112966C91129796
:103AE000662371F12091B4013091B50113968D9147
:103AF0009C91820F931F0E946F1CD801ED91FC9145
:103B0000882311F088E001C082E080830E94351C88
:103B10000F90DF91CF91FF91EF91BF91AF919F9166
:103B20008F917F916F915F914F913F912F911F9155
:103B30000F91FF90EF900F900FBE0F901F90189570
:103B4000ED91FC91DFCF0F931F93CF93DF93EC01A7
:103B500004970CF0A9C08AE08C9FF0018D9FF00DB6
:103B60001124EB5FFE4F80819181892B09F49CC069
:103B7000F894529A5A9885E08A95F1F700008C2FB4
:103B8000869585709C2F9570890F982F93708695D8
:103B90008695890F8E0193E0000F111F9A95E1F72A
:103BA000082B0E943D1C00C068E0802F0E94A21CD0
:103BB000A0E1AA95F1F752985A9A4A9B27C087E04C
:103BC00090E04A9925C08AE08C9F80018D9F100D5E
:103BD00011240B5F1E4FF80165816623A1F120912E
:103BE000B4013091B50186819781820F931F0E94A5
:103BF0006F1C811128C0529A5A9AD801ED91FC91FC
:103C000082E08083789482E090E016C000C0D5CF37
:103C10000197B9F4529A5A9A8AE08C9FF0018D9FCD
:103C2000F00D1124EB5FFE4F0190F081E02D81E05B
:103C30008083789481E090E0DF91CF911F910F9184
:103C4000089500C0BECF0E94351CB0E2BA95F1F7CE
:103C50005A98529AE0E1EA95F1F78AE08C9FF001D8
:103C60008D9FF00D1124EB5FFE4F6281662351F0B2
:103C70002091B4013091B50183819481820F931F0B
:103C80000E94C31C0E943D1C8AE08C9FF0018D9F06
:103C9000F00D1124EB5FFE4F0190F081E02D1082BA
:103CA000789490E080E0C8CF84E090E0C5CF909316
:103CB000C7018093C601089590932A038093290336
:103CC00008950E944F12811103C08091240308952A
:103CD000E0912903F0912A03309721F00190F081BF
:103CE000E02D099480E00895E0912903F0912A03E2
:103CF000309799F020914301222359F020915603E7
:103D000027FF07C0DC012C9111962C93119726E018
:103D10002C930280F381E02D09940895E09129030A
:103D2000F0912A03309739F022E0DC012C930480D3
:103D3000F581E02D099408952091270330912803FF
:103D40002817390771F09093280380932703E09197
:103D50002903F0912A03309721F00680F781E02DA6
:103D600009940895209125033091260328173907D7
:103D700071F09093260380932503E0912903F0913D
:103D80002A03309721F00084F185E02D09940895ED
:103D9000FC01329680914301882321F080915603E3
:103DA0009EE187FF96E080E0915008F4089521910C
:103DB0002223D1F38F5FF8CF662301F120914301D5
:103DC0002223F1F02091560327FF1AC0462F469573
:103DD000469546954E3190F4677021E030E002C080
:103DE000220F331F6A95E2F7840F911DFC01828137
:103DF00090E02823392381E0232B69F480E00895A3
:103E0000FC01329608962191261721F0E817F90750
:103E1000D1F7F4CF81E008959C01FC0132969FEF29
:103E200080E04191461751F09F3F19F4411101C0C4
:103E3000982F8F5F8630A9F79F3F09F40895290FC7
:103E4000311D97FD3A95F90162830895FC01329680
:103E500008962191261303C0DF0111971C92E817E1
:103E6000F907B9F70895E62FE695E695E695EE3160
:103E700068F4E80FF92FF11D677021E030E001C010
:103E8000220F6A95EAF78281822B82830895E62FBA
:103E9000E695E695E695EE3170F4E80FF92FF11D01
:103EA000677021E030E001C0220F6A95EAF72095A3
:103EB000828128232283089520914301222329F01F
:103EC0002091560327FD0C94331F0C940C1F209156
:103ED0004301222329F02091560327FD0C94471F0C
:103EE0000C94261FFC01329680914301882351F0E7
:103EF0008091560387FF06C08EE1DF011D928A95EF
:103F0000E9F7089586E0F9CF08950C94841F811194
:103F100005C081E080932B030C94851F82E0FACFCB
:103F200083E080932B030C94851F0C94871F81E002
:103F300080932B030C94851F0C94971F08958091F8
:103F40006404843031F10E94B80210922C0388E19D
:103F500090E020E40FB6F894A895809360000FBE1F
:103F60002093600083B7817F846083BF83B78160C3
:103F700083BF7894889583B78E7F83BF0FB6F894FC
:103F8000A895809160008861809360001092600025
:103F90000FBE089508950895CF930E94CA1F0E94EE
:103FA000C5110E94CB1FC0E08C2F0E949010811180
:103FB00005C0CF5FC830C1F7CF91089581E0FCCF35
:103FC0000E94A8060C9426031F921FB61F9211246C
:103FD0008F939F93AF93BF9380912C03811113C054
:103FE00080916F0390917003A0917103B09172035F
:103FF0004196A11DB11D80936F0390937003A09310
:104000007103B0937203BF91AF919F918F911F90F5
:104010001FBE1F90189582E084BD93E095BD9AEF76
:1040200097BD80936E0008952FB7F89480916F0329
:1040300090917003A0917103B09172032FBF089506
:104040002FB7F89460916F037091700380917103A2
:10405000909172032FBF08959C014FB7F8948091FF
:104060006F0390917003A0917103B09172034FBFE1
:10407000821B930B0895CF92DF92EF92FF922FB79E
:10408000F894C0906F03D0907003E0907103F090AB
:1040900072032FBFA7019601261B370B480B590B44
:1040A000CA01B901FF90EF90DF90CF900895789406
:1040B0001F921FB61F9211248F939F93AF93BF93AC
:1040C00080916F0390917003A0917103B09172037E
:1040D0000196A11DB11D80936F0390937003A0936F
:1040E0007103B0937203BF91AF919F918F911F9015
:1040F0001FBE1F90189587E797E79093010880935C
:10410000000888E19AE00FB6F894A89580936000C3
:104110000FBE90936000FFCF881F8827881F0895E7
:1041200091E0883F08F490E0892F0895982F907FC0
:10413000903BE9F040F49039D1F0903AC1F09038DA
:10414000B1F080E00895903D19F020F4903CC9F75B
:1041500082E00895903E59F0903F99F7815F8F304B
:1041600080F7E82FF0E0EA54FE4F8081089583E065
:1041700008950F93022F0F77242F2F776F70462FFC
:10418000406BDC01ED91FC9163E070E009950F91CB
:1041900008950F93022F0F77242F2F776F70462FDC
:1041A0004069DC01ED91FC9163E070E009950F91AD
:1041B00008950F93022F0F77242F2F776F70462FBC
:1041C0004068DC01ED91FC9163E070E009950F918E
:1041D00008950F931F93411520E2520744F49A016A
:1041E000305E4115504E2CF430E020E002C02FEF3D
:1041F0003FE38901000F012F001F110B11952F774D
:104200006F70462F406EDC01ED91FC9163E070E031
:1042100009951F910F910895FC017383628308959E
:10422000FC01758F648F0895CF93DF93EC011DA27D
:104230001FA21EA2BC01685D7F4F40EC88519F4FBA
:104240000E941F231B821A821D821C821F821E82D3
:10425000198618861B861A861D861C861F861E8652
:10426000198A188A1B8A1A8A1D8A1C8A1F8A1E8A22
:10427000198E188E1B8E1A8E1D8E1C8E1F8E1E8EF2
:1042800019A218A2DF91CF910895EF92FF920F9398
:104290001F93CF93DF93EA018A01060F111D885106
:1042A0009F4F7C01C017D10739F4DF91CF911F9147
:1042B0000F91FF90EF9008956991C7010E94262306
:1042C000F1CFFC01718360830895FC0171A360A3A9
:1042D0000895AF92BF92CF92DF92EF92FF920F9329
:1042E0001F93CF93DF9300D00F92CDB7DEB77C0141
:1042F0006B01142FB22EA02EDC0195968C91959710
:104300008430A9F55A96ED91FC913097E9F1CB01F3
:10431000019763E070E00E94ED2BCB01880F991F9D
:10432000860F971F4983BA820B834C2D481B9E0131
:104330002F5F3F4FBC01C7010995D7015E96ED91F4
:10434000FC91309731F00A2D2B2D412FB601C7017A
:1043500009950F900F900F90DF91CF911F910F91C2
:10436000FF90EF90DF90CF90BF90AF9008956230B4
:10437000710509F455C06330710599F0613071051C
:1043800009F481C0D12CC12CD7015C96ED91FC9130
:10439000309799F20A2D2B2D412FB601C7010995AF
:1043A000CCCF842F807F803A11F148F48038D1F04F
:1043B000803951F7D7011496ED91FC910AC0803EE7
:1043C000D9F0803FF1F0803BF9F6D7011296ED91DC
:1043D000FC913097C9F2123FE9F02A2D4B2D612F45
:1043E0006F701BC0D7011696ED91FC91F2CFD701EB
:1043F0001896ED91FC91EDCFD7011A96ED91FC91B5
:10440000E8CF423F09F6D7011C96ED91FC91309719
:1044100009F4BACF2A2D4B2D62EFC70109958DCF34
:10442000842F807F803DB1F0803FC9F0803C09F04F
:10443000ABCFD7011E96ED91FC91309709F4A4CF34
:10444000812F8D7F4B2D612F6F70813F89F0C701C8
:10445000099573CFD7015096ED91FC91EECF433F74
:1044600051F4D7015296ED91FC91309709F48CCF1D
:104470004B2D612FECCF413F09F086CFD7015496E9
:10448000ED91FC91F2CF842F0E949020882359F067
:10449000D7015696ED91FC91309709F475CF612FB5
:1044A000C70109954ACF163F09F06ECFD70158963C
:1044B000ED91FC91F1CFFF920F931F93CF93DF9378
:1044C000EC01162F862F0E949020882391F0FDA0EA
:1044D00081E08DA300E020E0412F61E070E0CE019B
:1044E0000E946921FDA2DF91CF911F910F91FF9052
:1044F0000895812F0E948C204DA1882309F443C088
:10450000443029F01AA381E090E09FA38EA3812F6D
:104510000E949620813051F08823A9F0823089F0E2
:10452000833079F01DA21FA21EA2DDCF8DA300E073
:1045300020E0412F61E070E0CE010E9469211DA2C0
:10454000D2CF8DA3D0CF103FB1F0173F59F72EA196
:104550003FA1C90163E070E00E94ED2BFE01E80F6E
:10456000F91F12A3B9016F5F7F4F7FA36EA30CA148
:104570002BA14AA1E1CF84E08DA31AA381E090E0B2
:104580009FA38EA3B0CF442309F4ADCF2EA13FA1AA
:10459000C90163E070E00E94ED2BFE01E80FF91FF6
:1045A00012A3B9016F5F7F4F7FA36EA38130910586
:1045B00069F0029709F097CF0CA12BA14AA1CE0177
:1045C0000E9469218DA18430C9F68DCF00E0423070
:1045D00009F089CFF2CFCF92DF92EF92FF920F9343
:1045E0001F93CF93DF93EC01E8A1F9A1309709F075
:1045F00009956E0188EEC80ED11CC6010E94552394
:1046000010E000E0E82EF12C0E151F0548F0DF91B8
:10461000CF911F910F91FF90EF90DF90CF90089571
:1046200060E0C6010E946923682FCE010E945B22D0
:1046300061E0C6010E9479230F5F1F4FE5CFFC01A7
:104640004283748363831182108208951F93CF93F2
:10465000DF93EC01162F0E949023482F298130E030
:10466000C90101966A8170E00E94012C5881581797
:10467000190641F4842F0E94932380E0DF91CF91AB
:104680001F9108958B819C81280F391FF901108398
:10469000898190E001966A8170E00E94012C8983F3
:1046A000842F0E94932381E0E9CFCF93DF93EC0125
:1046B0000E94902399812881921740F0C92FC21B34
:1046C0000E9493238C2FDF91CF910895CA819C0F74
:1046D000F5CFFC018081860F9927991F628170E0D8
:1046E0000E94012C23813481280F391FF901808118
:1046F00008951F93CF93DF93EC01162F0E94902310
:10470000282F8881810F9927991F6A8170E00E9464
:10471000012C8883822FDF91CF911F910C949323DA
:104720008FB7F89408958FBF0895089508950F9353
:104730001F93CF93DF9300D000D000D00F92CDB75E
:10474000DEB78C01CE0101960E943D2681110BC07F
:1047500027960FB6F894DEBF0FBECDBFDF91CF9185
:104760001F910F9108958A810E9496209A819D83BE
:104770009B819E839C819F8381110AC089818430A3
:1047800079F0873069F0863069F08530D9F681E0BC
:10479000AE014B5F5F4F682FC8010E944521D2CF09
:1047A00083E0F6CF82E0F4CFDF92EF92FF920F9397
:1047B0001F93CF93DF9300D000D0CDB7DEB77B013E
:1047C000142FD22E4A832B830C83842F0E94962091
:1047D000811129C082E0E816F10401F183E0E816B6
:1047E000F10439F0EA94EF2869F485E0173F21F4E9
:1047F00004C087E0073F09F084E08983CE01019679
:104800000E9438260F900F900F900F90DF91CF915C
:104810001F910F91FF90EF90DF90089587EFD812CE
:10482000EBCF86E0EACF12951F701983E7CF0E9485
:104830009E1483E793E00E94142164ED73E283E702
:1048400093E00E94612167E973E283E793E00E94AD
:10485000652165E973E283E793E00E94102166E930
:1048600073E283E793E00C940C219B014091640474
:104870004430C1F4FC0191819F709093E90050E0B5
:1048800040E064E070E0C9010E94FB2681110BC08A
:104890009091E80095FD07C09091E8009E77909375
:1048A000E800089582E0089520916404243091F492
:1048B000FC0181818F708093E9009091F3008091D9
:1048C000F200892B49F08091E8008E778093E80010
:1048D0000C94A92882E0089580E00895FC0180915D
:1048E0006404843059F491819F709093E900809121
:1048F000E80080FF03C0CF010C94542408959B016D
:1049000040916404443011F080E00895FC019681E8
:104910009F709093E9008091E80082FFF5CF80912D
:10492000E80085FFF1CF50E040E064E070E0C901AD
:104930000E944A278091E80085FD05C08091E8002B
:104940008B778093E80081E008958091500308956B
:1049500008959C0182E08093E9009FEF8091E80038
:10496000915085FD06C085ED8A95F1F70000911103
:10497000F5CF8091E80085FF0CC050E040E066E094
:1049800070E0C9010E94FB268091E8008E77809339
:10499000E8000895CF93DF93EC01809143018823D1
:1049A000B1F18091560387FF32C060E282E08093CC
:1049B000E9008FEF9091E800815095FD06C095EDDC
:1049C0009A95F1F700008111F5CF8091E80085FFFD
:1049D0001BC08091430170E050E040E0811104C0B1
:1049E00050E040E068E070E0CE010E94FB2680913C
:1049F000E8008E778093E80080E2FE01A0E3B3E058
:104A000001900D928A95E1F7DF91CF91089568E0CA
:104A100081E0CDCF80932D0370932F0360932E03FD
:104A200080916404843001F582E08093E9008FEF87
:104A30009091E800815095FD06C095ED9A95F1F7AB
:104A400000008111F5CF8091E80085FF0DC050E096
:104A500040E063E070E08DE293E00E94FB268091ED
:104A6000E8008E778093E8000895BC0184E00C9400
:104A70000A25BC0183E00C940A258091630481110E
:104A800009C00E94DA280E9437298091E2008460E0
:104A90008093E20008951092630408950C94971F88
:104AA0006091600481E0611101C080E00C94901F6E
:104AB0009091640481E0943009F080E0609160049A
:104AC0000C94951F42E061EC81E00E94562842E27E
:104AD00061EC82E00E94562842E361E883E00E9494
:104AE000562842E361E884E00E94562890916404CD
:104AF00081E0943009F080E0609160040C94871F9D
:104B000080916604833009F460C030F48130C9F1CB
:104B1000823009F49CC008958A3009F488C08B3033
:104B200009F46EC0893009F04FC08091650481326C
:104B300009F04AC08091690490916A04029708F0D4
:104B400043C08091E800877F8093E8008091E8006F
:104B500082FF36C09091F3008091F200029731F409
:104B60008091F100813011F0863021F48091F100C4
:104B7000809350038091E8008B778093E8000C9439
:104B80008A2880916504813AF9F48091E800877F52
:104B90008093E8008091690490916A04892B61F404
:104BA00060E280E393E070E00E9499278091E80042
:104BB0008B778093E800089560E090E080E0F3CF89
:104BC000809164048111C2CF089580916504813A77
:104BD000D9F78091690490916A04892BA9F7809193
:104BE000E800877F8093E8008091E80080FFFCCF99
:104BF000809143018093F1008091E8008E77BDCFD2
:104C000080916504813201F78091690490916A0472
:104C1000892BD1F68091E800877F8093E8000E947D
:104C20008A2880916704809343010C94A8068091A0
:104C30006504813249F68091E800877F8093E8001F
:104C40000E948A288091680480935103089580917E
:104C50006504813A09F0B8CF8091E800877F80939E
:104C6000E8008091E80080FFFCCF80915103C2CF23
:104C7000BC018BE291E00C943524BC018BE291E005
:104C80000C947F240E94172484B7877F84BF0FB6BB
:104C9000F894A895809160008861809360001092DC
:104CA00060000FBE80E890E00FB6F894809361003A
:104CB000909361000FBE0C949C1F0E94DA280E9402
:104CC0003729E2EEF0E080818460808378940C9450
:104CD000C02B87E391E00C945C1E809164048530C6
:104CE000A9F480916404853011F00C94E01F0E94B7
:104CF0009F1F809162048823A1F30E94CC1F882308
:104D000081F30E94E5260E94A806EBCF08958BE26E
:104D100091E00C946E240C948D26292F3327233098
:104D2000310519F168F42130310509F444C022300D
:104D3000310509F445C090E080E030E020E025C076
:104D40002132310549F122323105A9F780E490E0A2
:104D500027E533E061157105C1F086EB90E021EAAB
:104D600032E06130710589F0E6CF992781309105F5
:104D700081F0009729F00297F1F6ECECF1E002C027
:104D8000ECEEF1E0849190E09F01FA013183208301
:104D90000895EAEDF1E0F6CF89E090E022E032E01C
:104DA0006115710591F389E090E02BE132E061300B
:104DB000710559F3C0CF82E190E02FE832E0E5CFF2
:104DC0008FE990E020EF31E0E0CF80E189BD82E122
:104DD00089BD09B400FEFDCF8091D8008F7D8093FE
:104DE000D8008091E00082608093E0008091E00034
:104DF00081FDFCCF0895AF92BF92CF92DF92FF92D8
:104E00000F931F93CF93DF936C01EB018A010E94F4
:104E1000A928F82E811123C00115110539F0F801D8
:104E200080819181C81BD90BC80ED91EB12CA12C31
:104E30002097A9F08091E80085FD22C08091E800CC
:104E40008E778093E80001151105A1F0F8018081AB
:104E50009181A80EB91EB182A08285E0F82E8F2D17
:104E6000DF91CF911F910F91FF90DF90CF90BF9076
:104E7000AF9008950E94A9288823D1F2F82EEFCF91
:104E8000F60181916F018093F1002197FFEFAF1A36
:104E9000BF0ACECFAF92BF92CF92DF92FF920F9315
:104EA0001F93CF93DF936C01EB018A010E94A92825
:104EB000F82E811123C00115110539F0F801808108
:104EC0009181C81BD90BC80ED91EB12CA12C2097DB
:104ED000A9F08091E80085FD22C08091E8008B77E1
:104EE0008093E80001151105A1F0F80180819181FE
:104EF000A80EB91EB182A08285E0F82E8F2DDF9119
:104F0000CF911F910F91FF90DF90CF90BF90AF9006
:104F100008950E94A9288823D1F2F82EEFCF80911E
:104F2000F100F60181936F012197FFEFAF1ABF0ADD
:104F3000CECFFC0180916B0490916C04861797078B
:104F4000A0F06115710529F49091E8009E77909387
:104F5000E80090E06115710551F4911108C080914D
:104F6000E80082FF34C080E00895BC01F2CF809158
:104F700064048823C1F18530C1F18091E80083FD8C
:104F800030C08091E80082FDEACF8091E80080FF88
:104F9000E1CF8091F3002091F200382F6115710567
:104FA00019F02830310558F091E02830310509F02A
:104FB00090E02091E8002E772093E800CBCF8191FC
:104FC0008093F100615071092F5F3F4FE7CF8091CF
:104FD0006404882341F0853041F08091E80083FF2C
:104FE000BECF81E0089582E0089583E00895FC013A
:104FF00080916B0490916C0486179707A0F061155F
:10500000710529F48091E8008E778093E80090E0A4
:105010006115710551F4911108C08091E80082FF7B
:1050200035C080E00895BC01F2CF809164048823EC
:10503000C9F18530C9F18091E80083FD31C08091CC
:10504000E80082FDEACF8091E80080FFE1CF809107
:10505000F3002091F200382F6115710519F0283006
:10506000310558F091E02830310509F090E0809149
:10507000E8008E778093E800CBCF84918093F10095
:105080003196615071092F5F3F4FE6CF80916404E4
:10509000882341F0853041F08091E80083FFBDCF47
:1050A00081E0089582E0089583E00895982F973075
:1050B00028F08F708093E90081E008959093E900D3
:1050C000242F762F50E0981731F07091EC0020914A
:1050D000ED005091F00021FD02C09F5FE8CF3091BC
:1050E000EB003E7F3093EB003091ED003D7F30933D
:1050F000ED003091EB0031603093EB007093EC00E9
:105100002093ED005093F0002091EE0027FDE5CFB5
:1051100080E008958091650487FF13C08091E800C6
:1051200082FF06C08091E8008B778093E80004C07E
:10513000809164048111F2CF0895809164048823E2
:10514000D9F38091E80080FFF8CF8091E8008E7756
:10515000ECCF2091E4003091E50095E6A901209183
:10516000EC00822F817020FF06C08091E80080FF54
:1051700006C080E008952091E80022FD1AC08091C9
:105180006404882389F0853089F08091EB0085FDE7
:105190000FC02091E4003091E50042175307F9F267
:1051A0009150E1F684E0089582E0089583E0089547
:1051B00081E008950E9448290E945029E0EEF0E025
:1051C000808181608083E8EDF0E080818F7780834B
:1051D00019BCA7EDB0E08C918E7F8C9380818F7E7F
:1051E00080831092630408950F931F93CF93DF93EE
:1051F0000E9448290E945029C8EDD0E088818F770D
:10520000888388818068888388818F7D888319BCA2
:10521000109264041092600410926204109261046F
:1052200000EE10E0F80180818B7F808388818160AF
:10523000888342E060E080E00E945628E1EEF0E0E2
:1052400080818E7F8083E2EEF0E0808181608083C8
:10525000808188608083F80180818E7F808388814F
:1052600080618883DF91CF911F910F910895E8EDC0
:10527000F0E080818F7E8083E7EDF0E080818160C7
:10528000808384E082BF81E0809363040C94F428DF
:10529000E8EDF0E080818E7F80831092E200089537
:1052A0001092DA001092E10008951F920F920FB64B
:1052B0000F9211242F933F934F935F936F937F939C
:1052C0008F939F93AF93BF93EF93FF938091E100F0
:1052D00082FF0BC08091E20082FF07C08091E10055
:1052E0008B7F8093E1000E94BF2B8091DA0080FFCA
:1052F00019C08091D80080FF15C08091DA008E7FA0
:105300008093DA008091D90080FF96C080E189BD4A
:1053100082E189BD09B400FEFDCF81E08093640481
:105320000E943D258091E10080FF19C08091E2003C
:1053300080FF15C08091E2008E7F8093E200809113
:10534000E20080618093E2008091D80080628093C7
:10535000D80019BC85E0809364040E945025809198
:10536000E10084FF2BC08091E20084FF27C080E130
:1053700089BD82E189BD89B5982F917080FFFBCFEF
:105380008091D8008F7D8093D8008091E1008F7E3E
:105390008093E1008091E2008F7E8093E200809113
:1053A000E20081608093E20080916004882309F428
:1053B00049C084E0809364040E9458258091E100F4
:1053C00083FF29C08091E20083FF25C08091E10026
:1053D000877F8093E10082E08093640410926004F0
:1053E0008091E1008E7F8093E1008091E2008E7FCA
:1053F0008093E2008091E20080618093E20042E0CD
:1054000060E080E00E9456288091F00088608093E0
:10541000F0000E944E25FF91EF91BF91AF919F91B7
:105420008F917F916F915F914F913F912F910F904D
:105430000FBE0F901F90189519BC109264040E9423
:105440004B2570CF8091E30087FD93E09093640437
:10545000B3CF1F920F920FB60F9211242F933F9349
:105460004F935F936F937F938F939F93AF93BF936C
:10547000CF93DF93EF93FF93D091E900DF7080919A
:10548000EC00C82FC17080FDC0E81092E900809147
:10549000F000877F8093F00078940E946D2A10922C
:1054A000E9008091F00088608093F000CD2BCF70F0
:1054B000C093E900FF91EF91DF91CF91BF91AF9140
:1054C0009F918F917F916F915F914F913F912F911C
:1054D0000F900FBE0F901F9018951F93CF93DF93DF
:1054E000CDB7DEB7AA970FB6F894DEBF0FBECDBF1B
:1054F00085E694E02091F100FC012193CF01F4E0D6
:105500008D369F07B9F70E9480258091E80083FFC0
:105510001EC180916504909166049A3008F017C10D
:10552000E92FF0E0ED55F34D0C94152C803899F0EF
:10553000823809F00CC1809169048F70873008F0BF
:1055400006C18093E9008091EB0085FB882780F9F4
:105550001092E90006C0809161049091620491115B
:1055600082609091E800977F9093E8008093F1002B
:105570001092F1008091E8008E77E5C0882309F44D
:10558000D3C0823009F0E3C0809167048111D6C096
:10559000809169048F702FEF280F263008F0D7C054
:1055A0008093E9002091EB0020FFC8C0933031F4D4
:1055B0008091EB0080628093EB00C0C09091EB0083
:1055C00090619093EB0021E030E001C0220F8A95BA
:1055D000EAF72093EA001092EA008091EB008860DD
:1055E000EACF8111B4C0109167041F778091E30066
:1055F0008078812B8093E3008091E800877F8093FF
:10560000E8000E948A288091E80080FFFCCF80910A
:10561000E30080688093E30082E0111183E08093CF
:10562000640495C08058823008F091C0809167046E
:10563000909168048C3D23E09207A1F583E08A8372
:105640008AE289834FB7F894DE01139620E03EE0AA
:1056500051E2E32FF0E050935700E49120FF03C0A4
:10566000E295EF703F5FEF708E2F90E0EA30C0F070
:10567000C7968D939D932F5F243159F74FBF80912B
:10568000E800877F8093E8006AE270E0CE0101962F
:105690000E9499278091E8008B778093E80057C09B
:1056A000C096E7CF6091690470916A04AE014F5FC4
:1056B0005F4F0E948B26BC01892B09F448C0909152
:1056C000E800977F9093E80089819A810E94F727EC
:1056D000E1CF8038E1F58091E800877F8093E80092
:1056E000809160048093F10045CF811130C090918A
:1056F0006704923060F58091E800877F8093E8002E
:10570000909360040E948A2880916004882311F09D
:1057100084E005C08091E30087FDFACF81E08093AB
:1057200064040E94622513C080916704813079F47B
:1057300081E0933009F080E0809362041092E900E8
:105740008091E800877F8093E8000E948A288091FA
:10575000E80083FF0AC08091E800877F8093E8001B
:105760008091EB0080628093EB00AA960FB6F894CC
:10577000DEBF0FBECDBFDF91CF911F910895089579
:10578000CF93809164048823A1F0C091E900CF7089
:105790009091EC00892F817090FD80E8C82B1092C9
:1057A000E9008091E80083FD0E946D2ACF70C093CC
:1057B000E900CF9108950E94DA28109264040895B8
:1057C000E8EDF0E08081806180838AE18A95F1F7DD
:1057D00000C08091D90081700895AA1BBB1B51E1C4
:1057E00007C0AA1FBB1FA617B70710F0A61BB70B51
:1057F000881F991F5A95A9F780959095BC01CD01F6
:10580000089597FB072E16F4009407D077FD09D072
:105810000E94ED2B07FC05D03EF4909581959F4F9B
:105820000895709561957F4F0895EE0FFF1F0590C5
:10583000F491E02D0994FB01DC0104C08D910190ED
:10584000801921F441505040C8F7881B990B0895E6
:10585000FB01DC0102C001900D9241505040D8F78D
:105860000895F999FECF92BD81BDF89A992780B528
:105870000895A8E1B0E042E050E00C94652C262F9A
:10588000F999FECF92BD81BDF89A019700B4021636
:1058900039F01FBA20BD0FB6F894FA9AF99A0FBEE4
:1058A00008950396272F0E94402C0E943F2C252FFD
:1058B0000E94402C242F0C94402C0196272F0E94EC
:1058C000402C0C943F2CDC01CB01FC01F999FECF5C
:1058D00006C0F2BDE1BDF89A319600B40D92415078
:1058E0005040B8F70895F894FFCF35023A023C02D1
:1058F0003E02400242024402460248024A024C0270
:105900004E02500252025402560258025A025C02DF
:105910005E0267046704980498042B054705C704D2
:10592000C7045205DE05ED05ED05B706B706C0064E
:10593000C006C206C006C006C006B706B706C70640
:10594000C006C006C706962ABE2AA72BBE2AA72BCA
:0A595000F12A122BA72B692B752BEF
:10595A00C8002902016A0300000001000000006A71
:10596A000300000004010000006A030405000000AF
:10597A000000002808641E140A321E038340000037
:10598A0001044000000100A524CA24A924392535B0
:10599A0025A82401E200E900EA00B500B600B70034
:1059AA00CD008301CC008A019201940121022302D5
:1059BA0024022502260227022A02B300B4006F003D
:1059CA007000818283E200E900EA00B500B600B700
:1059DA0000CD008301CC008A0192019401210223A7
:1059EA000224022502260227022A02B300B4006F0B
:1059FA00007000818283F4F5F6F73133946697C616
:105A0A000000000066020203020000010001010119
:065A1A0001010001010082
:00000001FF
