:100000000C9474030C9421300C94BB030C94BB032C
:100010000C94BB030C94BB030C94BB030C94BB0368
:100020000C94BB030C94BB030C944E2E0C94262F03
:100030000C94032E0C94BB030C94BB030C94BB03D5
:100040000C94BB030C94BB030C94BB030C94BB0338
:100050000C94BB030C942A2E0C94BB030C94BB038E
:100060000C94BB030C94BB030C94BB030C94BB0318
:100070000C94BB030C94BB030C94BB030C94BB0308
:100080000C94BB030C94BB030C94BB030C94BB03F8
:100090000C94BB030C94BB030C94BB030C94BB03E8
:1000A0000C94BB030C94BB030C94BB0305010980A7
:1000B000A101850319012AB700150126B700950192
:1000C00075108100C0050C0901A101850419012AE0
:1000D000A002150126A002950175108100C005013E
:1000E0000906A101050719E029E715002501950872
:1000F000750181029501750881010507190029FF25
:10010000150026FF009506750881000508190129CC
:1001100005950575019102950175039101C00902CC
:100120009F00040100A0FA0904000001030101007E
:100130000921110100012240000705810308000A7E
:10014000090401000103000000092111010001223E
:1001500032000705820320000A080B020201010099
:100160000009040200000101000009240100010946
:100170000001030904030002010300000724010039
:1001800001410006240201010006240202020009C6
:1001900024030103010201000924030204010101F7
:1001A00000090504024000050000052501010109C0
:1001B000058302400005000005250101031201002E
:1001C000020000000810CB56520005010200011881
:1001D0000349007200690073002000520065007638
:1001E000002E002000350000000E034B0065006566
:1001F00000620069006F0000000403090422232547
:100200002628292A2C2D2F3032333536383A3B3DDB
:100210003E4042434547494A4C4E50515355575929
:100220005A5C5E6062646668696B6D6F7173757746
:10023000797B7D7F81838587898A8C8E9092949645
:10024000989A9C9E9FA1A3A5A7A8AAACAEAFB1B354
:10025000B4B6B8B9BBBCBEBFC1C2C3C5C6C7C9CAA4
:10026000CBCCCDCED0D1D2D2D3D4D5D6D7D7D8D966
:10027000D9DADADBDBDBDCDCDCDCDCDDDDDDDDDCC4
:10028000DCDCDCDCDBDBDBDADAD9D9D8D7D7D6D5D6
:10029000D4D3D2D2D1D0CECDCCCBCAC9C7C6C5C398
:1002A000C2C1BFBEBCBBB9B8B6B4B3B1AFAEACAAE5
:1002B000A8A7A5A3A19F9E9C9A98969492908E8C95
:1002C0008A89878583817F7D7B79777573716F6D6F
:1002D0006B6968666462605E5C5A59575553515049
:1002E0004E4C4A4947454342403E3D3B3A383635FD
:1002F0003332302F2D2C2A292826252322FFAA7FAE
:100300005540000101010101010101010202020247
:1003100002020202020303030303030303040404AF
:100320000404040405050505050606060606070778
:1003300007070708080808090909090A0A0A0B0B30
:100340000B0C0C0C0D0D0D0E0E0E0F0F0F101011CF
:100350001111121213131414151516161717181855
:1003600019191A1A1B1B1C1D1D1E1E1F20202122BD
:1003700022232424252626272829292A2B2C2D2D03
:100380002E2F30313232333435363738393A3B3C20
:100390003D3E3F404142434445464748494A4C4D13
:1003A0004E4F50515354555658595A5B5D5E5F61DC
:1003B0006264656668696B6C6D6F7072737577786F
:1003C0007A7B7D7E8082838587888A8C8E8F9193CD
:1003D0009596989A9C9EA0A2A3A5A7A9ABADAFB1F4
:1003E000B3B5B7BABCBEC0C2C4C6C9CBCDCFD1D4D9
:1003F000D6D8DBDDDFE2E4E7E9EBEEF0F3F5F8FA7F
:10040000FDFF1E0F0500047F3F1F64321464321489
:10041000783C1E1E140A05000501050205030504AB
:10042000050505000601060206030604060506008A
:100430000701070207030704070507000801080270
:100440000803080408050801010101020903090461
:100450000904090000010002000300040005000077
:100460000101010201030104010501000201020270
:100470000203020402050200030103020303030452
:100480000305030101010105040304040904041622
:100490005C1E001F002000210022002B0014001A07
:1004A00000080015001700E000040016000700090E
:1004B000000A00E1001D001B0006001900050000F5
:1004C000000000E200A75DF256E3002A00270026A4
:1004D000002500240023002F00130012000C001838
:1004E000001C00340033000F000E000D000B00282C
:1004F000003800370036001000110000000000E650
:1005000000A85D2C00F25635001E021F02200221B9
:1005100002220201001E001F002000210022000113
:100520000001005000520051004F0001003A003B12
:10053000003C003D003E0000000000010001000101
:100540000001002A00270226022502240223022A93
:10055000002700260025002400230031022E024F30
:10056000005200510050004500440043004200602A
:10057000004000000000000100010001003F0045B4
:10058000003A003B003C003D003E0001001E021FFF
:10059000022002210222020100010001004C004B56
:1005A000002D0201000100010001004E002D00009D
:1005B0000000000100010001002602440043004247
:1005C00000410040003F002A0027022602250224A5
:1005D0000223023500310230022F022E002D003599
:1005E00002310030002F002E022D02000000004FCB
:1005F00000010050000100010001000100010001A4
:100600000001000100010001000100C45CC35C01A5
:10061000001450AC00A900AA00AB000100010001C9
:10062000000100AE00A80000000000010001000170
:1006300000005C0100010001000100010001000157
:100640000046000100010001000100010001004D11
:10065000004B004E004A0028000100010001001577
:100660005C010000000000010001000100005C10BE
:10067000500E0012000F000100010001001C000BD1
:100680000018000D00010001000700090017000A12
:10069000001B00010004001A00160008001D0000E5
:1006A0000000000100010001000100AF5DAE5DAD82
:1006B0005DAC5DAB5D2C5CB45DB35DB25DB15DB056
:1006C0005D2D5CBA5DB95DB85DB75DB65DB55DC108
:1006D0005DC05DBF5DBE5DBD5DBC5D00000000C472
:1006E0005DC35DC25DBB5D0011241FBECFEFDAE0CC
:1006F000DEBFCDBF04B603FE27C0809149059091AF
:100700004A05A0914B05B0914C058730904BA7400E
:10071000B04BD1F41092490510924A0510924B0546
:1007200010924C0514BE84B7877F84BF0FB6F8942F
:10073000A8958091600088618093600010926000AD
:100740000FBEE0E0F8E3099525E0A8E3B2E001C0C0
:100750001D92A934B207E1F712E0A0E0B1E0EAEBA4
:10076000F7E602C005900D92A833B107D9F70E94B1
:1007700099280C9455330C940000E92FEE0FE90FE3
:10078000EE0FE80F51E0E1FD54E0E0FD550FE2FD12
:100790005295E695E695E69585E0E89FF0011124EF
:1007A000E05CFC4F20E030E070E04191DF01CB01E4
:1007B000022E02C0969587950A94E2F78695880BDB
:1007C0008427852384278E932F5F3F4F2530310563
:1007D00061F70895E92FEE0FE90FEE0FE80F9E2F56
:1007E0009770E695E695E69585E0E89FF00111247F
:1007F000E05CFC4F40E050E080E0219130E0092EC9
:1008000002C0369527950A94E2F72170042E01C0A4
:10081000220F0A94EAF7822B4F5F5F4F4530510554
:1008200061F7089580910E0520910D05281301C0F0
:10083000089501968770FACFEDE3F2E09191891364
:1008400002C0DF011E9292E0E334F907B9F7089580
:10085000982F90958091F60489238093F60408954B
:100860008091F70481111092F70408958091F604A5
:1008700090910105892B90916803892B80933B020D
:100880009091F704911591F0892B80933B0220E021
:100890008DE392E0FC013081019631112F5F32E04F
:1008A00083349307B9F721110E943004E0913E038D
:1008B000F0913F03309731F00280F381E02D8BE31C
:1008C00092E009940895811539F09091F604982BDF
:1008D0009093F6040C9436040895811521F00E943B
:1008E00028040C94360408959091FF0492FF06C0EA
:1008F000282F28712830F9F4877F846093FF06C081
:10090000282F28712831F1F4877E84612091000519
:1009100020FF06C0382F38713830D9F4877F8160C6
:1009200021FF06C0282F28712831D1F4877E8161EC
:1009300094FD877E0895282F24712430F9F68B7F4B
:100940008860DCCF282F2471243101F78B7E8861E9
:10095000DDCF382F3171313019F78E7F8860E0CFCD
:10096000282F2171213121F78E7E8861E1CFCF932D
:10097000DF93EC01803E910509F467C050F58133A7
:10098000910509F4AAC058F48932910509F49EC072
:100990008A32910509F4A8C0019751F113C0893337
:1009A000910509F44BC08238910509F447C085339D
:1009B000910509F484C0883A910590F5853A91052E
:1009C00008F0EFC0CE010497813A910508F049C0C4
:1009D0000FC0843E910509F457C070F4823E910522
:1009E00009F442C0833E910509F443C0C1EED0E052
:1009F000CE01DF91CF910895863E910509F44FC055
:100A0000873E910509F450C0943508F0A5C0933590
:100A100008F0DCC0903508F073C0903408F0CFC007
:100A2000CF3BD10508F4C0C0C83ED10508F063C073
:100A3000C03ED105B0F0C5EED0E0DACF8091FF0422
:100A40008370B1F2C0EED0E0D3CF8091FF0480FD7F
:100A5000E8C09091000590FFCBCFC3EED0E084FFBB
:100A6000C7CFC0E0D0E0C4CF8091FF0482FDF5CFB6
:100A7000BFCF8091FF0482FDD7C09091000590FD0B
:100A8000E1CF84FFB5CFEDCF8091000581FFB0CFDE
:100A90008091FF04C7EED0E084FDE3CFA9CF809121
:100AA000FF0483FDF7CFA4CF8091FF0483FDBFC077
:100AB0009091000591FFE5CFC4EED0E099CF8091F1
:100AC000FF0485FF95CFC9E2D0E092CF8091FF046B
:100AD00085FF8ECFC5E3D0E08BCF8091FF0486FFEA
:100AE00087CFCAE2D0E084CF8091FF0486FF80CF19
:100AF000C1E3D0E07DCFCE01915081159F4166CFFB
:100B0000D23508F5D13508F05DC09E01E4E0369598
:100B10002795EA95E1F723708C2F8695869583704B
:100B200030E2839FC0011124922BC37021E030E09A
:100B3000A90102C0440F551FCA95E2F7EA01C82B6C
:100B4000D92BDC6855CF8C2F8695869550E2859FF2
:100B5000C0011124C370EACFD93590F4D83508F01C
:100B600051C0D63538F4D53508F044C0DC2FC4EF79
:100B7000D06A3ECF9D2F965509F073CFD0E638CF7F
:100B8000DA3508F443C0CE019056903208F069CFB0
:100B90008D2F8F710E947404982F9F718C2FEC0100
:100BA0002FC0A497D06424CFC85AD0E0CC0FDD1F4B
:100BB000C552DE4F0990D881C02DD46419CFDF70A3
:100BC000D06A16CFDC2FC1EFD06A12CF86958695FA
:100BD00030E2839FC0011124C37021E030E0A901FD
:100BE00002C0440F551FCA95E2F7EA01C82BD92B62
:100BF000DA68FECE8C2F0E947404D82FC0E0DF711B
:100C0000D062F6CEDC2FC0EFD06AF2CE8C2F8F7080
:100C10000E9474042C2F22952F70922FEC01D06922
:100C2000E7CEC9E3D0E0E4CEC2EED0E0E1CEC6EE3E
:100C3000D0E0DECE8F929F92AF92BF92EF92FF9262
:100C40000F931F93CF93DF938090450590904605B7
:100C5000A0904705B09048054091F8045091F904E0
:100C60006091FA047091FB04842A952AA62AB72A77
:100C700024E4E22E27E0F22ECFE1D0E0082F10E0AE
:100C800026E0929F000D111D1124C401D5010C2EE8
:100C900004C0B695A795979587950A94D2F780FDDD
:100CA00015C021978CE3E81AF10824ECE2162FEF27
:100CB000F20659F780E0DF91CF911F910F91FF90DD
:100CC000EF90BF90AF909F908F900895F801EE0D38
:100CD000FF1DEE0FFF1FE157FB4F859195910E947D
:100CE000B7040197F1F28C2FE6CF1F93CF93DF93D8
:100CF000FC018281C0811181811511F1611501F121
:100D00008C2F912F0E941A06D82F682F8C2F912F8D
:100D10000E94BD03EC2FF0E086E0189FE00DF11D6E
:100D200011248CE3D89FE00DF11D1124EE0FFF1F5D
:100D3000E157FB4F85919591DF91CF911F910895D8
:100D40008C2F912F0E94EA03D82FE4CFCF93DF930B
:100D500000D0CDB7DEB789839A830E941A06298115
:100D6000E22FF0E02A8196E0299FE00DF11D112489
:100D70009CE3899FE00DF11D1124EE0FFF1FE15749
:100D8000FB4F859195910F900F90DF91CF910C942F
:100D9000B7040E94A606282F892F82958F70903C59
:100DA000A0F48A30D8F4843020F48230B8F480E0A3
:100DB00008958630E1F791E0283E08F090E081E068
:100DC000213F09F080E0892B08958C3011F08F309D
:100DD00071F79F7081E0983038F4E9CF203F49F0F7
:100DE00020F481E0283E18F7089581E0243FF9F6C9
:100DF000089581E0089580E00895F894E82FE29541
:100E0000EF70F0E041A18F7021E030E0B90101C046
:100E1000660F8A95EAF7862F962F9095942391A3D3
:100E200092A1892B82A37894089508950895089536
:100E3000AF92BF92CF92DF92EF92FF920F931F93E8
:100E4000CF93DF93082F162FE901E42FF0E0EE5F38
:100E5000FC4F611111C0E4918E2F3E2F3983E8833E
:100E60008A83DF91CF911F910F91FF90EF90DF90D8
:100E7000CF90BF90AF900895E4913E2F86E0089FF9
:100E8000700111242FEFC22ED12CC701B6010E9490
:100E9000B831802F90E0880F991F25E5269FA0018B
:100EA000279F500D1124841B982F990F980FD6015E
:100EB000A11BB109EA9FA001EB9F500D1124852FC2
:100EC000199F50011124AB2CB12CD601AA19BB09D2
:100ED0005D01EA9DD001EB9DB00D112463307105D9
:100EE00061F1F601E91BF1091E9F50011F9FB00C33
:100EF0001124AB2CB12CCA18DB083C9D80013D9D10
:100F0000100D1124E12F9CEFE91693E0F90658F437
:100F100061307105B1F06230710509F09FCFE32FA8
:100F2000352F812F9BCF6430710571F066307105CC
:100F300009F494CFE52F8B2F91CF352F8E2FEB2FE8
:100F40008DCFE32F3B2F8ACFE52F832F312F86CFF5
:100F50008091F104823028F4817082608093F104E2
:100F600008958635E8F381708465F8CF1092EF0418
:100F70008091F00484608093F0040895FA01811157
:100F800001C0FB010994EF92FF920F931F93CF933F
:100F9000DF9300D0CDB7DEB78630A8F5811134C01D
:100FA000909180009F77909380002D9820918600EB
:100FB00030918700A82FB0E00E94243325E030E074
:100FC00040E050E00E94333389019A01809186000D
:100FD000909187006CE070E00E94B8316017710753
:100FE000C8F0C80169E070E00E94B83170938900D0
:100FF000609388000F900F90DF91CF911F910F9118
:10100000FF90EF90089585E0909180009068909314
:101010008000CCCF8091860090918700409186001F
:101020005091870049835A83E0918600F0918700B0
:1010300066E070E00E94B831060F171F211D311DB8
:101040007801890185E0EE0CFF1C001F111F8A95B5
:10105000D1F789819A8166E070E00E94B8319F01E2
:1010600040E050E0260F371F411D511DB701C80158
:101070000E94333379018A01E0918600F091870064
:10108000B901CA010E948E319B01AC01DF010E94AF
:10109000DA329B01AC01B701C8010E948E31770F93
:1010A000BC0199278827661F771F881F209186001B
:1010B00030918700261737071806190608F096CFD3
:1010C000609186007091870091CFFC01680F791FB5
:1010D0008FEF41E39191892728E030E0982F990F15
:1010E00087FF09C0892F842721503040B9F7E617C0
:1010F000F70781F70895892FF7CF20915D0230918E
:101100005E022817390771F080935D0290935E02AA
:10111000E0913E03F0913F03309721F00680F78184
:10112000E02D0994089520915B0230915C0228170C
:10113000390771F080935B0290935C02E0913E036B
:10114000F0913F03309721F00084F185E02D099460
:101150000895811531F19CEF980F913A20F40E9487
:101160001C040C94360490E2980F983058F4982F91
:1011700081E091FD84E090FD880F92FD82950E94B0
:101180002804EFCF9BE5980F933020F480E090E0A7
:101190000C947D08885A873120F480E090E00C940C
:1011A0009308089580E090E00E947D0880E090E040
:1011B0000E94930810920105109268030C94360463
:1011C0006093F8047093F9048093FA049093FB04FD
:1011D0000C94D208609345057093460580934705AB
:1011E000909348050C94D20860914505709146058E
:1011F0008091470590914805262F267030E040E009
:1012000050E0263031054105510519F468600C9411
:10121000EA08677FFCCF282F61E070E080E090E073
:1012200004C0660F771F881F991F2A95D2F7209157
:101230004505309146054091470550914805622B80
:10124000732B842B952B0C94EA0841E050E060E06E
:1012500070E004C0440F551F661F771F8A95D2F7B0
:10126000CB01BA01609570958095909520914505C8
:1012700030914605409147055091480562237323FC
:10128000842395230C94EA089091FD04809589238A
:101290008093FD04282F277091F4282F382F330FC7
:1012A000330B9217130659F09091000592FD07C079
:1012B0008595859585950E9425091092FD040895D0
:1012C0009C01FC01329680E09FEF4081461759F067
:1012D00031969F3F19F4411101C0982F8F5F8630DE
:1012E000A1F79F3F09F40895290F311D97FD3A9505
:1012F000F90162830895CF93C82F811509F446C080
:101300008CEF8C0F813A98F4EDE3F2E083E492E005
:101310002081C217A9F131968E179F07C9F76C2F4C
:101320008BE392E00E946009CF910C94360480E236
:101330008C0F883060F4C77021E001C0220FCA957D
:10134000EAF78091F604822B8093F604EDCF8BE5CB
:101350008C0F833038F42C2F2452330BC901CF91DA
:101360000C947D08C85AC73188F4EC2FF0E0EE0FDA
:10137000FF1FE75FFD4F80819181CF910C9493080F
:101380008C2F0E941C040E943604C9CFCF9108956F
:101390002FB7F8948091F5029091F602A091F70290
:1013A000B091F8022FBF08952FB7F8946091F5021D
:1013B0007091F6028091F7029091F8022FBF089584
:1013C0000C94D4099C014FB7F8948091F502909148
:1013D000F602A091F702B091F8024FBF821B930B67
:1013E0000895282F207F203D49F188F4203B31F0DB
:1013F00038F4807E803811F0203AD9F493E005C0AB
:1014000091E0203C09F090E0990F892F0895203E4B
:10141000A9F3203F71F4833F89F020F4813F71F0FC
:10142000823FEBCF91E08D3F30F4883F70F7863FED
:1014300061F390E0EACF8E3F40F7FBCF92E0E5CF3B
:101440000F93262F042F0F77482F406BE091FA035C
:10145000F091FB0363E070E08AEF93E009950F9150
:1014600008950F939B01305E27FB632F661F770B58
:10147000719560F92F77482F406EE091FA03F09153
:10148000FB03062F63E070E08AEF93E009950F916C
:101490000895EF92FF920F931F93CF93DF9300D0A5
:1014A00000D00F92CDB7DEB77C01162F4C832D8371
:1014B00080911F048430B9F5E0911404F091150473
:1014C000309709F440C0970121503109C90163E008
:1014D00070E00E94B831B901681B790B19834A8307
:1014E0008D818B834E2D461B9E012F5F3F4F8AEFD0
:1014F00093E00995E0911804F0911904309739F0C0
:101500000D812C81412FB7018AEF93E009950F904F
:101510000F900F900F900F90DF91CF911F910F912F
:10152000FF90EF90089582E0E816F10409F456C0A8
:1015300083E0E816F104A9F081E0E816F10409F46B
:101540007CC0E12CF12CE0911604F0911704309747
:1015500089F20D812C81412FB7018AEF93E0099523
:10156000C9CF862F807F803B29F188F4803939F1FB
:10157000803A51F1E0910004F0910104803819F7AC
:10158000309709F32D814C81612F6F700FC0803E21
:1015900001F1803FC1F6623FB1F6E0910604F0919F
:1015A00007042D814C8162EF309769F28AEF93E056
:1015B0000995A0CFE091FC03F091FD03E1CFE0910C
:1015C000FE03F091FF03DCCFE0910204F0910304ED
:1015D000D7CFE0910404F0910504D2CF862F807F0D
:1015E000803D81F0803F99F0E0910804F09109047A
:1015F000803C09F0A8CF309709F4A5CF4C81612F2A
:101600006F7017C0E0910A04F0910B04F4CFE091E1
:101610000C04F0910D04633F39F0613F09F093CF62
:10162000E0910E04F0910F044C81612F309709F482
:101630008ACF8AEF93E009955DCFE0911004F09195
:101640001104683F38F4663F09F07DCFE091120441
:10165000F0911304309709F476CF612F8AEF93E06D
:10166000099548CF80915A02089508950895FC0184
:1016700020914D0230914E022617370748F0611530
:10168000710529F49091E8009E779093E8009B0102
:1016900090E02115310541F4911106C08091E800D8
:1016A00082FF32C080E0089580910E038115C1F160
:1016B0008530C1F18091E80083FD30C08091E80061
:1016C00082FDECCF8091E80080FFE3CF8091F300B2
:1016D0004091F200582F2115310519F0483051057D
:1016E00058F091E04830510509F090E04091E80051
:1016F0004E774093E800CDCF81918093F100215047
:1017000031094F5F5F4FE7CF80910E03811541F0A4
:10171000853041F08091E80083FFC0CF81E00895DB
:1017200082E0089583E00895982F9093E900891747
:1017300071F07091EC002091ED005091F00021FDCE
:1017400009C09F5F973089F78093E9000895762F4D
:10175000242F50E03091EB003E7F3093EB0030912E
:10176000ED003D7F3093ED003091EB003160309320
:10177000EB007093EC002093ED005093F00020916B
:10178000EE0027FDDECF08958091470287FF13C04A
:101790008091E80082FF06C08091E8008B778093FB
:1017A000E800089580910E038111F2CF0895809191
:1017B0000E038115D9F38091E80080FFF8CF809166
:1017C000E8008E77ECCF2091E4003091E50095E6BB
:1017D000A9012091EC00822F817020FF06C080912A
:1017E000E80080FF06C080E008952091E80022FD17
:1017F0001AC080910E03811589F0853089F080919F
:10180000EB0085FD0FC02091E4003091E500421708
:101810005307F9F29150E1F684E0089582E00895CB
:1018200083E0089581E00895CF92DF92EF92FF92D6
:101830000F931F93CF93DF9300D000D000D00F926F
:10184000CDB7DEB78C0108511F4F80910E03843055
:1018500009F07EC080912D018F708093E900809106
:10186000E80082FF75C08091E80085FF71C00E948A
:10187000E30B811114C084E0C82ED12C7E01FFEF50
:10188000EF1AFF0A8091E80085FD55C08091E800BD
:101890008B778093E8000E94E30B811599F3809188
:1018A000E80085FD05C08091E8008B778093E80013
:1018B000FA808F2D0E94F109382FFD828B818E8353
:1018C0008C818F83311109C0E981E450E43008F044
:1018D000BCCFF0E0E656FE4F308120E0231708F041
:1018E000B4CFFE013596E20FF11DF0804FB7F894AA
:1018F000D8011196ED91F0E0CF0101966C9170E066
:101900000E94CC31D8015C915817190619F44FBFC9
:101910002F5FE4CF13968D919D91E80FF91FF08210
:1019200014978D9190E001966C9170E00E94CC31FB
:10193000F8018183ECCF8091F100D7018C93B1E065
:10194000CB1AD10809F4ABCFEFEFEE1AFE0A9ACF0B
:1019500027960FB6F894DEBF0FBECDBFDF91CF91B3
:101960001F910F91FF90EF90DF90CF900895EF922D
:10197000FF920F931F93CF938C017B010E94E30B87
:10198000C82F81110EC08091E80085FD11C08091A3
:10199000E8008E778093E8000E94E30B811599F3AD
:1019A000C82F8C2FCF911F910F91FF90EF9008952A
:1019B000F80180818093F100F1E0EF1AF10889F3DA
:1019C0000F5F1F4FE0CFEF92FF920F931F93CF93C4
:1019D000DF9300D000D00F92CDB7DEB77B01142F7C
:1019E0002D834A832B830C83842F0E94F10981115C
:1019F00042C082E0E816F104C1F083E0E816F10489
:101A000079F0EA94EF2899F10F900F900F900F90D2
:101A10000F90DF91CF911F910F91FF90EF9008955C
:101A200017E0073F31F014E004C08D8116E0873FD6
:101A3000D1F7198380910E03843031F7809128010A
:101A40008F708093E90040E050E064E070E0CE01E8
:101A500001960E94B70C8111D7CF8091E80085FDD7
:101A6000D3CF8091E8008E778093E800CDCF173FE9
:101A7000D1F615E0DECF12951F70DBCFCF92DF924B
:101A8000EF92FF920F931F93CF93DF93C8EDD0E0B7
:101A900088818F7E8883E7EDF0E08081816080839C
:101AA00084E082BF81E08093460288818E7F8883B4
:101AB00002EE10E0E2EE10821092DA006801CA94A1
:101AC000E1EE108288818F7788838881806888839F
:101AD00088818F7D888319BC10920E031092450275
:101AE0001092C60210924402E0EE80818B7F8083C8
:101AF00088818160888342E060E080E00E94940BEE
:101B0000F60180818E7F8083E2EE80818160808318
:101B1000808188608083E0EE80818E7F80838881F1
:101B200080618883DF91CF911F910F91FF90EF909B
:101B3000DF90CF900895E8EDF0E080818E7F808384
:101B40001092E2001092DA001092E100A0EEB0E0F4
:101B50008C9181608C9380818F77808319BCA7EDF5
:101B60008C918E7F8C9380818F7E80831092460231
:101B7000089580910F03811110C08091D800806179
:101B80008093D8008AE18A95F1F700C08091D9004E
:101B900080FF0AC081E080930F0381E090910F03E2
:101BA000913009F080E0089582E080930F030E9455
:101BB0009B0D10920E03F1CF0E94B90D81110C9470
:101BC000D4090E94D40920913A0330913B034091FB
:101BD0003C0350913D03620F731F841F951F0895AE
:101BE0000E94B90D81110C94C8090E94DC0DCB0133
:101BF00008950E94B90D811551F0E0913E03F091D6
:101C00003F03309721F00190F081E02D099480E0AE
:101C100008950F931F93CF93DF93CDB7DEB7289727
:101C20000FB6F894DEBF0FBECDBF89839A836B8356
:101C30007C834D835E83809113030AE010E08A3039
:101C400010F001E010E021E02F831886F8946B81FA
:101C50007C8189819A81ED81FE8109957894811139
:101C60001BC02F8138852F5F3F4F2F833887021786
:101C7000130794F0C901889F9001899F300D300DA2
:101C8000112480E090E045E34A95F1F700000196C9
:101C900082179307C1F7DACF28960FB6F894DEBF04
:101CA0000FBECDBFDF91CF911F910F91089540914D
:101CB00014018091F10480FF24C02091130130E0D1
:101CC000C901880F991F820F931F80569D4F569A06
:101CD0006BB16F7B7BB17064EFB7F89450E09A0101
:101CE000220F331F240F351F280F391F8217930728
:101CF000E9F4EFBF8FE594E00197F1F700C0000031
:101D000008958091150190911601282F30E0F90176
:101D1000EE0FFF1FE20FF31FE056FD4F891768F625
:101D20001182108212828F5F3396F8CFDC014D91C1
:101D3000CD0158E07BB9000000C047FF6BB9440FEC
:101D4000000000C000C000C06BB900C05A9591F7F8
:101D5000CDCF0F931F93CF938C01C0E060911701FB
:101D6000C61770F00E94570EF8018481928190FF8F
:101D700025C08F5FF8018483CF911F910F91089543
:101D8000809115018C0F9927991F9C01220F331FF9
:101D9000280F391F20563D4F70E08FEF90E00E94D2
:101DA000CC31F80184814091F404C69F800D112448
:101DB0006091F3040E941807CF5FD0CF8150DACF33
:101DC000AF92BF92CF92DF92EF92FF920F931F9349
:101DD000CF93DF9300D00F92CDB7DEB78A839B837A
:101DE000FC01828180FD3BC0F1E0F983EA81FB8147
:101DF0008481B090170181110BC0F981F13011F489
:101E00008FEF8B0D80939F0281E0EA81FB818483B9
:101E1000E12CF12CEB1430F10E94570E90919F02AF
:101E2000F981F13009F060C080911701815091155E
:101E300019F08FEF890F91E080939F02EA81FB8177
:101E400094830F900F900F90DF91CF911F910F917E
:101E5000FF90EF90DF90CF90BF90AF9008952FEF5D
:101E60002983C4CF809115018E0D9F2D911D8C016A
:101E7000000F111F080F191F00561D4FF801118286
:101E80001082128234E0C32ED12CA12C80919F02AB
:101E90008A0D8D302CF16CE00E94AA31892F082E1A
:101EA000001C00088E150F0489F44091F4042C2DB9
:101EB0002403A00111245595479555954795980100
:101EC0006091F3048091F2040E9418078981A80EA2
:101ED00091E0C91AD108D1F6EFEFEE1AFE0A9ACFB7
:101EE00087FFDDCF8B0DDBCF892F90E001966091CE
:101EF000170170E00E94CC31982F9ECF0F931F9353
:101F0000CF93DF93EC018C81811109C081E08C8338
:101F100010929E0292E09093070180930601109127
:101F2000150120911601812F90E0FC01EE0FFF1F9B
:101F3000E80FF91FE056FD4F821750F100E0609165
:101F40001701061758F10E94570E809106019091D3
:101F50009E02980F90939E0220910701280F2093D4
:101F60000701121654F4209117012150330B092E4A
:101F7000001C00089217030634F081958093060137
:101F8000813009F41C82DF91CF911F910F91089548
:101F90001182108212828F5F3396CECF202F30E0D5
:101FA00070E0C9010E94CC31810F40919E0290E007
:101FB000042E001C000824173005CCF040910701C6
:101FC000042E001C0008421703068CF09C01220F0F
:101FD000331F280F391F20563D4F4091F404609164
:101FE000F3048091F2040E9418070F5FA8CFFC0150
:101FF000EE0FFF1FE80FF91FE056FD4F1182108210
:102000001282F3CFEF92FF920F931F93CF93DF9340
:1020100000D000D000D0CDB7DEB78D839E83DC0129
:102020001496FC912F2F30E0D9010E9424339B019C
:10203000AC010E94DA327B018C0180E290E09C01CD
:102040002F1B3109F901A5E59701A8010E94DA3299
:1020500069837A838B839C839F01DF010E94863191
:102060009B010E94E6319B01AC012E0D3F1D401FDC
:10207000511F69817A818B819C810E943333022FA9
:1020800030E00A3290F5A901440F551F420F531F4B
:1020900055954795142F109535E5E32EF12CE01A50
:1020A00080911701F81670F10E94570EAD81BE8124
:1020B00014969C9181E0911519F0903219F48FEFEC
:1020C0008093050180910501890FED81FE81848354
:1020D0000F900F900F900F900F900F90DF91CF9176
:1020E0001F910F91FF90EF90089585E590E0821B7E
:1020F000930BAC01440F551F480F591F4AF64F5F11
:102100005F4FC6CF8E2DF1FC802F409115014F0DF2
:102110005527551F9A01220F331F240F351F2056B4
:102120003D4F412F6091F3040E941807F394B8CFFC
:102130000F931F93CF93DF93EC0100E010E0909199
:102140001701091711055CF00E94570E8C8101964A
:1021500081708C83DF91CF911F910F9108958091B1
:102160001501A801480F511D9A01220F331F240F9A
:10217000351F20563D4F4C816091F3048091F2044D
:102180009695091711054CF4411549F04091F40456
:102190000E9418070F5F1F4FD2CF4115B9F340E0DF
:1021A000F7CF9091F10490FF17C0909115015091D5
:1021B0001601292F30E0F901EE0FFF1FE20FF31F88
:1021C000E056FD4F951710F00C94570E81836083F5
:1021D00042839F5F3396F6CF08950F931F93CF935B
:1021E000DF9300D00F92CDB7DEB78C0180919D02B6
:1021F00081110AC09E012F5F3F4F4FEF6FEF0E948A
:1022000018078A8180939D02F8016481613049F04A
:102210006230F1F080919D0240E0611531F040E0C4
:1022200019C060919D0240E080E00E94D110F80149
:10223000848190E0019663E070E00E94CC31848359
:102240000F900F900F90DF91CF911F910F910895F4
:1022500040919D0280E060E0E8CFCF93DF9300D013
:102260000F92CDB7DEB79091F10490FF0FC09E01A1
:102270002F5F3F4F0E9418074B8169818A810F9021
:102280000F900F90DF91CF910C94D1100F900F9081
:102290000F90DF91CF910895CF93DF93EC01EC8104
:1022A000F0E0E350FE4F4491E1EFF4E06281818180
:1022B0000E942D118C818F5F8C83DF91CF910895C7
:1022C000CF93DF93EC01E1EFF4E0438162818C81F5
:1022D0000E942D118C818F5F8C83DF91CF910895A7
:1022E0000F931F93CF93DF9300D00F92CDB7DEB73C
:1022F0006A834B8329838115C9F06093EC040E94A3
:10230000C80980935F02909360029A8181E091FDF9
:1023100084E090FD880F92FD82950F900F900F90B2
:10232000DF91CF911F910F910C9463048091EC0485
:102330009A81981336C080915F02909160020E944A
:10234000E209883C910568F51B81105E8A819B81BA
:102350008917B1F087708A8301E0802F0A8001C05D
:10236000880F0A94EAF70E946D04183048F48B81B4
:10237000877001C0000F8A95EAF7802F0E946304DE
:1023800089810E947B0989810E94A9089B8118305C
:1023900048F00F900F900F90DF91CF911F910F9108
:1023A00008959A8181E091FD84E090FD880F92FD6F
:1023B00082950F900F900F90DF91CF911F910F9109
:1023C0000C946D04CF93DF93EC0181E08093E900DE
:1023D0008FEF9091E80095FD06C095ED9A95F1F785
:1023E00000008150B1F78091E80085FD03C0DF91C6
:1023F000CF91089540E050E068E070E0CE010E9487
:10240000B70C8091E8008E778093E80088E0FE01A9
:10241000A2E5B2E001900D928A95E1F7E8CF8093B2
:102420004F02609350027093510280910E038430EA
:10243000F9F482E08093E9008FEF9091E80095FD38
:1024400006C095ED9A95F1F700008150B1F78091A3
:10245000E80085FF0DC040E050E063E070E08FE4ED
:1024600092E00E94B70C8091E8008E778093E8009C
:102470000895BC0183E00C940F12BC0184E00C941D
:102480000F12CF93C0910005C2FB992790F99817BE
:1024900099F080FBC2F9C09300056091FF0484E0CD
:1024A00090E00E9487326C2F82E290E00E94873297
:1024B00082E0CF910C944409CF910895682F86E073
:1024C00090E00C9487321092F604EDE3F2E086E09F
:1024D000DF011D928A95E9F70C94D2081F93CF93E0
:1024E000DF93CDB7DEB7AA970FB6F894DEBF0FBE65
:1024F000CDBF87E492E0FC0101962091F10020839A
:1025000022E08F349207B9F780914802893009F4AC
:1025100056C0C8F4823009F4B3C0833009F482C0D5
:10252000813071F18091E80083FFE7C0809147021C
:10253000909148029A3008F0E0C0E92FF0E0E95AA3
:10254000FC4C0C94E0318A3009F489C08B3051F78F
:1025500080914702813231F780914B0290914C0279
:10256000892B01F78091E800877F8093E8000E9423
:10257000C40B80914902809304010E946312D2CF60
:1025800080914702813A71F68091E800877F8093BD
:10259000E80080914B0290914C02892B61F060E041
:1025A00080E090E070E00E94370B8091E8008B772C
:1025B0008093E800B7CF68E082E592E0F3CF8091A6
:1025C0004702813209F0AECF80914B0290914C02CC
:1025D000029708F0A7CF8091E800877F8093E800FA
:1025E0008091E80082FF19C02091F3008091F200F1
:1025F000922F029731F48091F100813011F08630F2
:1026000021F48091F10080935A028091E8008B7749
:102610008093E8000E94C40B85CF80910E03811146
:10262000DFCF80CF80914702813A09F07BCF809144
:102630004B0290914C02892B09F074CF8091E800F5
:10264000877F8093E8008091E80080FFFCCF809135
:1026500004018093F1008091E8008E77D9CF8091BA
:102660004702813209F05ECF8091E800877F809336
:10267000E8000E94C40B80914A028093430252CF2B
:1026800080914702813A09F04DCF8091E800877F21
:102690008093E8008091E80080FFFCCF80914302A6
:1026A000D8CF803889F0823841F580914B028F7005
:1026B000873018F58093E9008091EB0085FB88272F
:1026C00080F91092E90006C08091C602880F9091AF
:1026D0004402892B9091E800977F9093E8008093C3
:1026E000F1001092F1008091E8008E7729C08111ED
:1026F0001CC080914902813041F18091E80083FF44
:102700000AC08091E800877F8093E8008091EB0009
:1027100080628093EB00AA960FB6F894DEBF0FBEDE
:10272000CDBFDF91CF911F910895823031F7809115
:102730004902811581F01092E9008091E800877FBD
:102740008093E8000E94C40BD8CF933009F080E05A
:102750008093C602F0CF80914B028F702FEF280F2D
:10276000263058F68093E9002091EB0020FFE3CF5C
:10277000933031F48091EB0080628093EB00DBCFEB
:102780009091EB0090619093EB0021E030E0A90183
:1027900001C0440F8A95EAF74093EA001092EA00DC
:1027A0008091EB008860E9CF8111A7CF1091490299
:1027B0001F778091E3008078812B8093E3008091E4
:1027C000E800877F8093E8000E94C40B8091E800B6
:1027D00080FFFCCF8091E30080688093E30083E07A
:1027E000111101C082E080930E0387CF80588230A0
:1027F00008F083CF2091490230914A022C3D53E0EA
:10280000350791F583E08A838AE289834FB7F8948C
:10281000DE01139620E03EE051E2E32FF0E050931A
:102820005700849120FF03C082958F703F5F8F70A7
:102830008A30C0F0895C8D931D922F5F243169F737
:102840004FBF8091E800877F8093E8006AE270E0E4
:10285000CE0101960E94370B8091E8008B77809320
:10286000E8004BCF805DE7CF832F90E08330910568
:1028700019F160F48130910509F46CC08230910542
:1028800009F03BCF8FE9EEE1F1E029C020914B0246
:1028900030914C028132910509F453C08232910586
:1028A00009F02BCF2130310508F45CC009F025CFA9
:1028B00082E3ECEAF0E013C0822F90E0213099F13E
:1028C00082309105B9F1009709F017CFE9EFF1E0F7
:1028D000E4918E2FE9EFF1E0009709F40ECF2091FB
:1028E000E800277F2093E80020914D0230914E02AE
:1028F0008217930708F49C0140E021153105B1F5DA
:10290000411134C08091E80082FDA6CF80910E0372
:10291000811509F4A1CF853009F49ECF8091E8009C
:1029200083FFF0CF99CFE9EEF1E0E4918E2FE9EE4D
:10293000F1E0D2CFEFECF1E0E4918E2FEFECF1E09B
:10294000CBCF2130310550F009F0D7CE89E0E9E452
:10295000F1E0C5CF82E1EDEBF1E0C1CF89E0E0E34A
:10296000F1E0BDCF80E4EEEDF0E0B9CF80910E0351
:10297000811509F471CF853009F46ECF8091E8009C
:1029800083FD6ACF8091E80082FDBCCF8091E80092
:1029900080FFB3CF4091F3008091F200942F211576
:1029A000310519F08830910550F041E0089709F0A1
:1029B00040E08091E8008E778093E8009ECF4491BC
:1029C0004093F1003196215031090196E8CF8038CB
:1029D00009F093CE8091E800877F8093E800809192
:1029E00045028093F1007FCE811187CE109149027C
:1029F000123008F082CE8091E800877F8093E80053
:102A0000109345020E94C40B1115D1F084E080930D
:102A10000E0342E061EC81E00E94940B42E261EC23
:102A200082E00E94940B42E361E883E00E94940BF1
:102A300042E361E884E00E94940B80910E035DCE36
:102A40008091E30087FDE2CF81E0E1CFCF93DF9378
:102A500000D000D0CDB7DEB769837A838B839C83A7
:102A60000E94A80749815A816B817C8188E090E0AF
:102A70000F900F900F900F90DF91CF910C9499329F
:102A800087E18093F1041092F2048FEF8093F304B6
:102A900080E88093F4041092F5048091F004836040
:102AA0008093F00467E170E08FEF90E80C942615B6
:102AB0008091F504833018F48F5F8093F504609162
:102AC000F1047091F2048091F3049091F4040C9459
:102AD00026158091F504811519F081508093F50435
:102AE0006091F1047091F2048091F3049091F404E8
:102AF0000C942615BF92CF92DF92EF92FF920F9324
:102B00001F93CF93DF9300D000D0CDB7DEB7182F3F
:102B1000E62E042F2C839091F10490FF8BC0292F77
:102B20002695E22FF0E0E256FE4F80818093EE047E
:102B30009E7F9230E9F59E012F5F3F4F812F0E94CB
:102B400018074B8169818A810E94D1108091F2041B
:102B5000811308C08091F3048E1104C08091F404A5
:102B6000801729F08091F00482608093F004109324
:102B7000F204E092F3040093F4048C81811509F4CB
:102B800059C06091F1047091F2048091F304909126
:102B9000F4040F900F900F900F90DF91CF911F9141
:102BA0000F91FF90EF90DF90CF90BF900C9426157F
:102BB000823019F40091F404C9CF863019F41091D1
:102BC000F204C4CF8930D9F3893109F0BFCF37EE91
:102BD000F32EF20EEF2DE695F0E0E350FD4FC59099
:102BE000D590B12CD12C60911701B61618F00E9427
:102BF000570EACCFBC9CC001BD9C900D112470E061
:102C00000E94B831812FF0FC13C0860F409115014E
:102C10004B0D5527551F9A01220F331F240F351FC7
:102C200020563D4F402F6E2D0E941807B394DBCFE6
:102C3000861BECCF0F900F900F900F90DF91CF91EC
:102C40001F910F91FF90EF90DF90CF90BF9008956C
:102C5000E1EFF4E0818121E043816281885F0C949F
:102C60007A15E1EFF4E0818121E0438162818850AF
:102C70000C947A15E1EFF4E0628121E1620F08F42F
:102C80006FEF21E0438181810C947A15E1EFF4E04C
:102C9000628121E1621B08F460E021E043818181CF
:102CA0000C947A15E1EFF4E0438121E1420F08F43E
:102CB0004FEF21E0628181810C947A15E1EFF4E01D
:102CC000438121E1421B08F440E021E062818181DF
:102CD0000C947A1569EE7EEF80E090E00E94A532B8
:102CE00060E082E090E00E94873260E083E090E064
:102CF0000E9487321092F8041092F9041092FA049C
:102D00001092FB0460E084E090E00E94873260E073
:102D100082E290E00E94873260E085E090E00E94CD
:102D2000873260E086E090E00E9487326FEF87E0B4
:102D300090E00E94873260E070E0AB0188E090E0B4
:102D40000E94993260E08DE090E00E94873260E05E
:102D500070E0AB0188E190E00E94993260E087E189
:102D600090E00E94873260E070E0AB018CE190E07F
:102D70000E94993260E070E080E290E00E94A5320B
:102D800060E070E0AB0188E190E00E94993260E081
:102D900070E0AB018FE090E00E94993260E070E05B
:102DA000AB0183E190E00C949932CF93DF930F92C3
:102DB000CDB7DEB784E090E00E947332898382E26F
:102DC00090E00E9473322981382FC9010F90DF9162
:102DD000CF9108950F931F93CF93DF9300D000D02E
:102DE0000F92CDB7DEB78D832B833C83382F330F03
:102DF000330B89833A8341155105A1F03AE08302F0
:102E0000F0011124ED5CFE4F8381948187509D4F2A
:102E1000E2812E2F30E04E17510508F49A01A901E6
:102E20000E94633289819A810E94D430892B41F5B6
:102E300001151105D1F0ED81FAE0EF02C001112476
:102E4000FC01ED5CFE4F2581422F50E00217110579
:102E500008F4A8018D5C9E4FFC0166817781675064
:102E60007D4F8B819C810E94633281E00F900F9097
:102E70000F900F900F90DF91CF911F910F910895B8
:102E800080E0F4CF0F931F93CF93DF9300D000D057
:102E9000CDB7DEB74091E3025091E4026091E502C4
:102EA0007091E6022FB7F8948091F5029091F602A6
:102EB000A091F702B091F8022FBF841B950BA60BCF
:102EC000B70B11E084369105A105B10518F10E94F8
:102ED000DC0DDC01CB010296A11DB11D89839A8313
:102EE000AB83BC8300E010E0980144E050E0BE01F9
:102EF0006F5F7F4F84E00E94EA16182F811551F012
:102F00000E94D4096093E3027093E4028093E50287
:102F10009093E602812F0F900F900F900F90DF910A
:102F2000CF911F910F910895CF92DF92EF92FF9270
:102F30000F931F93CF93DF9300D000D000D0CDB775
:102F4000DEB76E834A835B832C833D83680101E097
:102F500010E09E012F5F3F4F40E050E0BA010E9419
:102F6000EA16182F811509F44FC0EA81FB814081D0
:102F70005181628173812FB7F8948091F50290910D
:102F8000F602A091F702B091F8022FBF841B950BB7
:102F9000A60BB70B84369105A105B10538F4B7012E
:102FA000C6010E9465089981891771F187012C81FA
:102FB0003D8140E050E0BA018E810E94EA16082F60
:102FC000B701C6010E946508998110E098130CC0F2
:102FD000102F117000FF08C00E94D409EA81FB8104
:102FE0006083718382839383812F0F900F900F9062
:102FF0000F900F900F90DF91CF911F910F91FF9045
:10300000EF90DF90CF900895A701B6018C819D814C
:103010000E946332E9CFEF92FF920F931F93CF93F9
:10302000DF9300D000D000D00F92CDB7DEB76E8313
:103030007F8385E0E82EF12C0AEF12E09E012F5FDE
:103040003F4F41EF52E061E080E00E94941781150C
:1030500049F095E0FE013196ACEEB2E001900D92A0
:103060009A95E1F795E0ECEEF2E0AE81BF81019038
:103070000D929A95E1F727960FB6F894DEBF0FBE32
:10308000CDBFDF91CF911F910F91FF90EF900895E9
:10309000EF92FF920F931F93CF93DF930F92CDB7D1
:1030A000DEB781E0E82EF12C00E013E09E012F5FF7
:1030B0003F4F48EE52E063E082E00E949417182FE1
:1030C000811509F1E091E702F0E0E05EFC4F8981B3
:1030D0009081891B282F90E0121664F0282F87FD1D
:1030E00020E0821B811561F08F5F90819150908369
:1030F000912FF8CF215090819F5F9083912FECCF3B
:1031000091110E94E009812F0F90DF91CF911F91C3
:103110000F91FF90EF900895CF92DF92EF92FF9280
:103120000F931F93CF93DF93EB01942FB901A80165
:10313000C880D980EA80FB80EFB7F8940091F5024F
:103140001091F6022091F7023091F802EFBF0C19AE
:103150001D092E093F09043611052105310510F41A
:10316000911569F000E010E098010E94EA168115BF
:1031700039F00E94D409688379838A839B8381E034
:10318000DF91CF911F910F91FF90EF90DF90CF9043
:1031900008950F931F93CF93DF930F92CDB7DEB7B0
:1031A0008091EB0480FF1AC0869586958695898369
:1031B00041E090910503981301C040E001E010E068
:1031C0009E012F5F3F4F6FED72E085E00E948C18EB
:1031D0000F90DF91CF911F910F91089580E0E7CF7D
:1031E0000F931F93CF93DF93CDB7DEB728970FB61A
:1031F000F894DEBF0FBECDBF25E0E1EFF4E0CE01D5
:103200000196DC0101900D922A95E1F73091EE04D0
:103210002091EF045091F0043E832F83588741E0C2
:103220009C01511101C040E008E010E06BED72E03C
:1032300086E00E948C1881111092F00428960FB637
:10324000F894DEBF0FBECDBFDF91CF911F910F91DC
:103250000895BF92CF92DF92EF92FF920F931F9348
:10326000CF93DF9300D000D00F92CDB7DEB7FC0133
:1032700062816983B48081E08483EDEFF1E0D490D2
:10328000ECE7F2E0E491E12C75E0F72ECC24CA944F
:10329000ED19EA831B8280911701E81680F00F90E8
:1032A0000F900F900F900F90DF91CF911F910F9182
:1032B000FF90EF90DF90CF90BF900C94570E0E2DA3
:1032C00010E09981933058F4FE9CF0011124EF59DD
:1032D000FD4F8091F20480838091F3048183F09EFE
:1032E000F001F19EF00D1124EF59FD4FB1101CC0FB
:1032F0001382128280911501800F912F911D9C01E4
:10330000220F331F280F391F20563D4FF09EF0012A
:10331000F19EF00D1124EF59FD4F428161818081B2
:103320000E941807E394B7CFEC83FD838381811556
:1033300001F181508383C89EC0011124648170E033
:103340000E94B831E62FF0E0E350FE4F8491E82F61
:10335000ED19CE9EC00111246A817B810E94B83193
:103360008091F404689FB0011124EC81FD81728387
:10337000C1CF0E943B32AC019091F40496959158D4
:1033800062E071E0969F9001979F300D1124232FEA
:1033900030E0421753070CF0ADCF79817330B0F0B5
:1033A0000E943B326FEF70E00E94CC31EC81FD81D6
:1033B00080830E943B322091F3042695622F70E0B7
:1033C0000E94CC31280FEC81FD812183F09EF00119
:1033D000F19EF00D1124EF59FD4F12828091F404FB
:1033E000893C58F088ECF09EF001F19EF00D11241C
:1033F000EF59FD4F848383837DCF8431A0F784E12F
:10340000F2CF80E090E00E948132893E9E4F51F0E1
:103410000E946A168091EB04847089618093EB04AA
:103420000E945E1286E090E00E9473328093EB046B
:10343000803320F0877088628093EB049091EB04D6
:10344000892F817090FF04C0892F86958695869577
:103450000C94C3076091F104669570E04BE050E076
:1034600088E091E00E944932892B19F481E0809331
:10347000EF040E94F00D8093160390931703809140
:10348000F00484608093F00408959091F10490FF1B
:103490003EC08115A9F18B32A8F58F77880F9091E6
:1034A000F1049170892B8093F1048091F004816084
:1034B0008093F004611551F06091F1047091F20471
:1034C0008091F3049091F4040E9426156091F10418
:1034D000669570E04BE050E088E091E00E94493250
:1034E000892B91F00E94B60781E08093190320E0B8
:1034F0004091F4046091F3048091F2040C947A15E5
:1035000081E0CCCF8AE2CACF0E942A1AEDCF08957B
:10351000DF92EF92FF920F931F93CF93DF93CDB77C
:10352000DEB761970FB6F894DEBF0FBECDBFFE01C8
:1035300031968AE0DF011D928A95E9F789E7E82E46
:1035400081E0F82E8F01E88B198BF70181917F01C3
:103550008F3F09F43FC0F894E82FE295EF70F0E058
:1035600021A18F7041E001C0440F8A95EAF7842FB2
:10357000922F942B91A392A18095892382A3789472
:1035800000C0E3E8F1E031E0D12C21912F3F79F048
:10359000A22FA295AF70A05EB0E08C9190E02F704A
:1035A00002C0959587952A95E2F780FF53C080E089
:1035B000D82A330F89E891E08E179F0731F7F7017A
:1035C00082918F3F11F00E94FD0690EA9A95F1F7E3
:1035D000D801DC920F5F1F4FBEE7EB16B1E0FB0690
:1035E00009F0B3CF4AE050E06889798980E393E03D
:1035F0000E9456327C0110912F03892B69F18AE0D9
:10360000E889F989A0E3B3E001900D928A95E1F78A
:1036100081E0809312030E94C80980931003909365
:10362000110380911003909111030E94E209059704
:1036300068F0A12FB0E0AB5DBC4F85E0E0E3F3E0C4
:1036400001900D928A95E1F710921203EF2841F054
:1036500081E05DC0832FACCF809112038111E1CF57
:103660000E94B90D00912F0310E00B5D1C4F7E01ED
:10367000EBE0EE0EF11C811509F48BC085E0D7015B
:103680001D928A95E9F7809113038A3008F04DC0A6
:103690004BE058E1B701C8010E94090E811509F4F9
:1036A00066C048E458E1B701C8010E94090E8115BF
:1036B00009F45DC042E457E1B701C8010E94090E58
:1036C000811509F454C049EC58E1B701C8010E94C2
:1036D000090E811509F44BC040EF58E1B701C8014C
:1036E0000E94090E811509F442C0109213038091C3
:1036F000240390E045E050E0B7018B5D9C4F0E94B1
:10370000563221E020932303892B21F580E0619636
:103710000FB6F894DEBF0FBECDBFDF91CF911F91E2
:103720000F91FF90EF90DF90089580911403909196
:1037300015030E94E209843F914008F0A9CF8091CF
:103740002303811519F385E0F70111928A95E9F7B2
:1037500010922303A0912403B0E0AB5DBC4F85E041
:10376000FE013B9601900D928A95E1F771CF809111
:1037700013038F3F39F40E94C80980931403909378
:103780001503DDCF8F5F809313038A3008F4AFCF2A
:10379000F2CFF89485E0F801AAEFB2E001900D9223
:1037A0008A95E1F765E070E08AEF92E00E94650893
:1037B0008093F9027894F894E0912203F0E0E05EBF
:1037C000FC4F80818B878093000361E070E0C7012C
:1037D0000E9465088093FF027894F894E0900103BA
:1037E000F0900203009103031091040380911C03E5
:1037F00090911D03A0911E03B0911F03E816F906D6
:103800000A071B07D1F0E0921C03F0921D030093FE
:103810001E0310931F030E94B90D81110EC00E9458
:10382000D409E61AF70A080B190BE0923A03F09252
:103830003B0300933C0310933D037894F8948091EC
:1038400005030E94C3077894F89480910D038115B5
:1038500079F180FF0DC0809106039091F10480FF03
:1038600029C091609093F10460E086950E94451A0A
:1038700080910D0381FF09C020E040910903609110
:103880000803809107030E947A1580910D0382FF3F
:1038900006C080910C03811519F10E942A1A8091AB
:1038A0000D0383FF03C081E08093190310920D0381
:1038B00078942CCF9E7F9093F1040E94B60780915C
:1038C000F00481608093F004FFEF20E742E0F150C4
:1038D00020404040E1F700C000000E94570EC8CFD2
:1038E0000E94B607DCCF8091F10486958F5F8B3202
:1038F00008F081E061E00C94451A8091F10486950E
:10390000815009F48AE261E00C94451A9091F10427
:1039100090FF07C09695981720F0961710F40C9416
:10392000731C61E00C94451AAF92BF92CF92DF9264
:10393000EF92FF920F931F93CF93DF937C01DC01F3
:1039400013968D919D911597892B11F40C94FE255A
:1039500011968C919E9189238F3F11F40C94FE2532
:1039600061E0C7010E947506EC018B5A9D454A979C
:10397000B0F56C2FC73BDD4580F56759F7018281B3
:103980004FE7811101C040E09091E8048091E90483
:103990008770880F97FD81600E94200A8091FD0446
:1039A000877011F40C94FE25F7018281811511F4C2
:1039B0000C94FE258091000582FF02C00C94FE2528
:1039C00082E0DF91CF911F910F91FF90EF90DF90F8
:1039D000CF90BF90AF900C9444096155CFCFC83AB7
:1039E000FDE5DF0709F496C008F058C0C63A3DE58A
:1039F000D30709F46DC0C73A6DE5D60709F47AC05C
:103A0000C737FCE5DF0708F04EC0CF322CE5D20700
:103A100008F09DC0F7018281811509F4A4C2CF3B53
:103A2000FCE5DF0709F406C308F093C2CD3B3CE593
:103A3000D30709F4D6C2CE3B6CE5D60709F4DFC242
:103A4000CC3B7CE5D70709F4B4C21092EC04C43037
:103A5000ADE5DA0708F08CC3CB3FBCE5DB0738F4F3
:103A6000CE0182509C45449710F00C94E4250E94AE
:103A7000D5168093FF0490930005C631FCE5DF075F
:103A800008F498C3C4302DE5D20708F489C3909197
:103A9000FF04892F8F7E94FF80619CC3C93A7DE526
:103AA000D70709F448C0CE0187579C458534910556
:103AB00008F0B0CFFE01E158FC45D70112969C9169
:103AC000EB33F10508F096C0EF59FC4C0C94E03153
:103AD000D70112968C91811509F460CF61E083E0E3
:103AE00090E00E94873261E070E080E090E00E9408
:103AF000E00854CFF7018281811531F081E00E9406
:103B00000B090E94F4084ACF81E00E9425090E9417
:103B1000F40844CFD70112968C91811531F082E0E0
:103B20000E940B090E94F40839CF82E00E94250907
:103B30000E94F40833CFF7018281811521F083E0E0
:103B40000E940B092BCF83E00E94250927CF00910B
:103B5000E8044091E9044770440F07FD41600F7786
:103B60008C2F8F5290E0F7012281BC0166597C4F67
:103B70006B01211539F19091E704892F8F7095958C
:103B80009595959595959F527CE0879F900D112472
:103B9000C90F2C2F2F774069E091FA03F091FB03B6
:103BA00063E070E08AEF93E00995F601E85BFF4F70
:103BB00080818F5F8083D6018C918F3F09F0EECE9C
:103BC000CC93ECCEFB012081E85BFF4F80818150DC
:103BD00080838111E3CE2F774068E091FA03F09162
:103BE000FB0363E070E08AEF93E009958FEFD60165
:103BF0008C93D4CE911509F4D1CEC757CF70809154
:103C0000E704807FC82BC093E704C8CE911509F460
:103C1000C5CE8091E704982F9F7009F4BFCE915FC5
:103C20009F70807F892B8093E704B8CE911509F4AB
:103C3000B5CE8091E704982F9F70993008F0AECEF2
:103C40009F5F9F70807F892B8093E704A7CE91159B
:103C500009F4A4CEC958C295C07F8091E7048F7043
:103C6000C82BC093E7049ACE911509F497CE909192
:103C7000E704892F82958F70903B08F48FCE815F87
:103C80008295807F9F70892B8093E70487CE911562
:103C900009F484CE9091E704892F82958F70903635
:103CA00008F07CCE8F5F8295807F9F70892B8093F8
:103CB000E70474CE911509F471CEC2598CE0C89F07
:103CC000C02D1124CF778091E80480788C2B8093CD
:103CD000E80464CE911509F461CE8091E804982F30
:103CE0009F7709F45BCE80789F3721F485678093B6
:103CF000E80454CE9D3030F09D509F77892B8093FF
:103D0000E8044CCE8093E80449CE911509F446CEE0
:103D10008091E804982F9F779F3709F43FCE93371F
:103D200038F4935F9F778078892B8093E80436CEB0
:103D30008F678093E80432CE911509F42FCECF59C6
:103D40008091E804C0FB87F98093E804C695C770AA
:103D50008091E904887F8C2B8093E9041FCE911514
:103D600009F41CCE3091E8042091E904822F877079
:103D7000880F37FD8160815F982F9F7080FB37F936
:103D80003093E804892F8695287F822B8093E9045D
:103D900005CE911509F402CE3091E8042091E90492
:103DA000822F8770880F37FD81608F5F982F9F70FB
:103DB00080FB37F93093E804892F8695287F822B82
:103DC0008093E904EBCD911509F4E8CD9091E804D6
:103DD0008091E9048770880F40E06BE797FD816070
:103DE0000E94200ADBCD4FE7911101C040E0909185
:103DF000E8048091E9048770880F60E497FD816092
:103E00000E94200ACBCD4FE7911101C040E0909174
:103E1000E8048091E9048770880F61E497FD816070
:103E20000E94200ABBCD4FE7911101C040E0909164
:103E3000E8048091E9048770880F62E497FD81604F
:103E40000E94200AABCD4FE7911101C040E0909154
:103E5000E8048091E9048770880F63E497FD81602E
:103E60000E94200A9BCD4FE7911101C040E0909144
:103E7000E8048091E9048770880F63E497FD81600E
:103E80000E94200A8BCD81E0911101C08FEF8093B9
:103E9000690384CD911509F481CD2091E904922F15
:103EA0009695969596959F7081E0890F8F70880FF3
:103EB000880F880F2778822B8093E904282F287792
:103EC00009F06CCD990F990F990F8778982B9093E3
:103ED000E90464CD911509F461CD9091E904892F2D
:103EE000887709F45BCD892F869586958695815FC5
:103EF0008F70880F880F880F9778892B8093E9043B
:103F00004DCD2091E8048091E9048770880F27FD4A
:103F10008160911529F060E070EE0E94310A3ECD7B
:103F200060E070E00E94310A39CD2091E804809170
:103F3000E9048770880F27FD8160911529F06FEFE4
:103F40007FE10E94310A2ACD60E070E00E94310AD0
:103F500025CDC03C9CE5D90709F48BC0C13CACE53C
:103F6000DA0709F4A7C0C43FBCE5DB0709F4E8C0E1
:103F700008F0C7C0C93DFCE5DF0709F4DBC0CA3D56
:103F80002CE5D20709F4EEC0C83D3CE5D30709F49F
:103F9000CBC081115ACDC6312CE5D20709F0B0C192
:103FA0008091ED04811509F4A9C185E30E941C04E8
:103FB00021C68091EB04877088628093EB0491E0C6
:103FC000883008F490E08091EB0490FB80F98093B6
:103FD000EB0485E00E94C3078091EB040E945E120F
:103FE000DDCC8091EB0487708E7F8093EB0480E0C2
:103FF0000E94C3078091EB040E945E12CFCC809197
:10400000EB04883078F088508093EB0491E088309E
:1040100008F490E08091EB0490FB80F98093EB042E
:104020000E945E128091EB048695869586950E948B
:10403000C307B4CC9091EB04892F8695869586951D
:10404000983240F48F5F880F880F880F9770892B04
:104050008093EB048091EB0481608093EB040E94D9
:104060005E128091EB048695869586950E94C30723
:1040700095CC8091EB0480FF09C08E7F8093EB0488
:104080000E945E1280E00E94C30788CC816080930A
:10409000EB04813019F489E08093EB048091EB0408
:1040A0000E945E128091EB048695869586950E940B
:1040B000C30774CC8091EB048695869586958F5FB7
:1040C0008F71863008F080E0880F880F880F9091FC
:1040D000EB049770892B8093EB0491E0883008F40F
:1040E00090E08091EB0490FB80F98093EB040E94B8
:1040F0005E128091EB048695869586950E94C30793
:104100004DCCC63F6CE5D60709F1C73F7CE5D70724
:1041100019F1C53F9CE5D90709F03BCF27E245EEF1
:1041200064EE0E9470113ACC26E241EE61EE0E94EC
:10413000701134CC27E245EE65EE0E9470112ECC52
:1041400026E241EE60EE0E94701128CC26E241EE9C
:1041500062EE0E94701122CC27E245EE66EE0E94CC
:1041600070111CCC28E241E065EE0E94701116CC63
:10417000C236EDE5DE0709F47ACCCB35BDE5DB07C9
:1041800009F41AC208F0D7C1C115FCE5DF0709F42C
:10419000E4C1CF3DDC4509F0CDC00E946A16FECBDC
:1041A000FE01EC5FFC45E830F105F8F4E456FC4C08
:1041B0000C94E031FE01E350FC458091FF048160E6
:1041C000E331F10538F4EC55FC4C0C94E03180916E
:1041D000FF0482608093FF040DC08091FF0484601F
:1041E000F9CF8091FF048860F5CF80910005816050
:1041F000809300056091FF04C091000584E090E089
:104200000E9487326C2F82E290E00E9487320E94E7
:104210006312C4CB809100058260EACF8091FF04D5
:104220008061D8CF8091FF048062D4CF8091FF0459
:104230008064D0CF0E9463128091FF048068CACF4F
:104240008091FF048C60C6CF809100058360D0CF41
:104250008091FF048E7FBECF8091FF048D7FBACF07
:104260008091FF048B7FB6CF8091FF04877FB2CF10
:10427000809100058E7FBCCF809100058D7FB8CFE7
:104280008091FF048F7EA6CF8091FF048F7DA2CF07
:104290008091FF048F7B9ECF0E9463128091FF0468
:1042A0008F7798CF8091FF04837F94CF8091000512
:1042B0008C7F9ECF9091FF04892F8B7F92FF84602B
:1042C000877F92FF886086CF80910005982F909518
:1042D00090FB80F990FB81F98BCF0E946312909143
:1042E000FF04892F97FB87F9805874CF61E08EE037
:1042F00090E00E9487327ECF60E0F9CF89E256CE0F
:10430000C73D3CE5D30790F4C33C6CE5D60790F07D
:104310008091F6048272FE01E45CFC45E331F10514
:1043200008F065C0E954FC4C0C94E031CE35DD4515
:1043300009F4FCC0D70112968C911297CD911C9173
:10434000811509F43DC18C2F912F0E941A06D82F98
:10435000682F8C2F912F0E94BD03EC2FF0E0B6E068
:104360001B9FE00DF11D11242CE3D29FE00DF11DE8
:104370001124EE0FFF1FE157FB4F859195910E948D
:10438000B704C82F092FD7011596DC90D2944FE0BF
:10439000D4221397DC918091FD048770D1F0D11560
:1043A000C1F0892F807F803441F090E29C0F9830DB
:1043B00080F0803611F4C63F61F08091000582FDE7
:1043C00008C082E00E9444098091FD04877011E0DA
:1043D000811110E0A02EA2942FE0A222003C08F050
:1043E000A6C1B12CF501E653FC4C0C94E031809150
:1043F000F10480FF20C08E7F8093F1046091F1046E
:104400007091F2048091F3049091F4040E942615B7
:104410000E94B6078091F00481608093F0048FEFD2
:1044200090E7A2E081509040A040E1F700C000007A
:104430000E94570EB3CA81608093F10461E08695B3
:104440000E94451AABCA4DE75CE163E77CE10E943C
:10445000BE07A4CA43E75CE16DE77CE10E94BE07AA
:104460009DCA41E356E168E276E10E94BE0796CA22
:1044700048E256E161E376E10E94BE078FCA46E456
:1044800056E16AE376E10E94BE0788CA4AE356E134
:1044900066E476E10E94BE0781CA4EE556E162E518
:1044A00076E10E94BE077ACA42E556E16EE576E102
:1044B0000E94BE0773CA49E655E168E575E10E94AE
:1044C000BE076CCA48E555E169E675E10E94BE0782
:1044D00065CA61E081E00E94451A60CA65E082E039
:1044E0000E94861C5BCA68E086E00E94861C56CA51
:1044F0006EE089E00E94861C51CA64E18FE00E9450
:10450000861C4CCA67E185E10E94861C47CA61E0AF
:1045100088E10E94451A42CA62E289E10E94861C33
:104520003DCA61E083E20E94451A38CA6AE285E228
:104530000E94861C33CACC353DE5D30709F43EC042
:1045400080910005002482FF0394802DCD35DD4548
:1045500009F0F0CE0E944112EDCE0E9463127FEF6F
:1045600084E39CE0715080409040E1F700C000007F
:1045700081E08093E00080E28093D8001092C9002F
:10458000AFE1BEE41197F1F700C00000A7E0B0EB87
:10459000CD018093490590934A05A0934B05B093B4
:1045A0004C0588E19CE00FB6F894A89580936000D4
:1045B0000FBE90936000FFCF81E0CCCF80E0CACFE8
:1045C0008C2F912F0E94EA03D82FC7CEB02FBF7037
:1045D000DB2E003118F0D29490EFD922D115B9F02A
:1045E000D11469F080E28C0F883010F0C11109C03D
:1045F0008091F6048D298093F6040E9436048C2F56
:104600007BC0809101058D2980930105F6CF8C2F09
:104610000E94A908D1100BC0E8E0AE1AB108F4E07E
:10462000AF16B10408F083C00E94F90D80C080E28B
:104630008C0F883010F0C11104C08D2D0E94280409
:1046400006C0D094809101058D21809301050E94C0
:1046500036041115A9F08091FD0480FD11C0F70109
:1046600012828595859585950E940B09C7010E9448
:10467000941C8091FD048595859585950E9425095A
:1046800060E0C701DF91CF911F910F91FF90EF90F4
:10469000DF90CF90BF90AF900C947506202F2F70B5
:1046A000C22E802F807F803219F0C29480EFC82202
:1046B000C13090F009F458C0D11509F464C0D11488
:1046C00009F458C0D70115968C91159780FF97CFA4
:1046D0008F7015968C934EC02091000522FF17C055
:1046E000D11569F0C11439F08091F6048C298093BA
:1046F000F6040E94360480E00E947B0918C080E026
:104700000E94A908C11409F487CF8C2D97CFD11529
:10471000F1F09091F704892F8C2931E0D3122BC04E
:1047200022FD7ACF981709F477CF8093F704D1153B
:1047300009F48FCF007F003619F4C63F09F489CF02
:104740008091FC04823009F03BC283E0FCC1D110AF
:1047500006C00E9430048C2D0E946D047ACF61E067
:10476000D61609F459CFF5CFD11541F076E0D7161A
:1047700008F052CF8C2D0E946304D9CF85E0D81663
:1047800008F04ACFE8CFD11431F3C93349F4BFEF71
:10479000E7EEF3E0B150E040F040E1F700C0000088
:1047A0008C2F0E94A90855CF802F869586958370FF
:1047B000813050F009F0BBCFD11599F08C2F902F9C
:1047C00093700E949308B3CFD11531F08C2F902FA6
:1047D00093700E947D08ABCF80E090E00E947D083E
:1047E00038CF80E090E00E94930833CF802F837011
:1047F00009F068C0D11110CF2C2F22952695277073
:10480000220F220F4C2F4F7050E060E070E0022E1C
:1048100004C0440F551F661F771F0A94D2F7A0E00B
:10482000B0E0CD01C4FF0FC08FE090E0A0E0B0E0A9
:1048300004C0880F991FAA1FBB1F2A95D2F7809525
:104840009095A095B095202F26952695237022301F
:1048500031F12330D9F0A090F804B090F904C09061
:10486000FA04D090FB04213069F0842B952BA62B01
:10487000B72BBC01CD016A217B218C219D210E9497
:10488000E008D2CE4A295B296C297D295A016B01A7
:10489000A82AB92ACA2ADB2AB501C601F0CF842B7F
:1048A000952BA62BB72B2091F8043091F904409159
:1048B000FA045091FB04BC01CD01622773278427C1
:1048C0009527DDCFD11509F448C000FFA5CE2C2FC8
:1048D000229526952770220F220F4C2F4F7050E003
:1048E00060E070E0022E04C0440F551F661F771F62
:1048F0000A94D2F7A0E0B0E0CD01C4FF0FC08FE072
:1049000090E0A0E0B0E004C0880F991FAA1FBB1F71
:104910002A95D2F780959095A095B095202F269551
:1049200026952370223051F12330F9F0A0904505EF
:10493000B0904605C0904705D0904805213089F0D9
:10494000842B952BA62BB72BBC01CD016A217B2193
:104950008C219D210E94EA0867CE823008F45CCE4B
:10496000B6CF4A295B296C297D295A016B01A82AF7
:10497000B92ACA2ADB2AB501C601ECCF842B952BB4
:10498000A62BB72B20914505309146054091470550
:1049900050914805BC01CD016227732784279527D4
:1049A000D9CF202F2F70D22ED11539F0822F0E940F
:1049B0000B098C2F0E94630437CE8C2F0E946D044C
:1049C0008D2D0E94250930CEC23FD9F170F4C03F31
:1049D000C9F0C13F91F0D11509F470C0D11409F4A8
:1049E0006AC08C2F0E947B091FCEC33F89F1C43F50
:1049F00091F78091000582FF3FC0802F8F71D11504
:104A000001F323C0D115D1F035E0D31608F004CE60
:104A1000202F2F7161E070E080E090E004C0660F0D
:104A2000771F881F991F2A95D2F72091450530914D
:104A300046054091470550914805AECF66E0D61631
:104A4000E5CF802F8F71D111BCCF0E940B09ECCD27
:104A500080E090E0BC01D11509F47CCF61E070E00A
:104A600080E090E0202F2F7104C0660F771F881F11
:104A7000991F2A95D2F76ECFD11599F0702F7F71BB
:104A8000D72E872F0E940B098091000582FD07C059
:104A90008D2D880F880F880F83608093FD048D2DE6
:104AA000D4CF81E00E94440982E0D81608F4B4CD46
:104AB0000E944409B9CD802F8F71C7CFD11479F0EE
:104AC000C93349F49FEFA7EEB3E09150A040B04046
:104AD000E1F700C000008C2F0E94A908A5CD802F0F
:104AE0008F716FCFE0E1EC0FE73008F042C0F0E0EB
:104AF000EA52FC4C0C94E031D11509F48DCD809133
:104B00000C0591E0892780930C0511CED0930C05FC
:104B10000ECE81E08D27F7CFD1117ECD81E080933D
:104B20000C0597CDD11178CD10920C0592CDD115F1
:104B300029F082E08093FC0481E0E5CF8091FC04C1
:104B4000823021F481E08093FC0483CD833009F02E
:104B500063CD1092FC04E8CFD11539F08091FE04AA
:104B6000811569F21092FE04E2CDE5E0DE1638F21E
:104B700053CD8091FE04D114A9F0811541F08091AC
:104B80000C0591E0892780930C051092FE048C2F70
:104B9000D111B2CD0E94A90886E0D7011D928A9555
:104BA000E9F757CD811509F437CDD11135CD809175
:104BB0000C0591E0892780930C051092FE0449CDE5
:104BC000813009F046CDC5CFC631FCE5DF0709F0DD
:104BD000D4CA8091F6048A7A91E0811101C090E0F4
:104BE0009093ED0465E3811101C069E28BE392E0EB
:104BF0000E9460090E9436040C94CE1CDF91CF9174
:104C00001F910F91FF90EF90DF90CF90BF90AF90EA
:104C10000895CF93DF93809144058031A0F4809173
:104C20004105811581F0E0910E0560910D055091CF
:104C30003F05409140052091420530914305742F76
:104C400075236E1303C0DF91CF910895CE2FD0E06E
:104C50002115310591F17F3F81F186E0E89FF00158
:104C60001124DF01A15FBA4F11968C911197841323
:104C700024C08C91851321C012968C9112978111BA
:104C80001CC013968D919D91821B930B883C9105BE
:104C9000A0F4809144058F70806180934405EC5EA0
:104CA000FA4F80818F70806180838FE395E00E944E
:104CB000941CDF91CF910C941204FE01E395E770F0
:104CC000C0CF8F929F92AF92BF92DF92EF92FF92EE
:104CD0000F931F93CF93DF93CDB7DEB72B970FB60C
:104CE000F894DEBF0FBECDBF8C0185E0F801DE0178
:104CF000179601900D928A95E1F7F801F2808FE303
:104D0000882E85E0982E409142055091430541152B
:104D1000510509F41BC190913F0520914005822F58
:104D200089238F3F09F412C1A380B480D09041053C
:104D3000B501641B750BD11409F4DAC080914405E8
:104D4000683C710508F0B6C03181803108F074C04C
:104D5000EF2C321312C0208129130FC0F1101EC195
:104D60008F70806180934405C4010E94941C8091DF
:104D70004405F8018583E12C4CC0AB2889F08F8174
:104D8000932F98239F3F61F0E0910E0590910D05C0
:104D9000F114E9F080914405816080934405EBCFE4
:104DA000F110F8CFE8CF4E2F50E026E0E29FF0015F
:104DB0001124E15FFA4F2181321306C02081821352
:104DC00003C022812111D7CFFA01E395E770E913DF
:104DD000EACF8F8198850E94A606292F22952F70F1
:104DE000903240F49F7011F0811599F0805E883008
:104DF00080F004C0225F2F70223028F0C8010E948A
:104E0000941CED2C06C09F7089F3F80195819031B8
:104E100068F78E2D2B960FB6F894DEBF0FBECDBF70
:104E2000DF91CF911F910F91FF90EF90DF90BF9096
:104E3000AF909F908F900895321312C02081291354
:104E40000FC0F1100DC08583C8010E94941C86E03C
:104E5000F801AFE3B5E001900D928A95E1F727C024
:104E6000F801808191810E94C906811509F46AC008
:104E7000F11409F467C080914405803270F02091EC
:104E80003F053091400529833A831B82AC82BD8265
:104E90008E83CE0101960E94941C86E0F801AFE358
:104EA000B5E001900D928A95E1F70E940926EE2463
:104EB000E394AFCF803150F48FE395E00E94941CCF
:104EC00086E0F40111928A95E9F755CF31813213CA
:104ED000C7CF20812913C4CFF110C2CF8583C80169
:104EE0000E94941C86E0F40111928A95E9F7DFCFC5
:104EF000683C710528F7F11429F18181821316C0ED
:104F00008081891313C08091440580FDA0CF80313A
:104F100008F49DCF8583807F803F09F495CF8581FC
:104F2000982F907F905F8F70892B8DCFF8018081B3
:104F300091810E94C9068111B0CF809144058160A2
:104F400080934405C8010E94941CB1CFF114D1F3A1
:104F5000F801808191810E94C906811599F386E04C
:104F6000F801AFE3B5E001900D928A95E1F78091E9
:104F70003F05909140050E94A60692959F7096303D
:104F800009F093CF863F09F490CF80910C0591E012
:104F9000892780930C059093FE0487CFAB2809F0F6
:104FA000EECEF8CE0F931F93CF93DF93CDB7DEB73E
:104FB00067970FB6F894DEBF0FBECDBF942F4B8B13
:104FC000052F5C8B162F6D8B7E8B8F8B4E895F89A7
:104FD0006111109201054115510509F056C0292FA4
:104FE0001A8A2D870E871F87488B598B86E0FE0112
:104FF0003D96DE01179601900D928A95E1F7CE015C
:1050000007960E94612681112FC020910D053091D5
:105010000E0586E0FE013796DE01119601900D9295
:105020008A95E1F78A859B85892BF1F088859F8198
:1050300089238F3FC9F0822F90E08395877090E09D
:105040003817190609F453C096E0929FD001112435
:10505000A15FBA4FFE01319601900D929A95E1F74A
:1050600080930D050E94120480910E0590910D050C
:1050700089134BC067960FB6F894DEBF0FBECDBF45
:10508000DF91CF911F910F910895292F20232F3F5A
:1050900061F161E0092E01C0660F0A94EAF7A02FC2
:1050A000B0E0AE5FBA4F3C9180910C05111102C087
:1050B000832F86238115A1F0892F90E026E0029F9F
:1050C000800D911D1124880F991FFC01E85EFB4F94
:1050D0000491FC01E95EFB4F2491362B3C9380CF79
:1050E000862F809583238C937ACF0FEF79CF0E9400
:1050F000631210920D0510920E0586E0EFE3F5E0C5
:10510000DF011D928A95E9F7AFCFB6E08B9FC00112
:105110001124815F9A4F0E946126811509F4AACF5C
:1051200020910E052F5F3F4FC901877080930E05B8
:105130009BCFCDB7DEB760970FB6F894DEBF0FBE3A
:10514000CDBF84E08093E7048FE78093E8048091EB
:10515000E904807880648093E90448E450E06FEFCC
:1051600070E08AE693E00E946C32E2EBF3E088E4C0
:10517000DF011D928A95E9F71092CC021092690323
:105180001092CD021092CE0210921F0410922004B1
:105190001092210480EC8093E40482E294E08093F6
:1051A000E5049093E6041092E3041092E204109256
:1051B000FE031092FF03109200041092010410925B
:1051C0000204109203041092040410920504109239
:1051D0000604109207041092080410920904109219
:1051E0000A0410920B0410920C0410920D041092F9
:1051F0000E0410920F0410921004109211041092D9
:1052000012041092130410921404109215041092B8
:1052100018041092190483EE9CE08093FA03909393
:10522000FB0384E19CE080931A0490931B0486E1C5
:1052300097E0809316049093170487E197E080939A
:10524000FC039093FD0384B7877F84BF0FB6F89467
:10525000A895809160008861809360001092600042
:105260000FBE80E890E00FB6F894809361009093B1
:1052700061000FBE85B7806885BF85B7806885BF30
:105280008BEF96E080933802909339020E949B0D39
:105290000E943E0D8091E20084608093E200789449
:1052A00080910E03811599F08091E9001091EC0036
:1052B0008F7010FB112717F9182B1092E9008091BD
:1052C000E80083FD0E946E121F701093E90082E0D7
:1052D00084BD93E095BD9AEF97BD80936E001092C8
:1052E0003A0310923B0310923C0310923D035598F1
:1052F0005D9888274D9983958093180180911801B6
:105300008111D1C286E08093130186E0809314015D
:105310000E94B90D81110E94CC2F8091180181113A
:105320002AC086E0E9E8F1E0DE01119601900D92D5
:105330008A95E1F7FE01379684E0DF011D928A9598
:10534000E9F78AE03697A9E7B1E001900D928A95D6
:10535000E1F786E0E3E9F1E0DE011B9601900D92B2
:105360008A95E1F786E0FE013B96A3E8B1E0019063
:105370000D928A95E1F78091180190E0811101C0AA
:1053800095E090932F0385E0891B8093240309E720
:1053900011E0BEE7EB2EB1E0FB2EF80181918F0109
:1053A0008F3F11F00E94FD06E016F106B1F703E809
:1053B00011E0A9E8EA2EA1E0FA2ED8018D918D0125
:1053C0008F3F11F00E94FD06E016F106B1F78AE06A
:1053D000E5E2F3E0DF01282F1D922A95E9F7E0E3EB
:1053E000F3E0DF011D928A95E9F780E090E00E94EA
:1053F0008132893E9E4F11F00E946A1682E090E051
:105400000E9473328093D0020E94D5168093FF04CD
:105410009093000583E090E00E947332682F70E063
:1054200080E090E00E94E008259A2D9882E8809321
:10543000800089E1809381008FEF9FEF9093870038
:10544000809386000E94011A0E94B90D811102C04A
:105450000E94CF2F0E94011A8091C40281113BC08B
:1054600080E090E00E948132893E9E4F21F00E94B0
:105470006A160E94401588E090E00E947B3260939B
:10548000F1047093F2048093F3049093F4048091F8
:10549000F00483608093F004623070F40E94401541
:1054A00088E090E00E947B326093F1047093F204F4
:1054B0008093F3049093F4040E94A8070E94B60717
:1054C0008091F10480FF04C060E086950E94451A37
:1054D00081E08093C40280911801811106C087EF9A
:1054E0008093260186EF8093250140912601A42F09
:1054F000A295AF70E1E2EA0FF0E030814F7081E0F9
:1055000090E0BC01042E01C0660F0A94EAF7262F32
:10551000209523232083E2E2EA0F2081262B20839B
:1055200030912501532F52955F7061E2650F70E055
:10553000FB0120813F70032E01C0880F0A94EAF717
:10554000982F90959223908362E2650FFB019081E2
:10555000892B8083A05EB0E02C91E0E2E50F808192
:1055600090E002C0969587953A95E2F7880F827091
:1055700030E002C0359527954A95E2F72170822BDD
:105580008093CB028091180191E098279093220399
:105590008093E70289E191E080933E0390933F037B
:1055A000BB24B39480910E03853059F480910E038F
:1055B000853009F47AC10E9463120E94011A0E9488
:1055C000F90D0E94881A81110E94D409A5E2B3E066
:1055D000E1EDF2E000E010E0EC9080818E1509F43E
:1055E000BEC18E25D12CFF24F394982F9F2109F45E
:1055F000B1C10E94B90D8115A1F0D9820A83EF20B3
:1056000081E0E11001C080E08B830E94C8098160C5
:10561000782F8C839D8349815A816B81892F0E94C9
:10562000D227F801EF52FD4F80818F258083809132
:10563000EF04811509F46DC08091EE04E091F1044E
:10564000E695E81BE0931803853109F4FEC108F0E4
:10565000AEC1893009F4EDC108F09AC1823009F475
:10566000D2C1863009F4DAC100ED17E0F5E1EF2E82
:10567000F7E0FF2E80911903811561F01092190354
:105680000E94F00D809316039093170310921A0353
:1056900010921B030E94F00D209116033091170306
:1056A000AC01421B530B4F3F5F4798F54091C90235
:1056B0004115B1F01092C9024091C7025091C80241
:1056C000841B950B8F3F9F4758F4405D5A48409389
:1056D000C7025093C8028091F00488608093F00460
:1056E000C0901A03D0901B03200F311F2093160384
:1056F0003093170386E193E0F701099580911A032F
:1057000090911B03892B29F4CD2819F081E0809317
:10571000C90240912601E42FE295EF70E05EF0E0CF
:10572000808190912501E92FE295EF70E05E208164
:1057300030E09F7002C0359527959A95E2F790E08A
:105740004F7002C0959587954A95E2F7817020FDCC
:105750008260A091CB02AA0FAA0FA82BA093CB0224
:10576000E0912203AF70B0E0A753BE4F8C919091AF
:10577000CA02890F84300CF47AC1E05EFC4F90813C
:105780009F5F908321E0982F990F990B64E070E060
:105790000E94CC318093CA0221110E94E009E0915D
:1057A0001A04F0911B04309719F08AEF93E00995E1
:1057B0009FB7F8940091E3048091E204081708F47D
:1057C0005FC1081B9FBFE12CF12C10E0E016F10631
:1057D00008F45AC18091CD029091CE020E94E20954
:1057E0009C019091E9049695969596959F7029173E
:1057F000310550F10E94C8098093CD029093CE02EA
:1058000080916903811501F19091E8048091E90488
:105810008770880F4091CC0261E097FD81600E9403
:10582000200A809169039091CC0287FFE5C1A82FDF
:10583000BB27A1950CF4B0959A171B060CF0DCC1A0
:105840001092CC02109269030E94F90D9091CF0240
:10585000891721F00E94F90D8093CF0280910E03E9
:10586000843009F09FCE809128018F708093E900E9
:105870009091E80090FF96CE90910E03943009F03D
:1058800091CE8093E9002091F3008091F200922F55
:10589000892B09F487CE8091E8008E778093E80009
:1058A0000E94E30B7FCE80E02ECD80910E038430EA
:1058B00039F180E00E94C3071092C50248E150E030
:1058C00060E40FB6F894A895409360000FBE609313
:1058D000600083B7817F846083BF83B7816083BFAB
:1058E0007894889583B78E7F83BF0FB6F894A89578
:1058F00080916000886180936000109260000FBE0C
:105900008091C602811509F451CE0E94881AE5E201
:10591000F3E08081811106C0319683E0EF32F80711
:10592000C1F744CE80E189BD82E189BD09B400FEA2
:10593000FDCF8091D8008F7D8093D8008091E000CA
:1059400082608093E0008091E00081FDFCCF0E94A6
:1059500063122CCED394FF0C96E0D91246CE11964A
:1059600031960F5F1F4F0A30110509F035CE8FEFCA
:1059700089838A831B820E94C8098160782F8C8367
:105980009D8349815A816B81892F0E94D2274FCEF6
:105990008F3009F069CEE695F0E0E65FFB4FE491C9
:1059A0000E2F10E050EEE52E5EE0F52E63CE04EFF4
:1059B00011E098E9E92E90E1F92E843209F45ACEEB
:1059C00078F4883109F44CC0833209F04DCEE5E01B
:1059D000F4E0059115913DEEE32E30E1F32E4ACE31
:1059E000853209F041CE8E2F63E00E949E31E92F6F
:1059F000F0E0EE5FFB4FE4910E2F10E029E2E22E83
:105A000029E1F22E37CEF0E0ED5EFB4FE4910E2F50
:105A100010E0ECE4EE2EE1E1FE2E2CCEF0E0E05FB3
:105A2000FB4FE4910E2F10E070E6E72E71E1F72EA8
:105A300021CEE695F0E0E35FFB4FE4910E2F10E0FE
:105A400069EAE62E6EE0F62E15CEF0E0E95FFB4F38
:105A5000E4910E2F10E04EE7E42E4FE0F42E0ACE34
:105A600008E210E082E0E82E80E1F82E03CE20E08C
:105A70008D3F0CF088CEE05EFC4F9081915081CE3E
:105A80002091E404020F9DCE8091E20490E06091A9
:105A9000E40470E00E94CC312091E5043091E604EA
:105AA000280F391FD901DC90C0901F04B8EFDB1616
:105AB000F0F0E1E0E0931F0420E040E06D2D81E094
:105AC00090E00E94490AC0921F042FB7F894809179
:105AD000E20490E001966091E40470E00E94CC3111
