:100000000C94D2030C94B9310C940A040C940A0495
:100010000C940A040C940A040C940A040C940A0428
:100020000C940A040C940A040C94422D0C94FD2B9D
:100030000C94C42E0C940A040C940A040C940A0424
:100040000C940A040C940A040C940A040C940A04F8
:100050000C940A040C94772E0C940A040C940A0451
:100060000C940A040C940A040C940A040C940A04D8
:100070000C940A040C940A040C940A040C940A04C8
:100080000C940A040C940A040C940A040C940A04B8
:100090000C940A040C940A040C940A040C940A04A8
:1000A0000C940A040C940A040C940A045108C50820
:1000B0005908230827085D082A0860086B083508D6
:1000C000BB0839086F083D0873089D084108770888
:1000D000A70847087D0887082E08640831086708C4
:1000E0004C0882089308B308B5081F085508CE08C5
:1000F000FA080309E808F1080C0915091E091A0A8B
:100100001A0A4C0A4C0AC90A870C170C870CE70A12
:10011000770B890B890B240C510C2C0C2F0C380CF1
:10012000320C3B0CCC0CF60CFD0C040D0B0D120D1F
:10013000190D200D270D2E0D350D3C0D410D460DD1
:100140004B0D500D550D5A0D5F0D640D690DB72403
:10015000DE248126DE24812626254925812638268F
:100160004C261E0F0500047F3F1F643214643214B6
:10017000783C1E1E140A05167C1E001F002000215C
:100180000022002B0014001A00080015001700E0E0
:100190000004001600070009000A00E1001D001B12
:1001A0000006001900050000000000E200417EF298
:1001B00056E3002A00270026002500240023002FF4
:1001C00000130012000C0018001C00340033000F54
:1001D000000E000D000B002800380037003600101C
:1001E00000110000000000E600427E2C00F25635AF
:1001F000001E021F0220022102220201001E001F17
:100200000020002100220001000100500052005196
:10021000004F0001003A003B003C003D003E000062
:1002200000000001000100010001002A0027022651
:10023000022502240223022A00270026002500248A
:1002400000230031022E024F0052005100500045A1
:100250000044004300420060004000000000000134
:1002600000010001003F0045003A003B003C003D1A
:10027000003E0001001E021F022002210222020194
:1002800000010001004C004B002D020100010001A3
:100290000001004E002D00000000000100010001DF
:1002A000002602440043004200410040003F002A73
:1002B00000270226022502240223023500310230E3
:1002C000022F022E002D003502310030002F002EAB
:1002D000022D02000000004F00010050000100014B
:1002E0000001000100010001000100010001000106
:1002F0000001002178207801000452AC00A900AA76
:1003000000AB000100010001000100AE00A80000E8
:10031000000000010001000100007C01000100015B
:1003200000010001000100010001000100010001C5
:10033000000100010001004D004B004E004A002862
:100340000001000100010016700100000000000122
:100350000001000100007C00520E0012000F00019D
:1003600000010001001C000B0018000D000100013D
:10037000000700090017000A001B00010004001A12
:1003800000160008001D000000000001000100012F
:1003900000010001004271417140713F7100710123
:1003A000003E713D713C713B71017101003A713940
:1003B000713871377156710100367135713471338E
:1003C00071557100000000010001000100010000F2
:1003D0000101010101010101010202020202020206
:1003E00002020303030303030303040404040404D9
:1003F000040505050505060606060607070707079F
:1004000008080808090909090A0A0A0B0B0B0C0C51
:100410000C0D0D0D0E0E0E0F0F0F101011111112ED
:100420001213131414151516161717181819191A6C
:100430001A1B1B1C1D1D1E1E1F20202122222324CF
:1004400024252626272829292A2B2C2D2D2E2F300E
:10045000313232333435363738393A3B3C3D3E3F22
:10046000404142434445464748494A4C4D4E4F500F
:10047000515354555658595A5B5D5E5F61626465CD
:100480006668696B6C6D6F7072737577787A7B7D57
:100490007E8082838587888A8C8E8F9193959698AB
:1004A0009A9C9EA0A2A3A5A7A9ABADAFB1B3B5B7C7
:1004B000BABCBEC0C2C4C6C9CBCDCFD1D4D6D8DB9E
:1004C000DDDFE2E4E7E9EBEEF0F3F5F8FAFDFFFF3C
:1004D000AA7F554005010980A101850319012AB7AA
:1004E00000150126B700950175108100C0050C09A3
:1004F00001A101850419012AA002150126A0029577
:100500000175108100C005010906A101050719E068
:1005100029E71500250195087501810295017508E7
:1005200081010507190029FF150026FF00950675B2
:100530000881000508190129051500250195057593
:10054000019102950175039101C009029F00040108
:1005500000A0FA09040000010301010009211101B2
:10056000000122440007058103080001090401007D
:1005700001030000000921110100012232000705DA
:100580008203200001080B0202010100000904029D
:100590000000010100000924010001090001030914
:1005A00004030002010300000724010001410006CA
:1005B00024020101000624020202000924030103AF
:1005C00001020100092403020401010100090504DC
:1005D00002400005000005250101010905830240D4
:1005E00000050000052501010312010002000000C2
:1005F0000810CB56531005010200011A034900727E
:10060000006900730020005200650076002E002073
:10061000003500610000000E034B006500650062BC
:100620000069006F00000004030904222325262826
:10063000292A2C2D2F3032333536383A3B3D3E4077
:1006400042434547494A4C4E5051535557595A5CBD
:100650005E6062646668696B6D6F71737577797BD4
:100660007D7F81838587898A8C8E90929496989AD3
:100670009C9E9FA1A3A5A7A8AAACAEAFB1B3B4B6E8
:10068000B8B9BBBCBEBFC1C2C3C5C6C7C9CACBCC43
:10069000CDCED0D1D2D2D3D4D5D6D7D7D8D9D9DA16
:1006A000DADBDBDBDCDCDCDCDCDDDDDDDDDCDCDC8B
:1006B000DCDCDBDBDBDADAD9D9D8D7D7D6D5D4D3B3
:1006C000D2D2D1D0CECDCCCBCAC9C7C6C5C3C2C188
:1006D000BFBEBCBBB9B8B6B4B3B1AFAEACAAA8A7E5
:1006E000A5A3A19F9E9C9A98969492908E8C8A899D
:1006F000878583817F7D7B79777573716F6D6B697A
:1007000068666462605E5C5A5957555351504E4C4E
:100710004A4947454342403E3D3B3A3836353332FD
:10072000302F2D2C2A2928262523220005010502F9
:100730000503050405050500060106020603060477
:10074000060506000701070207030704070507005F
:100750000801080208030804080508010101010254
:100760000903090409040900000100020003000450
:10077000000500000101010201030104010501005F
:100780000201020202030204020502000301030245
:100790000303030403050301010101050403040429
:1007A0000904040011241FBECFEFDAE0DEBFCDBF85
:1007B00004B603FE18C080911E0590911F05A091FC
:1007C0002005B09121058730904BA740B04B59F4DC
:1007D00010921E0510921F051092200510922105FF
:1007E000E0E0F8E3099512E0A0E0B1E0E6EDF9E61B
:1007F00002C005900D92A230B107D9F725E0A2E022
:10080000B2E001C01D92AE31B207E1F70E94870D40
:100810000C94E9340C940000A0E0B0E0E2E1F4E0D4
:100820000C94E232FC018481882311F40C94820D33
:100830007F0121E0408151816281738195810E9415
:10084000622FEC01F7019581C134FEE7DF07E1F08B
:1008500028F4C0343EE7D30751F039C0C2344EE724
:10086000D407F9F0C3345EE7D50741F130C09923CE
:1008700009F402C561E083E090E00E94913381E0D9
:1008800090E00E94541EF8C481E0992329F00E9450
:10089000441E0E947422F0C40E94041E0E9474220E
:1008A000EBC482E0992329F00E94441E0E94742226
:1008B000E3C40E94041E0E947422DEC483E09923D4
:1008C00019F00E94441ED8C40E94041ED5C4C33827
:1008D000F1E7DF0708F079C1C33721E7D20798F0C5
:1008E000992309F4C9C4C3578091CF02C0FB87F98B
:1008F0008093CF02C695C770E091D002E87FCE2BDF
:10090000C093D002B9C4C43631E7D30708F0B3C0EE
:10091000C73541E7D40770F0992309F4ADC4CD552C
:10092000EC2FE295E07FC091CE02CF70CE2BC0932A
:10093000CE02A2C4C53551E7D50708F06BC0CB3451
:1009400081E7D80768F0992309F496C4CB54EC2FBB
:10095000EF70C091CE02C07FCE2BC093CE028CC46C
:10096000C330E1E7DE0708F483C20091CF02802F95
:10097000881F8827881F4091D0024770440F482B5A
:100980000F77CC2E8DEFC80ED12C992349F1E09131
:10099000CE028E2F8F70E595E595E595E595E350B0
:1009A0009CE0899FE00D1124CE0F2C2F2F774069FA
:1009B000E091A303F091A40363E070E083EA93E085
:1009C0000995F601E95FFD4FDF01A85BBF4F8C91F0
:1009D0008F5F8C9380818F3F09F04EC4C0834CC4DD
:1009E000E601C95FDD4F2881FE01E85BFF4F808192
:1009F00081508083811140C42F774068E091A30328
:100A0000F091A40363E070E083EA93E009958FEF2F
:100A1000888332C4C535F1E7DF0791F4992309F4DF
:100A20002BC42091CE02822F8F7009F425C4815FE0
:100A3000982F9F70822F807F892B8093CE021CC4B9
:100A4000C63521E7D20709F013C2992309F414C46B
:100A50002091CE02822F8F70482F50E049305105EF
:100A60000CF00AC48F5F982F9F70822F807F892B94
:100A70008093CE0201C4C13731E7D30708F05EC0CE
:100A8000C63641E7D40788F0992309F4F5C3C65662
:100A9000ECE0CE9FC02D1124EC2FEF77C091CF0258
:100AA000C078CE2BC093CF02E7C3C43651E7D50739
:100AB000B9F4992309F4E0C32091CE02822F8595E1
:100AC0008595859585958B3F0CF4D6C3815F982FCE
:100AD0009295907F822F8F70892B8093CE02CCC30A
:100AE000C53681E7D80709F0C3C1992309F4C4C307
:100AF0002091CE02822F85958595859585958630A6
:100B00000CF0BAC391E0980F9295907F95959595CA
:100B100095959595392F3295307F2F70232B209303
:100B2000CE0218160CF0A8C397FFA6C38295807F4B
:100B3000922F9F70892B8093CE029EC3C137E1E72D
:100B4000DE0709F5992309F497C39091CF02892F05
:100B50008F77282F30E02115310509F48DC3907867
:100B60008F3729F4892F85678093CF0285C32D3075
:100B7000310534F08D508F77892B8093CF027CC361
:100B80009093CF0279C3C237F1E7DF0709F070C154
:100B9000992309F471C32091CF02822F8F77482FB8
:100BA00050E04F37510509F467C3433751054CF402
:100BB000835F982F9F77822F8078892B8093CF0235
:100BC0005BC32F672093CF0257C3C93821E7D207F1
:100BD00099F4992311F04FE701C040E09091CF02C2
:100BE000991F9927991F8091D0028770880F63E41D
:100BF000892B0E94AC2240C3CA3831E7D30708F0E2
:100C000096C0C53841E7D40791F4992309F434C359
:100C10009091CF02991F9927991F8091D0028770D8
:100C2000880F40E06BE7892B0E94AC2225C3C638B1
:100C300051E7D50708F043C0C33881E7D807E9F486
:100C4000992309F419C33091CF02932F991F992743
:100C5000991F2091D002822F8770880F892B815F86
:100C6000982F9F7080FB37F93093CF029695822F93
:100C7000887F892B8093D002FFC2C438E1E7DE076A
:100C800009F0F6C0992309F4F7C23091CF02932FEF
:100C9000991F9927991F2091D002822F8770880F62
:100CA000892B8F5F982F9F7080FB37F93093CF028D
:100CB0009695822F887F892B8093D002DDC2809108
:100CC000CF022091D002C738F1E7DF0779F49923EA
:100CD00011F04FE701C040E0881F8827881F277068
:100CE000220F61E4822B0E94AC22C6C2C838D147D1
:100CF00078F4992311F04FE701C040E0881F88275E
:100D0000881F2770220F60E4822B0E94AC22B4C29D
:100D1000992311F04FE701C040E0881F8827881F02
:100D20002770220F62E4822B0E94AC22A5C2CC382D
:100D300041E7D40701F5992309F49EC28091D002BE
:100D4000282F2695269526952F7091E0920F9F705B
:100D5000990F990F990F8778892B8093D002982F3C
:100D6000987709F089C2220F220F220F8778822BF1
:100D70008093D00281C2CD3851E7D50720F5CA381B
:100D800081E7D80799F4992311F04FE701C040E0BB
:100D90009091CF02991F9927991F8091D002877057
:100DA000880F64E4892B0E94AC2266C2CB38E1E74D
:100DB000DE0709F05DC0992311F081E001C08FEFDB
:100DC0008093CD0259C2CE38F1E7DF0701F59923B0
:100DD00079F09091CF02991F9927991F8091D002A5
:100DE0008770880F60E070EE892B0E94842244C2D5
:100DF0009091CF02991F9927991F8091D0028770F7
:100E0000880F60E070E0892B0E94842235C2CE38C2
:100E100021E7D207C0F4992309F42EC22091D00211
:100E2000822F8695869586958F7009F425C2815FFD
:100E30008F70982F990F990F990F822F8778892B90
:100E40008093D00219C2CF3831E7D30789F49923B0
:100E500079F29091CF02991F9927991F8091D00222
:100E60008770880F6FEF7FE1892B0E94842204C274
:100E7000992309F4BDC0C230E8E7DE0709F46CC06D
:100E800088F4C11528E7D207C1F0C13038E7D3078D
:100E900009F0AEC080E00E94342B809106050E94CC
:100EA0002E2BEAC1C43048E7D40791F170F0C53069
:100EB00088E7D80709F471C09BC085E00E94342BF5
:100EC000809106050E942E2BD7C180910605982F90
:100ED000969596959695A1F0915E990F990F990F19
:100EE0008770892B80930605887F91E009F490E054
:100EF0008091060590FB80F9809306050E942E2BB9
:100F0000809106058695869586950E948C2AB4C1A7
:100F100020910605822F869586958695482F50E06C
:100F20004530510554F48F5F982F990F990F990F01
:100F3000822F8770892B809306058091060581603A
:100F4000809306050E942E2B809106058695869536
:100F500086950E948C2A90C18091060580FF09C069
:100F60008E7F809306050E942E2B80E00E948C2AA3
:100F700083C1816080930605813019F489E08093F4
:100F80000605809106050E942E2B80910605869508
:100F9000869586950E948C2A6FC180910605282F20
:100FA0002695269526952F5F2F71922F990F990FD1
:100FB000990F8770892B80930605263018F087706B
:100FC0008093060580910605887F91E009F490E002
:100FD0008091060590FB80F9809306050E942E2BD8
:100FE000809106058695869586950E948C2A44C137
:100FF000FE01E851FC47E730F10508F4E5C099230C
:1010000009F4B1C110920905CE019057839708F0F9
:101010001EC184E090E00E947B339093AA028093EB
:10102000A902FE01E150F047E232F10520F4EA5A4C
:10103000FF4F0C947A348091A9028160ACC08091FA
:10104000AA028860B4C08091A9028260A4C0809185
:10105000A90220C08091A90288609DC08091AA0247
:101060001EC08091AA028260A2C08091A902806104
:1010700092C08091A90280628EC08091A902806492
:101080008AC00E94591E8091A902806884C0809104
:10109000A902886084607FC08091AA02826081601A
:1010A00086C08091A9028E7F76C08091AA02877F38
:1010B0007EC08091A9028D7F6EC08091A90220C060
:1010C0008091A902877F67C08091AA021EC080918B
:1010D000AA028D7F6CC08091A9028F7E5CC0809136
:1010E000A9028F7D58C08091A9028F7B54C00E94B5
:1010F000591E8091A9028F774EC08091A902877FE7
:101100008B7F49C08091AA028D7F8E7F50C08091D5
:10111000A90282FB222720F991E0922790FB82F915
:1011200090FB83F938C08091AA02982F9095917016
:101130008E7F892B90FB81F93AC08091A90286FBB2
:10114000222720F991E0922790FB86F924C00E9483
:10115000591E8091A90287FB222720F991E092274E
:1011600090FB87F918C061E001C060E08EE090E07C
:101170000E9491331EC08091A90284FB222720F98E
:1011800091E0922790FB84F906C08091A902982FE4
:10119000909590FB80F98093A9020BC08091AA02E0
:1011A00083FB222720F991E0922790FB83F980931B
:1011B000AA026091A9027091AA0284E090E00E94C4
:1011C000AF330E94591E58C0E858FF4F0C947A3430
:1011D00006E221EE41EE6AE17CE7C7010E94F129B7
:1011E0004BC007E225EE45EE6BE17CE7C7010E94AC
:1011F000F12942C006E221EE40EE68E17CE7C7013A
:101200000E94F12939C007E225EE44EE69E17CE74E
:10121000C7010E94F12930C006E221EE42EE6CE1E6
:101220007CE7C7010E94F12927C007E225EE46EEC0
:101230006DE17CE7C7010E94F1291EC008E221E0B0
:1012400045EE6EE17CE7C7010E94F12915C0C63169
:10125000FCE7DF0719F5809188038A7A91E009F4A9
:1012600090E090930402811191C369E282E193E0DE
:101270000E94ED2E0E94001B80917D03877009F46F
:1012800041C4F7018581882309F43CC48091AA02F6
:1012900082FF38C482E00E94161E34C4C3309CE72B
:1012A000D90709F44BC058F4C115FCE7DF07B9F0C2
:1012B000C130DC4709F066C00E946730DDCFCB3516
:1012C0003CE7D30709F44BC0CC354CE7D40709F40D
:1012D0003EC0CA35DC4709F055C081E041C00E94DC
:1012E000591E8FEF94E3ECE081509040E040E1F72D
:1012F00000C0000081E08093E00080E28093D8008D
:101300001092C9008FE19EE40197F1F700C0000040
:1013100087E090EBDC0180931E0590931F05A0935E
:101320002005B09321059CE088E10FB6F894A895BC
:10133000809360000FBE90936000FFCF6FEF7FEF50
:1013400080E090E00E94AF330E94673095CF80919B
:10135000AA0282FB882780F991E0892701C080E0FA
:101360000E942D1E0FC0C6312CE7D20709F4B6C368
:10137000809188038272FE01E052F847E531F10561
:1013800008F406C3F7018581C081D181882349F023
:10139000CE010E949F1B182F682FCE010E94CB1DEB
:1013A00004C0CE010E94981D182FBE01812F0E94FB
:1013B00020170E943819C82F192FC82EF701D58180
:1013C000D680D2949FE0D92280917D03877011F15D
:1013D000DD2301F1812F807F803479F09C2F20E282
:1013E0002C0F2830B8F0D11004C0212F207E2032DD
:1013F00089F0803611F4963F69F08091AA0282FF4D
:1014000009C082E00E94161E80917D038770BB2474
:10141000B3948111B12CA12EA2948FE0A8228A2D21
:1014200090E08C30910508F072C2FC01E158FF4F4A
:101430000C947A34012F0F70812F807F11F0029568
:10144000007FDD23B9F0002309F4DBC180E28C0FBB
:10145000883010F0C11006C080918803082B0093DB
:10146000880305C080918703082B009387030E949F
:10147000001BC7C18C2F0E949830002309F447C27B
:10148000C05EC83078F1CC2069F100958091870367
:1014900008230093870329C0012F0F70812F807FBD
:1014A000803211F00295007FCC2029F0F1E0CF16B8
:1014B00009F44AC055C08091AA0282FD19C0DD23FB
:1014C00059F0002339F080918803082B009388039A
:1014D0000E94001B80E096C180E00E9498300023AB
:1014E00009F415C2802F0E94F91A0E94001B0FC236
:1014F000DD2381F0DD20C1F121E0D21208C280910C
:101500008603902F9823091709F401C2082B009332
:101510008603FDC1D110FBC1802F0E946F1E8091F8
:101520008603902F982329F0902F909589238093FC
:10153000860380910502902F982309F4E8C1009555
:10154000802380930502E3C1DD2329F035E03D15BA
:1015500008F4DDC109C044E04D1508F4D8C115C038
:10156000DD2331F0D1104DC1802F0E94761ECFC1F6
:10157000DD2059F059E3C51256C18FEF97EEE3E035
:1015800081509040E040E1F74CC1802F0E946F1ED7
:10159000BEC1812F86958695837019F0813061F0E8
:1015A000B6C1DD2321F08C2F912F937002C080E013
:1015B00090E00E942C2FB1C1DD2321F08C2F912FC0
:1015C000937002C080E090E00E94072FA6C1812F97
:1015D000837009F042C0D1119EC13C2F32953695DF
:1015E0003770330F330F8C2F8F7090E0032E02C0B3
:1015F000880F991F0A94E2F7C4FF0BC04FE050E038
:1016000002C0440F551F3A95E2F79A012095309594
:1016100002C020E030E0412F4695469543704230AD
:1016200099F068F46091890370918A03413029F040
:10163000822B932B8623972304C0862B972B822BF8
:10164000932B0E94541E67C1822B932B20918903F8
:1016500030918A0382279327F4CFDD2319F0812F5D
:10166000817001C08695882309F455C13C2F3295BD
:1016700036953770330F330F8C2F8F7090E0032E19
:1016800002C0880F991F0A94E2F7C4FF0BC04FE015
:1016900050E002C0440F551F3A95E2F79A01209599
:1016A000309502C020E030E0412F469546954370CA
:1016B000423079F0B8F46091900470919104413017
:1016C00029F0822B932B862397230EC0862B972BF2
:1016D00009C0822B932B2091900430919104822792
:1016E000932702C0822B932B0E94FF1D14C1012F50
:1016F0000F70DD2339F0802F0E94441E8C2F0E9432
:10170000761E09C18C2F0E946F1E802F0E94041E1E
:1017100002C18C2FF2EFCF16A1F1FC1538F020EFAB
:10172000C21659F031EFC31639F166C043EFC41643
:1017300079F154EFC516E1F05FC0DD23A1F084E03C
:101740008D1508F4E4C0212F2F7181E090E002C0D4
:10175000880F991F2A95E2F7209190043091910407
:101760008227932725C095E09D1508F4D0C0EBCFC4
:101770008091AA0282FD1FC0DD2329F0812F8F7185
:101780002DC0DD23D9F3812F8F710E94041EBFC0AD
:10179000DD2361F021E030E0912F9F71F90102C05B
:1017A000EE0FFF1F9A95E2F7CF0102C080E090E0B4
:1017B0000E94FF1DACC0DD23A1F0C12FCF718C2F83
:1017C0000E94441E8091AA0282FF07C0F8E0CF9FCA
:1017D000C0011124836080937D038C2F0E94441EDE
:1017E00096C081E00E94161E21E02D1508F08FC0E2
:1017F00082E00E94161E8BC0DD2339F0DD2009F443
:10180000BDCF8C2F0E94CB3082C0DD2009F4BBCF2E
:10181000893349F43FEF47EE53E0315040405040A8
:10182000E1F700C000008C2F0E94983070C08C2D12
:1018300090E0FC01E05FF109E730F10508F03EC0FF
:10184000E557FF4F0C947A34DD2309F47DC0909165
:101850003B0381E0892715C0D0933B035EC081E044
:101860008D270FC0D11159C081E080933B036CC01C
:10187000D11153C067C0DD2339F082E080930602A6
:1018800081E080933B0349C080910602823019F4C5
:1018900081E08093060280910602833009F054C0F3
:1018A0004FC0DD2339F080913A03882381F21092F2
:1018B0003A0333C084E08D1550F646C080913A0358
:1018C000DD20C1F0882341F090913B0381E089271E
:1018D00080933B0310923A038C2FDD2319F00E9472
:1018E000CB301BC00E94983087E0F70111928A9597
:1018F000E9F72AC0882389F0D1110FC090913B03EA
:1019000081E0892780933B0310923A031DC088EF42
:101910008A0D843010F40E94512FDD23A9F0107F2E
:10192000103619F4F6EFCF1679F080910602823066
:1019300019F483E08093060280910602813021F43D
:101940001092060210923B03BB20A9F080917D0308
:1019500080FD11C0F70115828695869586950E94B7
:10196000441EC7010E940C0480917D0386958695D4
:1019700086950E94041E20E0F7014081518162811A
:101980007381848195810E94622FBCC065E36ECC17
:10199000EE56FF4F0C947A348091FE0480FF1EC0F7
:1019A000282F2E7F2093FE043091FF0440910005E4
:1019B0005091010560910205709103058091040525
:1019C000909105050E94141F0E94982B80919A0403
:1019D000816080939A040E949A1E4ECC816080930D
:1019E000FE0461E086950E94172246CC4FE552E244
:1019F00069E672E20E94912B3FCC49E652E26FE524
:101A000072E20E94912B38CC41EF50E26BEF70E212
:101A10000E94912B31CC4BEF50E261EF70E20E94BB
:101A2000912B2ACC47ED50E264EE70E20E94912B9C
:101A300023CC44EE50E267ED70E20E94912B1CCC67
:101A40004DEB50E26AEC70E20E94912B15CC4AEC0F
:101A500050E26DEB70E20E94912B0ECC4AE35FE105
:101A600064E57FE10E94912B07CC44E55FE16AE3E6
:101A70007FE10E94912B00CC61E081E00E9417225F
:101A8000FBCB65E082E00E947D2BF6CB68E086E030
:101A90000E947D2BF1CB6EE089E00E947D2BECCB88
:101AA00064E18FE00E947D2BE7CB67E185E10E9436
:101AB0007D2BE2CB61E088E10E941722DDCB62E260
:101AC00089E10E947D2BD8CB61E083E20E9417223E
:101AD000D3CB6AE285E20E947D2BCECB80910402BB
:101AE00081110EC089E2E2E1F3E028E133E0928166
:101AF000891301C0128231962E173F07C1F7BACB66
:101B000085E3F1CFCDB7DEB7EAE00C94FE32ABE06F
:101B1000B0E0EDE8FDE00C94DA3285B7806885BF6F
:101B200085B7806885BF84E08093CE028FE780937D
:101B3000CF028091D002807880648093D002E7E069
:101B4000F2E08FEF8193DF01A95BBF4F1C9222E08F
:101B5000EF34F207B9F71092CC021092CD02109236
:101B6000D3021092D2021092C8031092CA031092AC
:101B7000C90380EC80938D048BEC93E090938F04E9
:101B800080938E0410928C0410928B041092A80300
:101B90001092A7031092AA031092A9031092AC030B
:101BA0001092AB031092AE031092AD031092B003EB
:101BB0001092AF031092B2031092B1031092B403CB
:101BC0001092B3031092B6031092B5031092B803AB
:101BD0001092B7031092BA031092B9031092BC038B
:101BE0001092BB031092BE031092BD031092C20369
:101BF0001092C10386EC91E29093A4038093A30317
:101C00008BE291E29093C4038093C30389E99EE140
:101C10009093C0038093BF0388E99EE19093A6034D
:101C20008093A50384B7877F84BF0FB6F894A895E7
:101C300080916000886180936000109260000FBE08
:101C400090E080E80FB6F894809361009093610073
:101C50000FBE8FE893E190930302809302020E94EB
:101C6000412C0E94E72C8091E20084608093E20086
:101C70007894809199038823A1F01091E9001F7056
:101C80009091EC00892F817090FD80E8182B1092C4
:101C9000E9008091E80083FD0E94D7231F70109314
:101CA000E90082E084BD93E095BD9AEF97BD8093F3
:101CB0006E00109297021092980210929902109260
:101CC0009A0255985D988FE891E00197F1F700C06E
:101CD000000089B185FB882780F980930F018091EE
:101CE0000F01882321F010926D0186E003C086E089
:101CF00080936D0180936E010E94811581110E9475
:101D0000743190910F0181E098279093C802A82F19
:101D1000A91BA0939C0290910F018093C9029091FE
:101D20000F0180939B0280910F01811106C087EF04
:101D30008093190186EF8093180180911901E82F93
:101D4000E295EF70F0E041A1282F2F7081E090E044
:101D5000BC0102C0660F771F2A95E2F79B01362F60
:101D60003095342331A332A1232B22A320911801D3
:101D7000E22FE295EF70F0E031A12F7001C0880FE3
:101D80002A95EAF7982F9095932391A392A1892BF6
:101D900082A38FE891E00197F1F700C000007091F5
:101DA000C9024AEC52E009E111E0A8E1B1E060E0CB
:101DB000671751F1F80121918F01822F82958F7061
:101DC00090E0FC0180A190E02F7002C0959587956E
:101DD0002A95E2F781709D91292F22952F7030E08E
:101DE000F90120A130E09F7002C0359527959A95A2
:101DF000E2F720FD02C090E001C092E0892BFA01D9
:101E00008193AF016F5FD4CF80910F01811127C003
:101E100085E0E2E7F1E0DE01179601900D928A95E8
:101E2000E1F7FE013796AAE0B1E0CE010C969F01E2
:101E300041914D938E179F07D9F786E0E7E7F1E0D0
:101E4000DE01119601900D928A95E1F7FE0131961F
:101E5000A4E0B1E081918D932E173F07D9F78091CF
:101E60000F01811102C095E001C090E09093A8029B
:101E700085E0891B8093A7020AE011E05FE0E52E70
:101E800051E0F52ED8018D918D018F3F11F00E9408
:101E9000A415E016F106B1F704E011E04AE0E42EE3
:101EA00041E0F42EF80181918F018F3F11F00E94E3
:101EB000A415E016F106B1F78AE0ECEAF2E0DF01E2
:101EC000282F1D922A95E9F7EDE9F2E0DF011D9236
:101ED0008A95E9F780E090E00E947B33863E9E4F32
:101EE00011F00E948B1A82E090E00E946D33809383
:101EF000B60284E090E00E947B339093AA02809324
:101F0000A90283E090E00E946D3390E00E94541E8D
:101F1000259A2D9882E88093800089E18093810042
:101F20008FEF9FEF90938700809386000E944E2B47
:101F30000E944E2B8091AB0281117BC080E090E02B
:101F40000E947B33863E9E4F21F00E948B1A0E9496
:101F50006E1F88E090E00E9475334B015C0184E2C3
:101F600090E00E946D33282F30E040E050E060E0C8
:101F700070E080E090E000E20E948F342829392947
:101F80004A295B292093FE043093FF044093000507
:101F90005093010560930205709303058093040537
:101FA0009093050580919A04836080939A042E7F14
:101FB00089F50E946E1F88E090E00E9475336B01E6
:101FC0007C0184E290E00E946D33282F30E040E0F5
:101FD00050E060E070E080E090E00E948F34B22F2B
:101FE000A32FF42FE52F5B0197018601BC29A12BBC
:101FF000F22BE32BB093FE04A093FF04F0930005B3
:10200000E093010560930205B092030580930405F7
:10201000909305050E94011F0E94982B8091FE0459
:1020200080FF04C060E086950E94172281E08093C3
:10203000AB020E948115811102C00E94773180E1BC
:1020400091E090930D0580930C0598E1492E512C59
:1020500026EB622E22E0722E34E0832E912C8091AA
:102060009903853009F046C000E112E1809199039F
:10207000853009F039C080919903843029F180E0DE
:102080000E94342B10921005F0E40FB6F894A89536
:10209000409260000FBEF093600083B7817F846040
:1020A00083BF83B7816083BF7894889583B78E7F21
:1020B00083BF0FB6F894A8958091600088618093E3
:1020C0006000109260000FBE80919803882309F48D
:1020D000CDCF0E943D17ECEAF2E08191811109C356
:1020E0006E167F06D1F7C2CF0E94591E0E944E2B5A
:1020F0000E94512F0E943D1707EB12E08CEAE82E58
:1021000082E0F82E21EC32E0D701F80191918D9117
:1021100089272E173F0719F08823C1F305C08111C5
:1021200003C00E94641A37C00E948115282ED12C4A
:10213000D7013D907D01F801A080A32421F1C12C9D
:10214000BB24B3948A2D8B21B9F02220A9F0C98237
:10215000DA820E94B82E9C838B83F1E0FD8391E0AC
:102160008B2D832109F490E09E8349815A816B81F4
:102170007C818D810E94872FC394BB0C26E0C21204
:10218000E1CFD8013C92D3940F5F1F4FBAE0DB122E
:10219000CFCF0E94BB150E9481158091990488239E
:1021A00009F4CFC080919804E091FE04E695E81B05
:1021B000E0939404823059F4F0E0ED58FE4FE4913E
:1021C0000E2F10E0BDEDEB2EB9E2FB2E6BC086307A
:1021D00059F4F0E0E059FE4FE4910E2F10E0ADEC21
:1021E000EA2EA9E2FA2E5EC0893061F4E695F0E0AD
:1021F000E359FE4FE4910E2F10E0F9E5EF2EF9E2DE
:10220000FF2E50C08F3061F4E695F0E0E659FE4FA6
:10221000E4910E2F10E0EDECEE2EE8E2FE2E42C02F
:10222000853159F4F0E0E959FE4FE4910E2F10E0AA
:1022300077E4E72E78E2F72E35C08831F9F0833263
:1022400049F4E5E6F1E00591149163E9E62E69E2CF
:10225000F62E28C08432C9F08532F1F48E2F63E067
:102260000E943834E92FF0E0EE59FE4FE4910E2F32
:1022700010E054EAE52E56E2F52E14C008E210E014
:1022800042ECE42E47E2F42E0DC004EF11E033E8F7
:10229000E32E37E2F32E06C000ED17E023EAE22E2C
:1022A00026E2F22E80919504882361F01092950425
:1022B0000E942A169093930480939204109297049C
:1022C000109296040E942A16E0919204F0919304D1
:1022D0009C012E1B3F0B2F3F3F4798F52091C302D7
:1022E0002223B1F01092C3022091C1023091C202A8
:1022F000821B930B8F3F9F4758F4205D3A483093E1
:10230000C2022093C10280919A04886080939A044B
:10231000C0909604D09097040E0F1F1F1093930443
:102320000093920482E994E0F70109958091960464
:1023300090919704892B29F4CD2819F081E080939E
:10234000C302E12CD12C8091C902E81608F082C0AA
:102350000E2D10E0F801E75EFE4F8081E82FE29538
:10236000EF70F0E0E0A1F0E08F7002C0F595E79526
:102370008A95E2F7E170D801A85EBE4F2C91A22F9A
:10238000A295AF70B0E090968C9190E02F7002C053
:10239000959587952A95E2F780FD02C090E001C0EF
:1023A00092E08E2F892BD801A653BD4FEC912E2F92
:1023B000237030E0482F082E000C550B24173507EA
:1023C00009F446C0EE0FEE0FE82BEC93F090C80234
:1023D000FE0CEF70F0E0E358FE4F0A531D4F908162
:1023E000D8018C91890F8C93843084F0EF2DF0E02C
:1023F000EC53FD4F80818F5F80830E94811588237D
:1024000039F060E08F2D0E947D3002C020E001C0D5
:1024100021E0F80180818D3F84F4EF2DF0E0EC5352
:10242000FD4F8081815080830E948115882321F097
:1024300061E08F2D0E947D3021E0D8018C91082E23
:10244000000C990BB4010E946634F8018083D22AF3
:10245000E39479CFD1100E94881AE091C303F091E0
:10246000C403309719F083EA93E009952FB7F894E5
:1024700000918C0490918B04091718F480918D04BD
:10248000080F091B2FBFE12CF12C10E083E0A82ED0
:10249000B12CCC24C394D12CE016F10608F0B6C0C0
:1024A00080918B0490E060918D0470E00E9466340E
:1024B000E0918E04F0918F04E80FF91F3080209096
:1024C000C803F7EFF31568F421E02093C80320E078
:1024D00040E0632D81E090E00E94BF222092C8037B
:1024E00083C037FE50C044E0241631F03092C5035B
:1024F000D092CA03C092C903832D0E940521813066
:1025000031F080F0823059F0833049F035C080934B
:10251000C80320E040E0632D81E090E028C0809374
:10252000C80362C060EF3616E1F077EF371224C0BF
:102530002091C9033091CA03C901B5010E945234E8
:10254000FC01ED55FC4F32A2C90101969093CA03DC
:102550008093C9032091C7034091C6036091C503CE
:1025600006C084E08093C8033092C50333C00E9444
:10257000BF221092C80338C01092C8031092CA0339
:102580001092C90331C0222079F12091C903309102
:10259000CA03C901B5010E945234AC01FC01ED55DA
:1025A000FC4F32A2C90101969093CA038093C903DC
:1025B00041305105A1F042305105B1F42091C703DB
:1025C0004091C6036091C5030E94BF228091C80359
:1025D000843051F0D092CA03C092C90305C0A2E072
:1025E0002A1202C020E0ECCF2FB7F89480918B0420
:1025F00090E0019660918D0470E00E9466348093B3
:102600008B042FBFBFEFEB1AFB0A46CF8091D2029B
:102610009091D3020E949D2E2091D002269526955E
:1026200026952F7030E08217930798F10E94B82EFC
:102630009093D3028093D2028091CD02882349F1F6
:102640009091CF02991F9927991F8091D00287708E
:10265000880F4091CC0261E0892B0E94AC229091BE
:10266000CD028091CC0297FF0FC0282F30E0E92FD8
:10267000FF27E1950CF4F0952E173F072CF41092EC
:10268000CC021092CD0205C0890F87FD8FE78093A1
:10269000CC020E94512F9091D402891721F080938F
:1026A000D4020E94AC2E80919903843009F0D7CCDB
:1026B000809153018F708093E9009091E80090FF22
:1026C000CECC90919903943009F0C9CC8093E90065
:1026D0002091F3008091F20090E0922B892B09F475
:1026E000BECC8091E8008E778093E8000E94602C39
:1026F000B6CC09BD19BD09B400FEFDCF8091D8004C
:102700008F7D8093D8008091E00082608093E0000C
:102710008091E00081FDFCCF0E94591EA7CC80E093
:102720000895A0E0B0E0E7E9F3E10C94E2327C0127
:102730005B016A01809111038A3018F001E010E01A
:1027400002C00AE010E0C1E0D0E0B501C701F60127
:102750000995811115C021960C171D0794F0CC9F87
:102760009001CD9F300D300D112480E090E045E3C5
:102770004A95F1F70000019682179307C1F7E5CF5C
:1027800081E0CDB7DEB7EAE00C94FE32A0E0B0E025
:10279000ECECF3E10C94E032FB0180809180A280AC
:1027A000B3809FB7F894C0901105D0901205E090C7
:1027B0001305F09014059FBFC818D908EA08FB0854
:1027C000F4E6CF16D104E104F10410F4442341F1FE
:1027D0007B01C82F880FDD0B01151105A9F0FE0143
:1027E00083E0EE0FFF1F8A95E1F7E65EFE4F8181E1
:1027F000928183519D4F408150E00417150708F4E2
:10280000A801B9010E94E034CE010E945F32882302
:1028100041F00E94AC2EF701608371838283938321
:1028200081E0CDB7DEB7ECE00C94FC32ABE0B0E079
:10283000ECE1F4E10C94E83288E0EEEFF4E0DE0144
:10284000119601900D928A95E1F7809198049091EC
:102850009904A0919A0489879A87AB8741E08B8578
:10286000811101C040E00BE010E09E012F5F3F4F5F
:102870006DE073E086E00E94C613811110929A0405
:102880002B96E4E00C940433A1E0B0E0EAE4F4E138
:102890000C94E8328091060580FF04C086958695E9
:1028A000869501C080E0898341E09091F9029813F8
:1028B00001C040E001E010E09E012F5F3F4F69E062
:1028C00073E085E00E94C6132196E4E00C94043383
:1028D000A1E0B0E0EEE6F4E10C94DE32C62E4A014F
:1028E0005901682E880F7708C3010E945F32882340
:1028F00009F473C0C30123E0880F991F2A95E1F7FB
:10290000FC01E65EFE4F438150E04115510511F098
:1029100041E050E0FC01E65EFE4F64817581635149
:102920007D4FCE0101960E94E034F4014081518137
:10293000628173812FB7F8948091110590911205EF
:10294000A0911305B09114052FBF841B950BA60B06
:10295000B70B84369105A105B10538F4B701C8015C
:102960000E94752A99818917D1F10C2C000CDD0881
:10297000C6010E945F32782E8823E1F0E114F10451
:10298000C9F0960183E0220F331F8A95E1F7F90120
:10299000E65EFE4F438150E0E416F50608F4A70119
:1029A000F901E65EFE4F6481758163517D4FC5017B
:1029B0000E94E034B701C8010E94752A91E0298184
:1029C000281390E0D92ED72089F00E94AC2EF40174
:1029D000608371838283938309C0D12C02C0DD247C
:1029E000D394A701B801C5010E94E0348D2D219632
:1029F000EEE00C94FA32A1E0B0E0E1E0F5E10C94F5
:102A0000E332EE24E394F12C04EF12E09E012F5FF9
:102A10003F4F49EE52E063E082E00E946814B82E16
:102A2000882309F43DC000E080E090919B020917E3
:102A3000A0F5D0909C02D00E2D2D30E0A9014C5372
:102A40005D4F7A01E1E0F0E0EC0FFD1FE00FF11DBA
:102A50001081FA019081191BC12E1C145CF4CA94D8
:102A6000F70180818F5F808360E08D2D0E947D3033
:102A700081E0F3CF912F17FD90E0191B112359F03E
:102A80001F5FF70180818150808361E08D2D0E945E
:102A90007D3081E0F3CF0F5FC8CF81110E94881A8B
:102AA0008B2D2196E9E00C94FF32A5E0B0E0EBE538
:102AB000F5E10C94E4326B0185E0E82EF12C0EEE8A
:102AC00012E09E012F5F3F4F45EE52E061E080E053
:102AD0000E946814882349F095E0FE013196A0EE2B
:102AE000B2E001900D929A95E1F795E0E0EEF2E008
:102AF000D60101900D929A95E1F72596E8E00C94A5
:102B000000338091DF02811118C08091D80080616C
:102B10008093D8008AE18A95F1F700C08091D900AE
:102B200080FD02C082E001C081E08093DF0282303C
:102B300021F40E94412C1092990381E09091DF02D0
:102B4000913009F080E00895F894E82FE295EF7055
:102B5000F0E031A1282F2F7081E090E001C0880FB4
:102B60002A95EAF7982F9095932391A392A1892B08
:102B700082A3789408950F931F930E948115882350
:102B800019F00E94AC2E0EC00E94AC2E009197024C
:102B9000109198022091990230919A02600F711F52
:102BA000821F931F1F910F910895A4E0B0E0EBEDF9
:102BB000F5E10C94EA3240910503509106036091CF
:102BC0000703709108032FB7F89480911105909135
:102BD0001205A0911305B09114052FBF841B950B0E
:102BE000A60BB70B84369105A105B10570F10E94C3
:102BF000BB15DC01CB010296A11DB11D89839A830F
:102C0000AB83BC8380913B0190913C0183519D4FEC
:102C100040913A0150E04530510510F044E050E059
:102C2000BE016F5F7F4F0E94E03484E090E00E941D
:102C30005F32882359F00E94AC2E60930503709395
:102C40000603809307039093080381E02496E2E053
:102C50000C9406330E948115882319F00E94B82E27
:102C600008950E94BB15CB0108959091A90292FF8F
:102C700010C041E0282F2471243009F040E031E0F9
:102C8000282F2871283009F030E0431711F02CE08C
:102C9000822793FF10C041E0282F2471243109F0CE
:102CA00040E031E0282F2871283109F030E0431747
:102CB00011F02CE082273091AA0230FF10C051E0C1
:102CC000282F2171213009F050E041E0282F287190
:102CD000283009F040E0541711F029E0822731FF35
:102CE00010C041E0282F2171213109F040E031E08E
:102CF000282F2871283109F030E0431711F029E01E
:102D0000822794FD877E08958238910569F1B0F499
:102D10008133910509F475C048F48932910509F4AD
:102D200067C08A32910509F471C008958533910511
:102D300009F459C089339105B9F00895833E91058E
:102D400089F138F4803E9105D1F0823E910529F158
:102D50000895863E9105C9F1873E9105D9F1843EDB
:102D6000910509F06CC027C02091A90220FD57C031
:102D700021FD55C02091AA0223FD5BC008958091DA
:102D8000A90280FD48C08091AA0280FF48C08091BE
:102D9000A90284FD46C083EE51C08091A90282FF42
:102DA0003CC0F5CF8091A90282FD37C08091AA0274
:102DB00080FD35C0ECCF8091AA0281FF36C08091A2
:102DC000A90284FD2EC087EE39C08091A90283FF3D
:102DD0002AC0F5CF8091A90283FD25C08091AA0267
:102DE00081FD23C0ECCF8091A90285FD22C01FC0C8
:102DF0008091A90285FD1BC08091AA0283FF19C0A2
:102E00000AC08091A90286FD16C017C08091A90250
:102E100086FD13C010C089E311C082EE0FC080EEA2
:102E20000DC080E00BC086EE09C084EE07C085E3CC
:102E300005C089E203C08AE201C081E390E0089501
:102E40007A30B0F46630A0F48530A0F49CE3899F1A
:102E5000F001112486E0789FE00DF11D1124E60FAA
:102E6000F11DEE0FFF1FE958FE4F859194910895D3
:102E700080E001C081E090E00895AFE0B0E0E3E4DD
:102E8000F7E10C94DD329E012F5F3F4F79018AE01C
:102E9000D9011D928A95E9F70AE011E069018FE0F6
:102EA000682E81E0782EAA24A394B12C2AE0822EE9
:102EB00021E0922EF80180818F3F09F440C0F89400
:102EC000E82FE295EF70F0E021A18F70A50102C01C
:102ED000440F551F8A95E2F7CA01922F982B91A3B0
:102EE00092A18095892382A3789400C0E4E0F1E068
:102EF000512C31E021912F3F89F0A22FA295AF7084
:102F0000B0E090968C9190E02F7002C095958795D7
:102F10002A95E2F780FD02C0832F01C080E0582A85
:102F2000330F8E169F0631F7D8018C918F3F11F029
:102F30000E94A415B0EABA95F1F7F60150820F5F2E
:102F40001F4FFFEFCF1ADF0A6016710609F0B2CFEC
:102F50004AE050E0B7018DE992E00E94D334009737
:102F600041F02AE0F701ADE9B2E001900D922A9517
:102F7000E1F70091A802892B49F081E08093D70204
:102F80000E94B82E9093D6028093D5028091D702EA
:102F9000811102C0D12C22C08091D5029091D6021D
:102FA0000E949D2E0597B0F310E004551D4F45E09B
:102FB00050E06DE972E0C8010E94D334892B59F0CA
:102FC00085E0EDE9F2E0D80101900D928A95E1F7F4
:102FD000DD24D39401C0D12C1092D7020E94811518
:102FE000E091A8029E01255F3F4F7901882309F4F3
:102FF0007DC085E0D9011D928A95E9F70E2F10E07A
:1030000004551D4F809111038A3048F445E555E180
:10301000B701C8010E9491138823E9F10AC0809189
:10302000D8029091D9020E949D2E843F914070F762
:1030300043C04BEF54E1B701C8010E9491138823AC
:1030400051F145ED55E1B701C8010E949113882364
:1030500011F144E454E1B701C8010E94911388239F
:10306000D1F046E154E1B701C8010E9491138823D1
:1030700091F0109211038091A70290E045E050E09A
:10308000B70184559D4F0E94D33421E02093DE0286
:10309000892BF1F4C7C0809111038F3F19F08F5F26
:1030A00080931103809111038A3028F30E94B82E77
:1030B0009093D9028093D8028091DE02882309F48C
:1030C000B1C085E0F70111928A95E9F71092DE020E
:1030D000A091A702B0E0A455BD4F85E0FE013B964C
:1030E00001900D928A95E1F781E09DC0F0E0E455F2
:1030F000FD4F85E0AEEEB2E001900D928A95E1F7CA
:1031000065E070E08EEE92E00E94752A8093ED02F9
:103110004091C90250E06091C80270E06C537D4F4D
:10312000C7010E94E0348B858093F40261E070E077
:10313000C7010E94752A8093F3028090F502909057
:10314000F602A090F702B090F8028091DA02909116
:10315000DB02A091DC02B091DD0288169906AA0676
:10316000BB06D1F08092DA029092DB02A092DC02E0
:10317000B092DD020E94811581110EC00E94AC2E1A
:10318000861A970AA80AB90A809297029092980222
:10319000A0929902B0929A028091F9020E94342B77
:1031A0008091FA02282F21708695F090FB02E09022
:1031B000FC02C090FD0200910303109104031092E1
:1031C0000403112379F110FF17C09091FE0422230C
:1031D00039F091609093FE0460E00E9417220CC0C9
:1031E0009E7F9093FE040E94982B80919A048160A8
:1031F00080939A040E949A1E11FF06C020E04C2D75
:103200006E2D8F2D0E942E2012FF07C0002319F073
:103210000E949F2B02C00E94982B13FF03C081E0E5
:103220008093950480E08D292F96EFE00C94F9327D
:1032300020917C039091430357E02917A9F030E0D7
:10324000529FF001539FF00D1124EC5BFC4F7181F4
:10325000761306C07081781303C07581741306C09D
:103260002F5F3F4F2770E9CF80E0089581E00895F8
:103270000F931F93CF93DF930E948416EC01C11527
:1032800082E5D80708F04CC0C11590E5D90708F0D1
:10329000EDC0C03ED10530F5CD3CD10508F099C058
:1032A000C83AD10578F4C53AD10508F088C0C130D4
:1032B000D10509F481C008F4FEC0C430D10508F07E
:1032C000FDC0F9C0C33CD10508F0F5C0C85AD0E034
:1032D000CC0FDD1FCE56DE4F0990D881C02DCE0118
:1032E0009464EDC0C11580E2D80750F4C11591E097
:1032F000D90708F071C0C83ED10508F4DFC0DBC0B3
:103300008E011127C11580E4D80708F4C8C0C80190
:103310000E948416CC27DF70D06A8C2B9D2BCFC0E7
:10332000C03892E5D90728F5C03682E5D80708F0FD
:1033300078C0C03492E5D90708F061C0C03282E598
:10334000D80708F054C04C2F4695469590E2499F07
:10335000A0011124C37021E030E0C90102C0880F30
:10336000991FCA95E2F7EA01C82BD92BCE019D68B7
:10337000A6C0C03C92E5D90768F48C2F8F71C03A83
:10338000D24508F062C090E0D82FCC27CE01846FE0
:10339000906A95C0C03E82E5D80708F45FC0CE01B0
:1033A00096558F3F910511F008F085C0CE01992701
:1033B0000E948416906683C081E090E080C0C55A68
:1033C000D0E0C157DE4F8881C82FD0E0CE01906495
:1033D00076C0CE01906573C08D2F0E943516182FD0
:1033E000CE0199270E9484161F71912B68C0CF715E
:1033F000D0E0DC2FCC27CE01816F906A60C08C2F8B
:103400008F718695869590E2899F90011124C370F3
:1034100081E090E002C0880F991FCA95E2F79C688E
:1034200011C08C2F8F718695869590E2899F9001AF
:103430001124C37081E090E002C0880F991FCA95E3
:10344000E2F79A68822B932B3AC00E9435168F714F
:1034500090E0D82FCC27CE01906231C0CF71DD270C
:10346000DC2FCC27CE01806F906A29C08C2F8F7102
:103470000E94351695E0D695C7959A95E1F7CF70DD
:10348000D0E0DC2FCC27282F30E084FF05C084E07B
:10349000220F331F8A95E1F7D069CE01D3CF8D2F4C
:1034A0008F710E943516C82FC8010E948416CF71F3
:1034B00090629C2B04C080E090E001C0CE01DF91BF
:1034C000CF911F910F910895A6E0B0E0EAE6FAE1EE
:1034D0000C94E8320E94B82E8C0180918B0390915D
:1034E0008C030817190781F019821A820E94B82EDE
:1034F000682F49815A81792F80E090E00E94872FC0
:1035000010938C0300938B032696E4E00C94043311
:103510000E94BB150895A8E0B0E0E1E9FAE10C943F
:10352000EA3266EE7EEF80E090E00E94AF3360E02A
:1035300082E090E00E94913360E083E090E00E949E
:10354000913310928A031092890360E074E184E061
:1035500090E00E94AF3360E086E090E00E949133FB
:103560006FEF87E090E00E94913340E050E0BA01B5
:1035700088E090E00E94A33360E084E290E00E9443
:10358000913360E087E190E00E94913360E08CE04D
:1035900090E00E94913360E08DE090E00E949133D2
:1035A00019821A821B821C821D821E821F8218862B
:1035B00048E050E068E170E0CE0101960E9481335E
:1035C00040E050E0BA0180E290E00E94A33340E086
:1035D00050E0BA018FE090E00E94A33340E050E059
:1035E000BA0183E190E00E94A3332896E2E00C94B4
:1035F00006338095909188038923809388030895EA
:103600009091880380918703982B90931203809167
:103610008603882389F0892B80931203E4E1F3E089
:1036200097E080E0915029F021912223D9F38F5F18
:10363000F9CF81111092860348E050E06EE773E005
:1036400082E193E00E94D334892BA9F088E0E2E183
:10365000F3E0AEE7B3E001900D928A95E1F7E091D7
:103660000C05F0910D05309731F00280F381E02DCB
:1036700082E193E00995089580917C039091430342
:10368000891719F08F5F8770FBCF0895CF93DF9371
:103690008091420382958F7009F04EC08091410362
:1036A000882309F449C080917C03409143035091E1
:1036B0003D0360913C03C0913E03D0913F0377E00E
:1036C0008417D1F190E0789FF001799FF00D1124DB
:1036D000DF01AC5BBC4F14962C911497222349F167
:1036E00011962C911197251324C02C91261321C0DB
:1036F00015962C91159721111CC012962D913C9175
:1037000013972C1B3D0B283C310598F48091420304
:103710008F70806180934203E65BFC4F80818F70E5
:10372000806180838CE393E00E940C040E943C1B28
:1037300003C001968770C4CFDF91CF910895A0E0B8
:10374000B0E0E5EAFBE10C94E3327C0100919004E7
:10375000109191048091890390918A03082B192B71
:10376000CFE0D0E0CC24C394D12CC6010C2E02C0F3
:10377000880F991F0A94E2F780239123892B21F463
:10378000219798F7B12C09C0BC2EB7018C2F0E944D
:1037900020170E943819019799F38B2DCDB7DEB70A
:1037A000E9E00C94FF32CF93DF93EC010E949F1B62
:1037B000BE010E9420170E943819DF91CF91089511
:1037C000FC0124812223D9F0808191810E94D31BA6
:1037D00092959F70963079F010F4925001C09A50F3
:1037E000923068F4803F69F018F4883E40F409C0D4
:1037F000843F29F406C0883E20F0813F11F080E02C
:10380000089581E00895A4E1B0E0E9E0FCE10C94C2
:10381000E0328C0186E0F801DE011F9601900D92E6
:103820008A95E1F7F8018481E5809CE3892E93E095
:10383000992E9091400391112EC0882309F471C1F3
:10384000EE2009F450C0C8010E94E01BF82E882326
:1038500009F449C087E0F801D40101900D928A95DE
:10386000E1F710914003113099F480913C0390915D
:103870003D030E94D31B92959F70963049F4863F7A
:1038800039F080913B03812780933B0310933A03E7
:103890000E94461B48C1F801D080C180A280B3803D
:1038A000F090410320913E0330913F03FF2009F443
:1038B000E7C0A501421B530B483C510508F09DC0D1
:1038C000882309F430C180914203282F207F9091F2
:1038D0003D03222361F09C1509F460C0C8010E94D9
:1038E000E01B811163C0C8010E940C041AC19C1125
:1038F00013C090913C039D110FC0E1100DC08F705B
:103900008061809342038CE393E00E940C048091D9
:103910004203F801868303C1E1103AC040E06C2DF8
:103920008D2D0E94181940E06C2D8D2D0E941819C4
:10393000E82E8111F4C0DF86C88A8F8598890E949D
:10394000D31B292F22952F70243020F49F70223012
:1039500028F009C02A50223080F014C0992349F081
:10396000811107C013C0992321F0F8019681907F3F
:1039700069F0805E883030F409C0803F38F0815FA4
:10398000833020F0C8010E940C04EF2CFE2CCBC029
:1039900080914203816080934203C1C090913C03B7
:1039A0009D119CCFE1109ACFF80198C0EE2009F448
:1039B0009ACF20914203822F82958F7090E00297D8
:1039C0008CF080913C0390913D0399878887BB865A
:1039D000AA86809140038C871D862E87CE0108968B
:1039E0000E940C0487E0F801ACE3B3E001900D9273
:1039F0008A95E1F70E94461B94C090914203292FBB
:103A0000207F51F48CE393E00E940C0487E0F401E2
:103A100011928A95E9F783C0882309F484C08091C4
:103A20003D038C110CC080913C038D1108C0E11046
:103A300006C0F8019683C8010E940C046AC0C80140
:103A40000E94E01B882309F44ECFEE2009F44BCFEF
:103A500020914203822F82958F7090E0029714F29A
:103A600080913C0390913D039A838983BC82AB8211
:103A7000809140038D831E822F83CE010196B0CFAB
:103A8000A21AB30AF8ECAF16B10408F042C08823BA
:103A900009F447C0FE2CEE2009F425CF80913D03A8
:103AA0008C1129C080913C038D1125C09091420357
:103AB00090FD18C0892F82958F70282F30E0211536
:103AC000310581F0F80196832F30310541F08F5F89
:103AD000982F9295907F86818F70892B8683C8015D
:103AE0000E940C0487E0F801ACE3B3E001900D9272
:103AF0008A95E1F718C0C8010E94E01B811172CFBE
:103B000080914203816080934203C8010E940C04AB
:103B10000AC087E0F40111928A95E9F704C0F12CFC
:103B200002C0FF24F3948F2D6496ECE00C94FC32D9
:103B30009A3078F5863068F5E82FF0E086E0989FB7
:103B4000E00DF11D11249E2F977083E0F695E79507
:103B50008A95E1F7EE0FFF1FEE0FFF1FE65EFC4FA9
:103B600040E050E080E0219130E0092E02C036951F
:103B700027950A94E2F721703327042E01C0220F03
:103B80000A94EAF7822B4F5F5F4F4430510559F793
:103B9000089580E008959A3088F5863078F5E82F0A
:103BA000F0E086E0989FE00DF11D11248E2F8770C4
:103BB00051E001C0550F8A95EAF783E0F695E79545
:103BC0008A95E1F7EE0FFF1FEE0FFF1FE65EFC4F39
:103BD00020E030E070E04081CB01022E02C09695DB
:103BE00087950A94E2F7817081958427852384273D
:103BF00081932F5F3F4F2430310569F708959093EB
:103C0000910480939004089521E030E002C0220FD7
:103C1000331F8A95E2F7209530958091900490911A
:103C20009104822393230E94FF1D089590917D03A8
:103C30008095892380937D03282F277069F4981736
:103C400059F09091AA0292FF07C0869586958695B5
:103C50000E94041E10927D0308959091AA0292FB87
:103C6000222720F9281779F080FB92F99093AA0275
:103C70006091A9027091AA0284E090E00E94AF33A3
:103C800082E00E94161E089521E030E002C0220F5B
:103C9000331F8A95E2F78091900490919104822BD2
:103CA000932B0E94FF1D089590938A0380938903AC
:103CB00008951092880386E0E4E1F3E0DF011D92AD
:103CC0008A95E9F780E090E00E942C2F80E090E058
:103CD0000E94072F109287030E94001B08958823DB
:103CE00021F00E94F91A0E94001B0895882339F0E0
:103CF00090918803892B809388030E94001B08956C
:103D00001F93CF93DF93182FEB010E94CB302097A6
:103D100041F08FE99FE00197F1F700C00000219783
:103D2000F6CF812F0E949830DF91CF911F91089597
:103D30000895089530916E018091FE0480FF16C0B1
:103D4000E0916D0163E0E69FF0011124E256FB4F24
:103D5000569A8BB18F7B9BB190642FB7F894AF01CB
:103D600063E0369F400D511D112414C080916F01F6
:103D700090917001891720F7E82FF0E0AF01440F10
:103D8000551FE40FF51FE256FB4F1182108212827D
:103D90008F5FF0CFE417F50789F0319168E09BB9A8
:103DA000000000C037FF8BB9330F000000C000C017
:103DB00000C08BB900C06A9591F7ECCF2FBF8FE59B
:103DC00094E00197F1F700C0000008959091FE047F
:103DD00090FF16C090916F0120917001921770F4BE
:103DE000E92FF0E0DF01AA0FBB1FEA0FFB1FE2562D
:103DF000FB4F8183608342839F5FF0CF0E949A1EB6
:103E000008958091FE04282F269530E02115310574
:103E100019F48170826005C02B32310524F0817065
:103E200084658093FE040895A0E0B0E0EAE1FFE13C
:103E30000C94E03249015A016B017C010E94011F80
:103E40008401A4016A2D7B2D88E090E00E94A333B9
:103E500094014A2D5B2DB601C70100E20E94AA34ED
:103E6000622F84E290E00E949133CDB7DEB7ECE0A0
:103E70000C94FC3280910205882319F081508093C4
:103E800002052091FE043091FF04409100055091FD
:103E900001056091020570910305809104059091E0
:103EA00005050E94141F089580910205833018F4BF
:103EB0008F5F809302052091FE043091FF044091B2
:103EC00000055091010560910205709103058091F4
:103ED0000405909105050E94141F0895EEEFF4E08B
:103EE00027E1208311828FEF828380E8838314820D
:103EF000A8E9B4E012968C911297836012968C9385
:103F0000758130E04FEF50E860E0868197810E9434
:103F1000141F0895A0E0B0E0E0E9FFE10C94E23264
:103F2000E82EF62EE901E42FF0E0611106C0E1531E
:103F3000FC4FE4914E2F2E2F71C0062F10E0E1535D
:103F4000FC4F4491F42FC42ED12C26E0829FC00157
:103F500011242FEF30E0B9010E9452345BEA56037E
:103F6000C001579F900D11248E0D911D8E0D911D36
:103F7000582F550F580FD901A01BB10BAC9DC00194
:103F8000AD9D900DBC9D900D1124E92FF59ED001A3
:103F90001124AB2FBB277901EA1AFB0AEC9CD00154
:103FA000ED9CB00DFC9CB00D11245901A51AB1086F
:103FB000A09E7001A19EF00CB09EF00C1124EF2C7D
:103FC000FF242E193F092C9D80012D9D100D3C9D35
:103FD000100D1124212F6230710591F048F4611504
:103FE0007105E1F061307105B9F4242F4B2F16C033
:103FF0006430710569F040F06630710579F00CC0ED
:10400000242F492FE12F0AC0492FEF2F2B2F06C055
:10401000292FE42F412F02C0292FEB2F498328831A
:10402000EA83CDB7DEB7EAE00C94FE32A3E0B0E05D
:10403000ECE1F0E20C94EA329091FE0490FF0AC0A9
:104040009E012F5F3F4F0E948A1F4B8169818A81A9
:104050000E94E61E2396E2E00C940633A3E0B0E053
:10406000E4E3F0E20C94E332082FE62EF42ED22E95
:104070009091FE0490FF7DC02091FF04281308C09A
:1040800080910005861304C080910105841729F0F2
:1040900080919A04826080939A04E92FE695AE2F6E
:1040A000B0E0A952BE4F8C91809398049E7F9230CD
:1040B00071F49E012F5F3F4F4F2D6E2D802F0E9478
:1040C0008A1F4B8169818A810E94E61E3CC0823032
:1040D00019F4F090010537C08630A1F1893091F1D3
:1040E000893189F5E9518E2F8170C82EE695F0E06F
:1040F000E153FB4F1491B12C60917101B616F8F4A5
:10410000B19EC001112470E00E945234802FC11072
:1041100002C0860F01C0861B90916F012B2D30E0ED
:10412000290F311DA901440F551F240F351F225699
:104130003B4F4F2D6E2D0E948A1FB394DDCF0E94FE
:104140009A1E01C0022F0093FF04E0920005F09236
:104150000105DD2071F02091FE046091020570914F
:104160000305302FA70180910405909105050E9459
:10417000141F2396E9E00C94FF32EEEFF4E0438144
:1041800021E1421B08F440E021E0628181810E942C
:104190002E200895EEEFF4E0438121E1420F08F470
:1041A0004FEF21E0628181810E942E200895EEEF81
:1041B000F4E0628121E1621B08F460E021E04381C8
:1041C00081810E942E200895EEEFF4E0628121E1CA
:1041D000620F08F46FEF21E0438181810E942E205D
:1041E0000895EEEFF4E0818121E0438162818850FF
:1041F0000E942E200895EEEFF4E0818121E04381BA
:104200006281885F0E942E200895982F907F903BB6
:10421000F1F038F49039D9F0903AC9F09038C9F4F7
:1042200016C0903D49F018F4903C31F012C0903E19
:1042300071F0903F19F00DC082E00895815F8F30DA
:1042400040F4E82FF0E0E853FE4F8081089583E0CA
:10425000089580E00895A7E0B0E0E1E3F1E20C9476
:10426000E2327E0125E0E20EF11C8C0108511F4F65
:1042700080919903843009F085C0809158018F7036
:104280008093E9008091E80082FF7CC08091E80083
:1042900085FF78C00E94602C81111DC084E0C82E6B
:1042A000D12CCE0101965C0109C08091F100D501AD
:1042B0008D935D01B1E0CB1AD10869F08091E800DF
:1042C00085FDF3CF8091E8008B778093E8000E9412
:1042D000602C882399F38091E80085FD05C08091CA
:1042E000E8008B778093E800DA808D2D0E9405210D
:1042F000282FDD828B818E838C818F8321110FC0CB
:104300008981843049F0873039F0863039F0853042
:1043100009F0AECF21E003C023E001C022E0670135
:104320008C2D8E19821708F0A3CFD601BD906D0198
:104330003FB7F894D8011196EC911197F0E0CF01B6
:10434000019612966C9170E00E946634D8014C91EF
:1043500050E084179507A1F0D80113968D919C9198
:104360001497E80FF91FB08211968C91119790E085
:10437000019612966C9170E00E946634F801818378
:104380003FBFCECF2796EAE00C94FE32A4E0B0E027
:10439000ECECF1E20C94E5327B01142FD22E4A832F
:1043A0002B830C83842F0E94052181111DC082E084
:1043B000E816F10479F083E0E816F10429F081E0D1
:1043C000E816F10481F50BC0073F11F487E00AC03D
:1043D00084E008C087EFD812FBCF86E003C0173F08
:1043E000B9F785E0898303C012951F701983809106
:1043F00099038430C1F4809153018F708093E90058
:1044000040E050E064E070E0CE0101960E94AD23F0
:10441000811109C08091E80085FD05C08091E80008
:104420008E778093E8002496E7E00C940133909116
:10443000FE0490FF43C09170811102C0926006C0DB
:104440008B3210F0946502C0880F982B9093FE0475
:1044500080919A04816080939A04662391F0209160
:10446000FE043091FF0440910005509101056091D8
:1044700002057091030580910405909105050E9445
:10448000141F6091FE04669570E04BE050E08FE5EC
:1044900091E00E94C634892B19F00E94982B02C02B
:1044A0000E949F2B81E08093950420E040910105BC
:1044B000609100058091FF040E942E200895809154
:1044C000FE048695815009F48AE261E00E94172279
:1044D00008958091FE0486958F5F8B3208F081E00D
:1044E00061E00E94172208958091900490919104B8
:1044F0009C01267033272630310511F4886001C0F5
:10450000877F0E94FF1D08950F931F93611590E20E
:1045100079073CF4611590EE790734F09B01305E29
:1045200005C02FEF3FE302C020E030E08901000F1B
:10453000012F001F110B11952F77482F4F70406EE0
:10454000E091A303F091A40363E070E083EA93E0B9
:1045500009951F910F9108950F93042F0F77262F20
:104560002F778F70482F406BE091A303F091A40345
:1045700063E070E083EA93E009950F910895A3E06A
:10458000B0E0E5ECF2E20C94E4327C01162FD42E7C
:10459000C22E8091C8038430F9F4E091BD03F091FC
:1045A000BE03309709F4B7C0C701019763E070E01C
:1045B0000E945234CB01880F991F860F971F1983D1
:1045C0004A83CB824E2D481B9E012F5F3F4FBC017B
:1045D00083EA93E00995ACC082E0E816F10409F49F
:1045E0004FC083E0E816F10431F081E0E816F104F1
:1045F00009F08DC078C0862F807F803AE1F050F4BA
:104600008038A1F0803909F086C0E091A703F091CD
:10461000A80325C0803EA1F0803FB9F0803B09F09F
:104620007AC0E091A503F091A60319C0E091A90317
:10463000F091AA0314C0E091AB03F091AC030FC05A
:10464000E091AD03F091AE030AC0623F09F063C090
:10465000E091AF03F091B003309731F45CC0309734
:1046600009F459C0123F21F42C2D4D2D62EF04C0E6
:104670002C2D4D2D612F6F7083EA93E0099558C062
:10468000862F807F803D51F0803F69F0803C09F0AB
:1046900042C0E091B103F091B20315C0E091B303C1
:1046A000F091B40310C0633F29F4E091B503F09199
:1046B000B60306C0613F79F5E091B703F091B80306
:1046C000309739F428C0309731F1812F8D7F813FA9
:1046D00019F44D2D612F03C04D2D612F6F7083EAAA
:1046E00093E0099525C0683F28F0E091B903F09167
:1046F000BA0306C0663F79F4E091BB03F091BC03B6
:10470000309749F0612F83EA93E0099511C084E066
:10471000E816F104D8F4E091BF03F091C00330979C
:1047200039F00C2D2D2D412FB70183EA93E0099527
:10473000E091C103F091C203309759F00C2D2D2D5B
:10474000412FB70183EA93E0099503C0E12CF12CD6
:10475000E2CF2396E8E00C940033EF92FF920F93A0
:104760001F93CF93DF937C018B010E94602C8111FA
:1047700019C0E70101151105A1F08091E80085FD40
:104780000AC08091E8008E778093E8000E94602C38
:10479000882381F307C089918093F10001501109AA
:1047A000E9CF80E0CDB7DEB7E6E00C940233AAE2B1
:1047B000B0E0EDEDF3E20C94E932EBE9F3E0809147
:1047C000F100819323E0E33AF207C9F780919C035B
:1047D000833009F461C030F4813071F0823009F423
:1047E0009BC0B2C08A3009F487C08B3009F46CC01A
:1047F000893009F0A9C020C080919B03813A09F05B
:10480000A3C08091E800877F8093E80080919F0398
:104810009091A003892B21F468E08FE893E003C016
:1048200060E080E090E070E00E94192E8091E80046
:104830008B778093E80088C080919B03813209F0D8
:1048400083C080919F039091A003029708F07CC0E1
:104850008091E800877F8093E8008091E80082FDE6
:1048600005C0809199038111F8CF6EC02091F300AB
:104870008091F20090E0922B029731F48091F10048
:10488000813011F0863021F48091F10080938E0305
:104890008091E8008B7754C080919B03813A09F0A6
:1048A00053C080919F039091A003892B09F04CC0C5
:1048B0008091E800877F8093E8008091E80080FF86
:1048C000FCCF80915E0137C080919B038132E1F57E
:1048D00080919F039091A003892BB1F58091E8000E
:1048E000877F8093E8000E94932C80919D038093A2
:1048F0005E010E94591E28C080919B03813221F5E0
:104900008091E800877F8093E8000E94932C80913B
:104910009E0380938D0318C080919B03813AA1F47C
:104920008091E800877F8093E8008091E80080FF15
:10493000FCCF80918D038093F1008091E8008E7709
:104940008093E8000E94932C8091E80083FFD9C1F6
:1049500080919B0390919C03492F50E04A30510570
:1049600008F0CFC1FA01E955FF4F0C947A34803832
:1049700021F0823809F0C5C108C080919703909159
:104980009803992389F082600FC080919F038F70F4
:10499000873008F0B6C18093E9008091EB0085FB79
:1049A000882780F91092E9009091E800977F909312
:1049B000E8008093F1001092F10066C1282F2D7F4E
:1049C00009F09FC1882319F0823061F09AC180916B
:1049D0009D03813009F095C1933009F080E0809308
:1049E00098032EC080919D0381112AC080919F035E
:1049F0008F702FEF280F263008F083C18093E900D5
:104A00002091EB0020FF1CC0933021F48091EB003B
:104A1000806214C09091EB0090619093EB0021E0D4
:104A200030E0A90102C0440F551F8A95E2F7409378
:104A3000EA001092EA008091EB0088608093EB001E
:104A40001092E9008091E800877F21C1811159C14E
:104A500010919D031F778091E3008078812B8093D4
:104A6000E3008091E800877F8093E8000E94932C08
:104A70008091E80080FFFCCF8091E3008068809304
:104A8000E300111102C082E001C083E0809399032A
:104A900038C18058823008F034C180919D039091D4
:104AA0009E038C3D53E0950779F583E08A838AE283
:104AB00089834FB7F894DE01139620E03EE051E27F
:104AC000E32FF0E050935700E49120FF03C0E295FC
:104AD000EF703F5FEF708E2F90E0EA3010F0C796D6
:104AE00001C0C0968D939D932F5F243149F74FBF2E
:104AF0008091E800877F8093E8006AE270E0CE0151
:104B000001960E94192EAEC040919F035091A003C0
:104B1000292F332723303105A9F068F421303105DE
:104B200009F4FEC02230310509F0EBC08FE990E0B6
:104B3000EAE4F5E044C02132310521F122323105A9
:104B400071F1DFC0992781309105A1F058F00297EB
:104B500009F0D7C0EBEFF5E0E4918E2F90E0EBEF9A
:104B6000F5E02AC0E7E2F6E0E4918E2F90E0E7E27C
:104B7000F6E022C0E7E1F6E0E4918E2F90E0E7E175
:104B8000F6E01AC04115510509F4CFC04130510576
:104B900009F0B7C089E090E0E5E7F5E010C0411505
:104BA000510509F4C7C04130510509F0AAC082E39C
:104BB00090E0E4EDF4E003C0009709F4A2C0209176
:104BC000E800277F2093E8002091A1033091A20301
:104BD0008217930708F49C0140E02115310589F103
:104BE00080919903882309F43DC08530D9F18091E3
:104BF000E80083FD37C08091E80082FD2FC08091DE
:104C0000E80080FFEACF4091F3008091F20090E04D
:104C1000942B2115310559F08830910540F44491C9
:104C20004093F1003196215031090196F2CF41E0D5
:104C3000089709F040E08091E8008E778093E800C3
:104C4000CCCF4111CDCF0AC080919903882351F078
:104C5000853041F08091E80083FD04C08091E80038
:104C600082FFF2CF8091E8008B778093E80049C003
:104C7000803809F046C08091E800877F8093E80083
:104C800080919A038093F1008091E8008E77809361
:104C9000E8000E94932C35C0811133C080919D03A0
:104CA00090919E039927029764F58091E800877F91
:104CB0008093E80010919D0310939A030E94932C17
:104CC000111106C08091E30087FD02C081E001C0A0
:104CD00084E08093990342E061EC81E00E94B22C71
:104CE00042E261EC82E00E94B22C42E361E883E0A0
:104CF0000E94B22C42E360E884E00E94B22C8091D2
:104D000099038091E80083FF1AC08091E800877FB3
:104D10008093E8008091EB0080628093EB000FC0ED
:104D200082E190E0E9EEF5E04ACF89E090E0ECE541
:104D3000F5E045CF84E490E0E6E0F5E040CFAA96C8
:104D4000E3E00C94053308952F923F925F926F92A7
:104D50007F928F929F92AF92BF92CF92DF92EF920B
:104D6000FF920F931F93CF93DF93FC0162805480D7
:104D700081E08483EBE2F6E07490EAEAF6E0E49105
:104D8000C0910105C695C158D0E0CC0FDD1F2D2E76
:104D90003324812C75E0972EAA24AA94B12CE7190C
:104DA000EE2EF12C80917101881608F098C0C82C65
:104DB000D12C22E0261568F09C9CF0019D9CF00D02
:104DC0001124EE53FB4F8091FF04808380910005F6
:104DD000818351100AC09C9CF0019D9CF00D112410
:104DE000EE53FB4F1382128260C09C9C80019D9CFD
:104DF000100D1124E801CE53DB4F8B818823F9F08D
:104E000081508B832FEF829FC00111246C8170E051
:104E10000E945234FB01FF27E55DF94F8491E82F92
:104E2000E7192FEFE29FC0011124B7010E9452340D
:104E300080910105689FB00111247A8336C00E94D9
:104E40005D33B5010E9466348215930574F582E0E6
:104E5000861588F40E945D33B5010E94663488830C
:104E60000E945D33209100052695622F70E00E941C
:104E70006634280F29839C9CF0019D9CF00D112421
:104E8000EE53FB4F128280910105843120F0893C62
:104E900018F088EC01C084E19C9CF0019D9CF00D11
:104EA0001124EE53FB4F8483838380916F0196011D
:104EB000280F311DC901880F991F280F391F22564D
:104EC0003B4F9C9CF0019D9CF00D1124EE53FB4F39
:104ED0004281618180810E948A1F839463CF0E94F6
:104EE0009A1EDF91CF911F910F91FF90EF90DF906D
:104EF000CF90BF90AF909F908F907F906F905F907A
:104F00003F902F9008950F931F93CF93DF93EC0161
:104F100000E010E080917101282F30E002171307A4
:104F200024F590916F019801290F311DA901440FBB
:104F3000551F240F351F22563B4F869590E04C811C
:104F4000081719071CF4442331F002C0411103C0B3
:104F50004091010501C040E0609100058091FF048F
:104F60000E948A1F0F5F1F4FD5CF0E949A1E8C810F
:104F700090E00196817099278C83DF91CF911F91EA
:104F80000F910895A0E0B0E0E8ECF7E20C94E03275
:104F90008C01FC014481C42FD0E09E01DE010E94FF
:104FA00019349B01AC010E94E4336B017C01E0E207
:104FB000F0E0EC1BFD0BA5E5B0E09B01AC010E940D
:104FC000E4334B015C019F01DF010E9480349B01AF
:104FD000AC010E94EF339B01AC012C0D3D1D4E1D19
:104FE0005F1DC501B4010E94F733C22FD22F2A32B0
:104FF00028F4F3E02F9F900111240DC025E530E047
:105000002C1B3109C901880F991F280F391F37FF41
:1050100002C02F5F3F4F35952795C22FC095F12CC9
:1050200085E5E82EED1A80917101F816C8F4F1FCBF
:1050300002C08E2D01C08D2F90916F012F2D30E079
:10504000290F311DA901440F551F240F351F22566A
:105050003B4F4C2F609100050E948A1FF394E3CFD1
:105060000E949A1EF8018481811102C091E003C060
:10507000803219F49FEF90936C0190916C01890F2D
:10508000F8018483CDB7DEB7ECE00C94FC321F93BB
:10509000CF93DF93EC018C81811109C081E08C8377
:1050A00010929C0492E090936B0180936A0180912E
:1050B0006F0190917001891770F4E82FF0E09F0163
:1050C000220F331FE20FF31FE256FB4F11821082B3
:1050D00012828F5FF0CF10E0609171011617C0F55A
:1050E000E12FF0E070E0CF010E94663420916F0163
:1050F000820F20919C04022E000C330B90E0E217EB
:10510000F307CCF020916B01022E000C330B2E170D
:105110003F078CF09C01220F331F820F931F9C01CD
:1051200022563B4F40910105609100058091FF049C
:105130000E948A1F0BC0FC01EE0FFF1F8E0F9F1FE6
:10514000FC01E256FB4F1182108212821F5FC4CF16
:105150000E949A1E80916A0120919C04280F20933E
:105160009C0490916B01980F90936B0119165CF45D
:10517000022E000C330B4091710150E04150510957
:105180002417350734F0819580936A01813009F442
:105190001C82DF91CF911F910895A0E0B0E0E3ED74
:1051A000F8E20C94DF32EC018A8180FF03C0BB245B
:1051B000BA9402C0BB24B3948C8181110DC081E0EC
:1051C000B81206C080917101815080939B0402C087
:1051D00010929B0481E08C83A12C4CE0842E909053
:1051E0007101A91408F041C080916F01CA2CD12C23
:1051F0008601080F111DC801880F991F080F191F7C
:1052000002561B4FF80111821082128234E0E32E05
:10521000F12C712C80919B04870D8D302CF0682D22
:105220000E944434892F02C087FD890D082E000C8E
:10523000990BC816D90691F4809101058E9DA001A5
:105240008F9D500D1124559547955595479598017B
:10525000609100058091FF040E948A1F7B0CF1E0A1
:10526000EF1AF108B9F6A394BACF0E949A1E809162
:105270009B0491E0B9120EC0811107C080917101A9
:10528000815080939B041C820FC0815080939B04AB
:10529000BC820AC090E001966091710170E00E94AA
:1052A000663480939B048C83CDB7DEB7EDE00C941D
:1052B000FB32FF920F931F93CF93DF93EC01F12CFE
:1052C0000FEF10E060917101F616F0F480916F011C
:1052D0002F2D30E0280F311DC901880F991F280F8D
:1052E000391F22563B4F70E0C8010E946634962F4A
:1052F0008C814091010560910005F99E800D11247B
:105300000E948A1FF394DECF0E949A1E9A818C819C
:1053100090FF02C08F5F01C081508C83CDB7DEB794
:10532000E5E00C940333A3E0B0E0E9E9F9E20C9482
:10533000E8328C0180919D0481110AC09E012F5F8B
:105340003F4F4FEF6FEF0E948A1F8A8180939D0429
:10535000F8018481813051F028F0823061F440916D
:105360009D040AC080919D0440E007C060919D04A7
:1053700040E080E003C040E080E060E00E94E61E84
:10538000F801848190E0019663E070E00E94663449
:1053900084832396E4E00C940433CF93DF93EC01F1
:1053A000EEEFF4E0438162818C810E9416208C81B3
:1053B0008F5F8C83DF91CF910895CF93DF93EC01C2
:1053C000EC81F0E0E55DF94F4491EEEFF4E06281AD
:1053D00081810E9416208C818F5F8C83DF91CF9119
:1053E00008950F931F93CF93DF93C42FD22FFC0107
:1053F00085818823B1F0409309050E94B82E9093CF
:1054000008058093070580E28C0F883008F068C09B
:10541000C77081E001C0880FCA95EAF70E94761E26
:105420005FC08091090548133DC0809107059091A8
:1054300008050E949D2E883C9105A0F510E21D0FE5
:10544000CD17E9F080E28C0F883040F4C77081E01E
:1054500001C0880FCA95EAF70E946F1E183078F5D0
:1054600081E09D2F977001C0880F9A95EAF70E94FE
:10547000761E093351F560E570E089E329C00933F0
:1054800019F460E570E002C060E070E0802F0E94D7
:10549000801E183028F5D77081E001C0880FDA959A
:1054A000EAF70AC080E28C0F8830D0F4C77081E040
:1054B00001C0880FCA95EAF70E946F1E11C0093318
:1054C00051F460E570E089E309C060E070E0802F8E
:1054D0000E94801EE0CF60E070E0802F0E94801E5E
:1054E000DF91CF911F910F910895FC01680F791FF3
:1054F0008FEF91E3E617F70771F02191822728E0FB
:1055000030E087FF03C0880F892701C0880F215032
:105510003109B9F7EFCF0895A0E0B0E0E2E9FAE28F
:105520000C94E032863030F4811105C090918000F7
:105530009F7704C085E090918000906890938000F0
:10554000A0918600B0918700282F30E00E94193486
:1055500025E030E040E050E00E94F7330027122FB2
:10556000232F342F012F122F232F332780918600D2
:10557000909187006CE070E00E94523460177107D0
:1055800030F0C80169E070E00E9452345EC0809142
:10559000860090918700E0908600F0908700E0916F
:1055A0008600F0918700C6E0D0E0BE010E94523430
:1055B000060F171F211D311D4801590185E0880C78
:1055C000991CAA1CBB1C8A95D1F7C701BE010E9479
:1055D00052346F01E12CF12CA7019601260F371FE1
:1055E000411D511DC501B4010E94F73369017A01C3
:1055F000E0918600F0918700CA01B9010E94283429
:105600009B01AC01DF010E94E4339B01AC01C701A7
:10561000B6010E942834DC01CB012FE0B695A79596
:10562000979587952A95D1F700918600109187006C
:1056300020E030E0081719072A073B0728F460919B
:10564000860070918700CB01BC0170938900609344
:105650008800CDB7DEB7ECE00C94FC32682F86E012
:1056600090E00E9491330895863008F085E0909193
:1056700006059770282F220F220F220F922B90934E
:105680000605987F21E009F420E09091060520FBB3
:1056900090F9909306050E948C2A089580E090E08E
:1056A0000E947B33863E9E4F51F00E948B1A809160
:1056B000060584708961809306050E942E2B86E082
:1056C00090E00E946D3380930605282F269526953D
:1056D000269530E02630310524F08770886280936B
:1056E00006058091060580FF04C0869586958695FF
:1056F00001C080E00E948C2A08959091FE0490FFE2
:1057000004C09695981748F003C0811106C090E038
:10571000961718F40E946922089561E00E941722EA
:105720000895882311F0FA0101C0FB01099508953D
:10573000E8E9F4E0118282818460828308956091B7
:10574000FE04669570E04BE050E08FE591E00E942A
:10575000C634892B19F481E0809399040E942A169B
:10576000909393048093920480919A048460809330
:105770009A040895089580918E0308959B01909155
:1057800099039430F1F48F708093E9008FEF90913A
:10579000E800815095FD06C095ED9A95F1F700005F
:1057A0008111F5CF8091E80085FF0BC0BA01C901D6
:1057B00040E050E00E94AD238091E8008E77809316
:1057C000E800089543E050E0BC0182E00E94BE2B57
:1057D0000895CF93DF93EC0148E050E0BC0181E0F5
:1057E0000E94BE2B88E0FE01AFE8B3E001900D926D
:1057F0008A95E1F7DF91CF9108951F920F920FB62E
:105800000F9211242F933F934F935F936F937F9346
:105810008F939F93AF93BF93CF93DF93EF93FF93B8
:10582000C091E900CF708091EC00D82FD17080FD3D
:10583000D0E81092E9008091F000877F8093F0001B
:1058400078940E94D7231092E9008091F00088603C
:105850008093F000CD2BCF70C093E900FF91EF91C2
:10586000DF91CF91BF91AF919F918F917F916F9178
:105870005F914F913F912F910F900FBE0F901F900E
:105880001895E8EDF0E080818E7F80831092E20031
:105890001092DA001092E100A0EEB0E08C918160ED
:1058A0008C9380818F77808319BCA7EDB0E08C91B9
:1058B0008E7F8C9380818F7E808310921505089552
:1058C0002091E4003091E50095E64091EC00842FB2
:1058D000817040FF23C08091E80080FD1DC0809151
:1058E0009903882399F0853099F08091EB0085FD2C
:1058F00011C04091E4005091E5002417350729F3C9
:10590000915011F09A01E1CF84E0089582E008956A
:1059100083E0089581E0089580E008954091E800D3
:1059200042FFDDCF089580919B0387FF11C08091D6
:10593000E80082FD05C0809199038111F8CF11C064
:105940008091E8008B770BC080919903882349F000
:105950008091E80080FFF8CF8091E8008E778093F7
:10596000E8000895982F973068F59093E90098170C
:1059700039F07091EC002091ED005091F00003C0DF
:10598000242F762F50E021FD02C09F5FECCF309195
:10599000EB003E7F3093EB003091ED003D7F309384
:1059A000ED003091EB0031603093EB007093EC0030
:1059B0002093ED005093F0002091EE0027FDE5CFFD
:1059C00080E008958F708093E90081E00895A0E061
:1059D000B0E0EDEEFCE20C94E432C8EDD0E088815A
:1059E0008F7E8883E7EDF0E080818160808384E0B2
:1059F00082BF81E08093150588818E7F888302EEC7
:105A000010E0F80110821092DA0081EEC82ED12C3D
:105A1000F601108288818F778883888180688883E7
:105A200088818F7D888319BC1092990310929A0304
:105A3000109298031092970390EEE92EF12CF70143
:105A400080818B7F808388818160888342E060E0F1
:105A500080E00E94B22CF60180818E7F8083F80165
:105A6000808181608083808188608083F70180816C
:105A70008E7F8083888180618883CDB7DEB7E8E040
:105A80000C9400331F920F920FB60F9211242F9394
:105A90003F934F935F936F937F938F939F93AF93B6
:105AA000BF93EF93FF938091E10082FF09C0809143
:105AB000E20082FF05C08091E1008B7F8093E100CE
:105AC0008091DA0080FF2AC08091D80080FF26C034
:105AD0008091DA008E7F8093DA008091D90080FF78
